{
	"contracts/joci.sol": {
		"JOCIToken": {
			"abi": [
				{
					"inputs": [],
					"stateMutability": "nonpayable",
					"type": "constructor"
				},
				{
					"anonymous": false,
					"inputs": [
						{
							"indexed": true,
							"internalType": "address",
							"name": "owner",
							"type": "address"
						},
						{
							"indexed": true,
							"internalType": "address",
							"name": "spender",
							"type": "address"
						},
						{
							"indexed": false,
							"internalType": "uint256",
							"name": "value",
							"type": "uint256"
						}
					],
					"name": "Approval",
					"type": "event"
				},
				{
					"anonymous": false,
					"inputs": [
						{
							"indexed": true,
							"internalType": "address",
							"name": "previousOwner",
							"type": "address"
						},
						{
							"indexed": true,
							"internalType": "address",
							"name": "newOwner",
							"type": "address"
						}
					],
					"name": "OwnershipTransferred",
					"type": "event"
				},
				{
					"anonymous": false,
					"inputs": [
						{
							"indexed": true,
							"internalType": "address",
							"name": "from",
							"type": "address"
						},
						{
							"indexed": true,
							"internalType": "address",
							"name": "to",
							"type": "address"
						},
						{
							"indexed": false,
							"internalType": "uint256",
							"name": "value",
							"type": "uint256"
						}
					],
					"name": "Transfer",
					"type": "event"
				},
				{
					"inputs": [
						{
							"internalType": "address",
							"name": "owner",
							"type": "address"
						},
						{
							"internalType": "address",
							"name": "spender",
							"type": "address"
						}
					],
					"name": "allowance",
					"outputs": [
						{
							"internalType": "uint256",
							"name": "",
							"type": "uint256"
						}
					],
					"stateMutability": "view",
					"type": "function"
				},
				{
					"inputs": [
						{
							"internalType": "address",
							"name": "spender",
							"type": "address"
						},
						{
							"internalType": "uint256",
							"name": "amount",
							"type": "uint256"
						}
					],
					"name": "approve",
					"outputs": [
						{
							"internalType": "bool",
							"name": "",
							"type": "bool"
						}
					],
					"stateMutability": "nonpayable",
					"type": "function"
				},
				{
					"inputs": [
						{
							"internalType": "address",
							"name": "account",
							"type": "address"
						}
					],
					"name": "balanceOf",
					"outputs": [
						{
							"internalType": "uint256",
							"name": "",
							"type": "uint256"
						}
					],
					"stateMutability": "view",
					"type": "function"
				},
				{
					"inputs": [
						{
							"internalType": "uint256",
							"name": "amount",
							"type": "uint256"
						}
					],
					"name": "burn",
					"outputs": [],
					"stateMutability": "nonpayable",
					"type": "function"
				},
				{
					"inputs": [
						{
							"internalType": "address",
							"name": "account",
							"type": "address"
						},
						{
							"internalType": "uint256",
							"name": "amount",
							"type": "uint256"
						}
					],
					"name": "burnFrom",
					"outputs": [],
					"stateMutability": "nonpayable",
					"type": "function"
				},
				{
					"inputs": [],
					"name": "decimals",
					"outputs": [
						{
							"internalType": "uint8",
							"name": "",
							"type": "uint8"
						}
					],
					"stateMutability": "view",
					"type": "function"
				},
				{
					"inputs": [
						{
							"internalType": "address",
							"name": "spender",
							"type": "address"
						},
						{
							"internalType": "uint256",
							"name": "subtractedValue",
							"type": "uint256"
						}
					],
					"name": "decreaseAllowance",
					"outputs": [
						{
							"internalType": "bool",
							"name": "",
							"type": "bool"
						}
					],
					"stateMutability": "nonpayable",
					"type": "function"
				},
				{
					"inputs": [],
					"name": "getNominatedUniswapV2LpPairAddress",
					"outputs": [
						{
							"internalType": "address",
							"name": "",
							"type": "address"
						}
					],
					"stateMutability": "view",
					"type": "function"
				},
				{
					"inputs": [
						{
							"internalType": "address",
							"name": "spender",
							"type": "address"
						},
						{
							"internalType": "uint256",
							"name": "addedValue",
							"type": "uint256"
						}
					],
					"name": "increaseAllowance",
					"outputs": [
						{
							"internalType": "bool",
							"name": "",
							"type": "bool"
						}
					],
					"stateMutability": "nonpayable",
					"type": "function"
				},
				{
					"inputs": [],
					"name": "name",
					"outputs": [
						{
							"internalType": "string",
							"name": "",
							"type": "string"
						}
					],
					"stateMutability": "view",
					"type": "function"
				},
				{
					"inputs": [],
					"name": "owner",
					"outputs": [
						{
							"internalType": "address",
							"name": "",
							"type": "address"
						}
					],
					"stateMutability": "view",
					"type": "function"
				},
				{
					"inputs": [],
					"name": "renounceOwnership",
					"outputs": [],
					"stateMutability": "nonpayable",
					"type": "function"
				},
				{
					"inputs": [
						{
							"internalType": "address",
							"name": "_lpPairAddress",
							"type": "address"
						}
					],
					"name": "setNominatedUniswapV2LpPairAddress",
					"outputs": [],
					"stateMutability": "nonpayable",
					"type": "function"
				},
				{
					"inputs": [],
					"name": "symbol",
					"outputs": [
						{
							"internalType": "string",
							"name": "",
							"type": "string"
						}
					],
					"stateMutability": "view",
					"type": "function"
				},
				{
					"inputs": [],
					"name": "totalSupply",
					"outputs": [
						{
							"internalType": "uint256",
							"name": "",
							"type": "uint256"
						}
					],
					"stateMutability": "view",
					"type": "function"
				},
				{
					"inputs": [
						{
							"internalType": "address",
							"name": "to",
							"type": "address"
						},
						{
							"internalType": "uint256",
							"name": "amount",
							"type": "uint256"
						}
					],
					"name": "transfer",
					"outputs": [
						{
							"internalType": "bool",
							"name": "",
							"type": "bool"
						}
					],
					"stateMutability": "nonpayable",
					"type": "function"
				},
				{
					"inputs": [
						{
							"internalType": "address",
							"name": "from",
							"type": "address"
						},
						{
							"internalType": "address",
							"name": "to",
							"type": "address"
						},
						{
							"internalType": "uint256",
							"name": "amount",
							"type": "uint256"
						}
					],
					"name": "transferFrom",
					"outputs": [
						{
							"internalType": "bool",
							"name": "",
							"type": "bool"
						}
					],
					"stateMutability": "nonpayable",
					"type": "function"
				},
				{
					"inputs": [
						{
							"internalType": "address",
							"name": "newOwner",
							"type": "address"
						}
					],
					"name": "transferOwnership",
					"outputs": [],
					"stateMutability": "nonpayable",
					"type": "function"
				}
			],
			"devdoc": {
				"kind": "dev",
				"methods": {
					"allowance(address,address)": {
						"details": "See {IERC20-allowance}."
					},
					"approve(address,uint256)": {
						"details": "See {IERC20-approve}. NOTE: If `amount` is the maximum `uint256`, the allowance is not updated on `transferFrom`. This is semantically equivalent to an infinite approval. Requirements: - `spender` cannot be the zero address."
					},
					"balanceOf(address)": {
						"details": "See {IERC20-balanceOf}."
					},
					"burn(uint256)": {
						"details": "Destroys `amount` tokens from the caller. See {ERC20-_burn}."
					},
					"burnFrom(address,uint256)": {
						"details": "Destroys `amount` tokens from `account`, deducting from the caller's allowance. See {ERC20-_burn} and {ERC20-allowance}. Requirements: - the caller must have allowance for ``accounts``'s tokens of at least `amount`."
					},
					"decimals()": {
						"details": "Returns the number of decimals used to get its user representation. For example, if `decimals` equals `2`, a balance of `505` tokens should be displayed to a user as `5.05` (`505 / 10 ** 2`). Tokens usually opt for a value of 18, imitating the relationship between Ether and Wei. This is the value {ERC20} uses, unless this function is overridden; NOTE: This information is only used for _display_ purposes: it in no way affects any of the arithmetic of the contract, including {IERC20-balanceOf} and {IERC20-transfer}."
					},
					"decreaseAllowance(address,uint256)": {
						"details": "Atomically decreases the allowance granted to `spender` by the caller. This is an alternative to {approve} that can be used as a mitigation for problems described in {IERC20-approve}. Emits an {Approval} event indicating the updated allowance. Requirements: - `spender` cannot be the zero address. - `spender` must have allowance for the caller of at least `subtractedValue`."
					},
					"increaseAllowance(address,uint256)": {
						"details": "Atomically increases the allowance granted to `spender` by the caller. This is an alternative to {approve} that can be used as a mitigation for problems described in {IERC20-approve}. Emits an {Approval} event indicating the updated allowance. Requirements: - `spender` cannot be the zero address."
					},
					"name()": {
						"details": "Returns the name of the token."
					},
					"owner()": {
						"details": "Returns the address of the current owner."
					},
					"renounceOwnership()": {
						"details": "Leaves the contract without owner. It will not be possible to call `onlyOwner` functions anymore. Can only be called by the current owner. NOTE: Renouncing ownership will leave the contract without an owner, thereby removing any functionality that is only available to the owner."
					},
					"symbol()": {
						"details": "Returns the symbol of the token, usually a shorter version of the name."
					},
					"totalSupply()": {
						"details": "See {IERC20-totalSupply}."
					},
					"transfer(address,uint256)": {
						"details": "See {IERC20-transfer}. Requirements: - `to` cannot be the zero address. - the caller must have a balance of at least `amount`."
					},
					"transferFrom(address,address,uint256)": {
						"details": "See {IERC20-transferFrom}. Emits an {Approval} event indicating the updated allowance. This is not required by the EIP. See the note at the beginning of {ERC20}. NOTE: Does not update the allowance if the current allowance is the maximum `uint256`. Requirements: - `from` and `to` cannot be the zero address. - `from` must have a balance of at least `amount`. - the caller must have allowance for ``from``'s tokens of at least `amount`."
					},
					"transferOwnership(address)": {
						"details": "Transfers ownership of the contract to a new account (`newOwner`). Can only be called by the current owner."
					}
				},
				"version": 1
			},
			"evm": {
				"assembly": "    /* \"contracts/joci.sol\":21022:23072  contract JOCIToken is ERC20, ERC20Burnable, Ownable {... */\n  mstore(0x40, 0x80)\n    /* \"contracts/joci.sol\":21184:21194  decimals() */\n  tag_1\n    /* \"contracts/joci.sol\":21184:21192  decimals */\n  shl(0x20, tag_2)\n    /* \"contracts/joci.sol\":21184:21194  decimals() */\n  0x20\n  shr\n  jump\t// in\ntag_1:\n    /* \"contracts/joci.sol\":21176:21195  uint256(decimals()) */\n  0xff\n  and\n    /* \"contracts/joci.sol\":21170:21172  10 */\n  0x0a\n    /* \"contracts/joci.sol\":21170:21195  10 ** uint256(decimals()) */\n  tag_3\n  swap2\n  swap1\n  tag_4\n  jump\t// in\ntag_3:\n    /* \"contracts/joci.sol\":21153:21166  1_000_000_000 */\n  0x3b9aca00\n    /* \"contracts/joci.sol\":21153:21196  1_000_000_000 * (10 ** uint256(decimals())) */\n  tag_5\n  swap2\n  swap1\n  tag_6\n  jump\t// in\ntag_5:\n    /* \"contracts/joci.sol\":21127:21196  uint256 private _maxCap = 1_000_000_000 * (10 ** uint256(decimals())) */\n  0x07\n  sstore\n    /* \"contracts/joci.sol\":21203:21298  constructor() ERC20(\"Jeeters Out Chads In\", \"JOCI\") {... */\n  callvalue\n  dup1\n  iszero\n  tag_7\n  jumpi\n  0x00\n  dup1\n  revert\ntag_7:\n  pop\n    /* \"contracts/joci.sol\":5978:6091  constructor(string memory name_, string memory symbol_) {... */\n  mload(0x40)\n  dup1\n  0x40\n  add\n  0x40\n  mstore\n  dup1\n  0x14\n  dup2\n  mstore\n  0x20\n  add\n  0x4a656574657273204f757420436861647320496e000000000000000000000000\n  dup2\n  mstore\n  pop\n  mload(0x40)\n  dup1\n  0x40\n  add\n  0x40\n  mstore\n  dup1\n  0x04\n  dup2\n  mstore\n  0x20\n  add\n  0x4a4f434900000000000000000000000000000000000000000000000000000000\n  dup2\n  mstore\n  pop\n    /* \"contracts/joci.sol\":6052:6057  name_ */\n  dup2\n    /* \"contracts/joci.sol\":6044:6049  _name */\n  0x03\n    /* \"contracts/joci.sol\":6044:6057  _name = name_ */\n  swap1\n  dup1\n  mload\n  swap1\n  0x20\n  add\n  swap1\n  tag_12\n  swap3\n  swap2\n  swap1\n  tag_13\n  jump\t// in\ntag_12:\n  pop\n    /* \"contracts/joci.sol\":6077:6084  symbol_ */\n  dup1\n    /* \"contracts/joci.sol\":6067:6074  _symbol */\n  0x04\n    /* \"contracts/joci.sol\":6067:6084  _symbol = symbol_ */\n  swap1\n  dup1\n  mload\n  swap1\n  0x20\n  add\n  swap1\n  tag_14\n  swap3\n  swap2\n  swap1\n  tag_13\n  jump\t// in\ntag_14:\n  pop\n    /* \"contracts/joci.sol\":5978:6091  constructor(string memory name_, string memory symbol_) {... */\n  pop\n  pop\n    /* \"contracts/joci.sol\":18882:18914  _transferOwnership(_msgSender()) */\n  tag_16\n    /* \"contracts/joci.sol\":18901:18913  _msgSender() */\n  tag_17\n    /* \"contracts/joci.sol\":18901:18911  _msgSender */\n  shl(0x20, tag_18)\n    /* \"contracts/joci.sol\":18901:18913  _msgSender() */\n  0x20\n  shr\n  jump\t// in\ntag_17:\n    /* \"contracts/joci.sol\":18882:18900  _transferOwnership */\n  shl(0x20, tag_19)\n    /* \"contracts/joci.sol\":18882:18914  _transferOwnership(_msgSender()) */\n  0x20\n  shr\n  jump\t// in\ntag_16:\n    /* \"contracts/joci.sol\":21265:21291  _mint(msg.sender, _maxCap) */\n  tag_21\n    /* \"contracts/joci.sol\":21271:21281  msg.sender */\n  caller\n    /* \"contracts/joci.sol\":21283:21290  _maxCap */\n  sload(0x07)\n    /* \"contracts/joci.sol\":21265:21270  _mint */\n  shl(0x20, tag_22)\n    /* \"contracts/joci.sol\":21265:21291  _mint(msg.sender, _maxCap) */\n  0x20\n  shr\n  jump\t// in\ntag_21:\n    /* \"contracts/joci.sol\":21022:23072  contract JOCIToken is ERC20, ERC20Burnable, Ownable {... */\n  jump(tag_23)\n    /* \"contracts/joci.sol\":7093:7184  function decimals() public view virtual override returns (uint8) {... */\ntag_2:\n    /* \"contracts/joci.sol\":7151:7156  uint8 */\n  0x00\n    /* \"contracts/joci.sol\":7175:7177  18 */\n  0x12\n    /* \"contracts/joci.sol\":7168:7177  return 18 */\n  swap1\n  pop\n    /* \"contracts/joci.sol\":7093:7184  function decimals() public view virtual override returns (uint8) {... */\n  swap1\n  jump\t// out\n    /* \"contracts/joci.sol\":3954:4050  function _msgSender() internal view virtual returns (address) {... */\ntag_18:\n    /* \"contracts/joci.sol\":4007:4014  address */\n  0x00\n    /* \"contracts/joci.sol\":4033:4043  msg.sender */\n  caller\n    /* \"contracts/joci.sol\":4026:4043  return msg.sender */\n  swap1\n  pop\n    /* \"contracts/joci.sol\":3954:4050  function _msgSender() internal view virtual returns (address) {... */\n  swap1\n  jump\t// out\n    /* \"contracts/joci.sol\":20379:20566  function _transferOwnership(address newOwner) internal virtual {... */\ntag_19:\n    /* \"contracts/joci.sol\":20452:20468  address oldOwner */\n  0x00\n    /* \"contracts/joci.sol\":20471:20477  _owner */\n  0x05\n  0x00\n  swap1\n  sload\n  swap1\n  0x0100\n  exp\n  swap1\n  div\n  0xffffffffffffffffffffffffffffffffffffffff\n  and\n    /* \"contracts/joci.sol\":20452:20477  address oldOwner = _owner */\n  swap1\n  pop\n    /* \"contracts/joci.sol\":20496:20504  newOwner */\n  dup2\n    /* \"contracts/joci.sol\":20487:20493  _owner */\n  0x05\n  0x00\n    /* \"contracts/joci.sol\":20487:20504  _owner = newOwner */\n  0x0100\n  exp\n  dup2\n  sload\n  dup2\n  0xffffffffffffffffffffffffffffffffffffffff\n  mul\n  not\n  and\n  swap1\n  dup4\n  0xffffffffffffffffffffffffffffffffffffffff\n  and\n  mul\n  or\n  swap1\n  sstore\n  pop\n    /* \"contracts/joci.sol\":20550:20558  newOwner */\n  dup2\n    /* \"contracts/joci.sol\":20519:20559  OwnershipTransferred(oldOwner, newOwner) */\n  0xffffffffffffffffffffffffffffffffffffffff\n  and\n    /* \"contracts/joci.sol\":20540:20548  oldOwner */\n  dup2\n    /* \"contracts/joci.sol\":20519:20559  OwnershipTransferred(oldOwner, newOwner) */\n  0xffffffffffffffffffffffffffffffffffffffff\n  and\n  0x8be0079c531659141344cd1fd0a4f28419497f9722a3daafe3b4186f6b6457e0\n  mload(0x40)\n  mload(0x40)\n  dup1\n  swap2\n  sub\n  swap1\n  log3\n    /* \"contracts/joci.sol\":20442:20566  {... */\n  pop\n    /* \"contracts/joci.sol\":20379:20566  function _transferOwnership(address newOwner) internal virtual {... */\n  pop\n  jump\t// out\n    /* \"contracts/joci.sol\":12569:13104  function _mint(address account, uint256 amount) internal virtual {... */\ntag_22:\n    /* \"contracts/joci.sol\":12671:12672  0 */\n  0x00\n    /* \"contracts/joci.sol\":12652:12673  account != address(0) */\n  0xffffffffffffffffffffffffffffffffffffffff\n  and\n    /* \"contracts/joci.sol\":12652:12659  account */\n  dup3\n    /* \"contracts/joci.sol\":12652:12673  account != address(0) */\n  0xffffffffffffffffffffffffffffffffffffffff\n  and\n  eq\n  iszero\n    /* \"contracts/joci.sol\":12644:12709  require(account != address(0), \"ERC20: mint to the zero address\") */\n  tag_28\n  jumpi\n  mload(0x40)\n  0x08c379a000000000000000000000000000000000000000000000000000000000\n  dup2\n  mstore\n  0x04\n  add\n  tag_29\n  swap1\n  tag_30\n  jump\t// in\ntag_29:\n  mload(0x40)\n  dup1\n  swap2\n  sub\n  swap1\n  revert\ntag_28:\n    /* \"contracts/joci.sol\":12720:12769  _beforeTokenTransfer(address(0), account, amount) */\n  tag_31\n    /* \"contracts/joci.sol\":12749:12750  0 */\n  0x00\n    /* \"contracts/joci.sol\":12753:12760  account */\n  dup4\n    /* \"contracts/joci.sol\":12762:12768  amount */\n  dup4\n    /* \"contracts/joci.sol\":12720:12740  _beforeTokenTransfer */\n  shl(0x20, tag_32)\n    /* \"contracts/joci.sol\":12720:12769  _beforeTokenTransfer(address(0), account, amount) */\n  0x20\n  shr\n  jump\t// in\ntag_31:\n    /* \"contracts/joci.sol\":12796:12802  amount */\n  dup1\n    /* \"contracts/joci.sol\":12780:12792  _totalSupply */\n  0x02\n  0x00\n    /* \"contracts/joci.sol\":12780:12802  _totalSupply += amount */\n  dup3\n  dup3\n  sload\n  tag_33\n  swap2\n  swap1\n  tag_34\n  jump\t// in\ntag_33:\n  swap3\n  pop\n  pop\n  dup2\n  swap1\n  sstore\n  pop\n    /* \"contracts/joci.sol\":12970:12976  amount */\n  dup1\n    /* \"contracts/joci.sol\":12948:12957  _balances */\n  0x00\n    /* \"contracts/joci.sol\":12948:12966  _balances[account] */\n  dup1\n    /* \"contracts/joci.sol\":12958:12965  account */\n  dup5\n    /* \"contracts/joci.sol\":12948:12966  _balances[account] */\n  0xffffffffffffffffffffffffffffffffffffffff\n  and\n  0xffffffffffffffffffffffffffffffffffffffff\n  and\n  dup2\n  mstore\n  0x20\n  add\n  swap1\n  dup2\n  mstore\n  0x20\n  add\n  0x00\n  keccak256\n  0x00\n    /* \"contracts/joci.sol\":12948:12976  _balances[account] += amount */\n  dup3\n  dup3\n  sload\n  add\n  swap3\n  pop\n  pop\n  dup2\n  swap1\n  sstore\n  pop\n    /* \"contracts/joci.sol\":13022:13029  account */\n  dup2\n    /* \"contracts/joci.sol\":13001:13038  Transfer(address(0), account, amount) */\n  0xffffffffffffffffffffffffffffffffffffffff\n  and\n    /* \"contracts/joci.sol\":13018:13019  0 */\n  0x00\n    /* \"contracts/joci.sol\":13001:13038  Transfer(address(0), account, amount) */\n  0xffffffffffffffffffffffffffffffffffffffff\n  and\n  0xddf252ad1be2c89b69c2b068fc378daa952ba7f163c4a11628f55a4df523b3ef\n    /* \"contracts/joci.sol\":13031:13037  amount */\n  dup4\n    /* \"contracts/joci.sol\":13001:13038  Transfer(address(0), account, amount) */\n  mload(0x40)\n  tag_35\n  swap2\n  swap1\n  tag_36\n  jump\t// in\ntag_35:\n  mload(0x40)\n  dup1\n  swap2\n  sub\n  swap1\n  log3\n    /* \"contracts/joci.sol\":13049:13097  _afterTokenTransfer(address(0), account, amount) */\n  tag_37\n    /* \"contracts/joci.sol\":13077:13078  0 */\n  0x00\n    /* \"contracts/joci.sol\":13081:13088  account */\n  dup4\n    /* \"contracts/joci.sol\":13090:13096  amount */\n  dup4\n    /* \"contracts/joci.sol\":13049:13068  _afterTokenTransfer */\n  shl(0x20, tag_38)\n    /* \"contracts/joci.sol\":13049:13097  _afterTokenTransfer(address(0), account, amount) */\n  0x20\n  shr\n  jump\t// in\ntag_37:\n    /* \"contracts/joci.sol\":12569:13104  function _mint(address account, uint256 amount) internal virtual {... */\n  pop\n  pop\n  jump\t// out\n    /* \"contracts/joci.sol\":16182:16303  function _beforeTokenTransfer(... */\ntag_32:\n  pop\n  pop\n  pop\n  jump\t// out\n    /* \"contracts/joci.sol\":16891:17011  function _afterTokenTransfer(... */\ntag_38:\n  pop\n  pop\n  pop\n  jump\t// out\n    /* \"contracts/joci.sol\":21022:23072  contract JOCIToken is ERC20, ERC20Burnable, Ownable {... */\ntag_13:\n  dup3\n  dup1\n  sload\n  tag_41\n  swap1\n  tag_42\n  jump\t// in\ntag_41:\n  swap1\n  0x00\n  mstore\n  keccak256(0x00, 0x20)\n  swap1\n  0x1f\n  add\n  0x20\n  swap1\n  div\n  dup2\n  add\n  swap3\n  dup3\n  tag_44\n  jumpi\n  0x00\n  dup6\n  sstore\n  jump(tag_43)\ntag_44:\n  dup3\n  0x1f\n  lt\n  tag_45\n  jumpi\n  dup1\n  mload\n  not(0xff)\n  and\n  dup4\n  dup1\n  add\n  or\n  dup6\n  sstore\n  jump(tag_43)\ntag_45:\n  dup3\n  dup1\n  add\n  0x01\n  add\n  dup6\n  sstore\n  dup3\n  iszero\n  tag_43\n  jumpi\n  swap2\n  dup3\n  add\ntag_46:\n  dup3\n  dup2\n  gt\n  iszero\n  tag_47\n  jumpi\n  dup3\n  mload\n  dup3\n  sstore\n  swap2\n  0x20\n  add\n  swap2\n  swap1\n  0x01\n  add\n  swap1\n  jump(tag_46)\ntag_47:\ntag_43:\n  pop\n  swap1\n  pop\n  tag_48\n  swap2\n  swap1\n  tag_49\n  jump\t// in\ntag_48:\n  pop\n  swap1\n  jump\t// out\ntag_49:\ntag_50:\n  dup1\n  dup3\n  gt\n  iszero\n  tag_51\n  jumpi\n  0x00\n  dup2\n  0x00\n  swap1\n  sstore\n  pop\n  0x01\n  add\n  jump(tag_50)\ntag_51:\n  pop\n  swap1\n  jump\t// out\n    /* \"#utility.yul\":7:187   */\ntag_52:\n    /* \"#utility.yul\":55:132   */\n  0x4e487b7100000000000000000000000000000000000000000000000000000000\n    /* \"#utility.yul\":52:53   */\n  0x00\n    /* \"#utility.yul\":45:133   */\n  mstore\n    /* \"#utility.yul\":152:156   */\n  0x11\n    /* \"#utility.yul\":149:150   */\n  0x04\n    /* \"#utility.yul\":142:157   */\n  mstore\n    /* \"#utility.yul\":176:180   */\n  0x24\n    /* \"#utility.yul\":173:174   */\n  0x00\n    /* \"#utility.yul\":166:181   */\n  revert\n    /* \"#utility.yul\":193:295   */\ntag_53:\n    /* \"#utility.yul\":235:243   */\n  0x00\n    /* \"#utility.yul\":282:287   */\n  dup2\n    /* \"#utility.yul\":279:280   */\n  0x01\n    /* \"#utility.yul\":275:288   */\n  shr\n    /* \"#utility.yul\":254:288   */\n  swap1\n  pop\n    /* \"#utility.yul\":193:295   */\n  swap2\n  swap1\n  pop\n  jump\t// out\n    /* \"#utility.yul\":301:1149   */\ntag_54:\n    /* \"#utility.yul\":362:367   */\n  0x00\n    /* \"#utility.yul\":369:373   */\n  dup1\n    /* \"#utility.yul\":393:399   */\n  dup3\n    /* \"#utility.yul\":384:399   */\n  swap2\n  pop\n    /* \"#utility.yul\":417:422   */\n  dup4\n    /* \"#utility.yul\":408:422   */\n  swap1\n  pop\n    /* \"#utility.yul\":431:1143   */\ntag_66:\n    /* \"#utility.yul\":452:453   */\n  0x01\n    /* \"#utility.yul\":442:450   */\n  dup6\n    /* \"#utility.yul\":439:454   */\n  gt\n    /* \"#utility.yul\":431:1143   */\n  iszero\n  tag_68\n  jumpi\n    /* \"#utility.yul\":547:551   */\n  dup1\n    /* \"#utility.yul\":542:545   */\n  dup7\n    /* \"#utility.yul\":538:552   */\n  div\n    /* \"#utility.yul\":532:536   */\n  dup2\n    /* \"#utility.yul\":529:553   */\n  gt\n    /* \"#utility.yul\":526:576   */\n  iszero\n  tag_69\n  jumpi\n    /* \"#utility.yul\":556:574   */\n  tag_70\n  tag_52\n  jump\t// in\ntag_70:\n    /* \"#utility.yul\":526:576   */\ntag_69:\n    /* \"#utility.yul\":606:607   */\n  0x01\n    /* \"#utility.yul\":596:604   */\n  dup6\n    /* \"#utility.yul\":592:608   */\n  and\n    /* \"#utility.yul\":589:1040   */\n  iszero\n  tag_71\n  jumpi\n    /* \"#utility.yul\":1021:1025   */\n  dup1\n    /* \"#utility.yul\":1014:1019   */\n  dup3\n    /* \"#utility.yul\":1010:1026   */\n  mul\n    /* \"#utility.yul\":1001:1026   */\n  swap2\n  pop\n    /* \"#utility.yul\":589:1040   */\ntag_71:\n    /* \"#utility.yul\":1071:1075   */\n  dup1\n    /* \"#utility.yul\":1065:1069   */\n  dup2\n    /* \"#utility.yul\":1061:1076   */\n  mul\n    /* \"#utility.yul\":1053:1076   */\n  swap1\n  pop\n    /* \"#utility.yul\":1101:1133   */\n  tag_72\n    /* \"#utility.yul\":1124:1132   */\n  dup6\n    /* \"#utility.yul\":1101:1133   */\n  tag_53\n  jump\t// in\ntag_72:\n    /* \"#utility.yul\":1089:1133   */\n  swap5\n  pop\n    /* \"#utility.yul\":431:1143   */\n  jump(tag_66)\ntag_68:\n    /* \"#utility.yul\":301:1149   */\n  swap5\n  pop\n  swap5\n  swap3\n  pop\n  pop\n  pop\n  jump\t// out\n    /* \"#utility.yul\":1155:2228   */\ntag_55:\n    /* \"#utility.yul\":1209:1214   */\n  0x00\n    /* \"#utility.yul\":1400:1408   */\n  dup3\n    /* \"#utility.yul\":1390:1430   */\n  tag_74\n  jumpi\n    /* \"#utility.yul\":1421:1422   */\n  0x01\n    /* \"#utility.yul\":1412:1422   */\n  swap1\n  pop\n    /* \"#utility.yul\":1423:1428   */\n  jump(tag_73)\n    /* \"#utility.yul\":1390:1430   */\ntag_74:\n    /* \"#utility.yul\":1449:1453   */\n  dup2\n    /* \"#utility.yul\":1439:1475   */\n  tag_75\n  jumpi\n    /* \"#utility.yul\":1466:1467   */\n  0x00\n    /* \"#utility.yul\":1457:1467   */\n  swap1\n  pop\n    /* \"#utility.yul\":1468:1473   */\n  jump(tag_73)\n    /* \"#utility.yul\":1439:1475   */\ntag_75:\n    /* \"#utility.yul\":1535:1539   */\n  dup2\n    /* \"#utility.yul\":1583:1584   */\n  0x01\n    /* \"#utility.yul\":1578:1605   */\n  dup2\n  eq\n  tag_77\n  jumpi\n    /* \"#utility.yul\":1619:1620   */\n  0x02\n    /* \"#utility.yul\":1614:1805   */\n  dup2\n  eq\n  tag_78\n  jumpi\n    /* \"#utility.yul\":1528:1805   */\n  jump(tag_76)\n    /* \"#utility.yul\":1578:1605   */\ntag_77:\n    /* \"#utility.yul\":1596:1597   */\n  0x01\n    /* \"#utility.yul\":1587:1597   */\n  swap2\n  pop\n    /* \"#utility.yul\":1598:1603   */\n  pop\n  jump(tag_73)\n    /* \"#utility.yul\":1614:1805   */\ntag_78:\n    /* \"#utility.yul\":1659:1662   */\n  0xff\n    /* \"#utility.yul\":1649:1657   */\n  dup5\n    /* \"#utility.yul\":1646:1663   */\n  gt\n    /* \"#utility.yul\":1643:1686   */\n  iszero\n  tag_79\n  jumpi\n    /* \"#utility.yul\":1666:1684   */\n  tag_80\n  tag_52\n  jump\t// in\ntag_80:\n    /* \"#utility.yul\":1643:1686   */\ntag_79:\n    /* \"#utility.yul\":1715:1723   */\n  dup4\n    /* \"#utility.yul\":1712:1713   */\n  0x02\n    /* \"#utility.yul\":1708:1724   */\n  exp\n    /* \"#utility.yul\":1699:1724   */\n  swap2\n  pop\n    /* \"#utility.yul\":1750:1753   */\n  dup5\n    /* \"#utility.yul\":1743:1748   */\n  dup3\n    /* \"#utility.yul\":1740:1754   */\n  gt\n    /* \"#utility.yul\":1737:1777   */\n  iszero\n  tag_81\n  jumpi\n    /* \"#utility.yul\":1757:1775   */\n  tag_82\n  tag_52\n  jump\t// in\ntag_82:\n    /* \"#utility.yul\":1737:1777   */\ntag_81:\n    /* \"#utility.yul\":1790:1795   */\n  pop\n  jump(tag_73)\n    /* \"#utility.yul\":1528:1805   */\ntag_76:\n  pop\n    /* \"#utility.yul\":1914:1916   */\n  0x20\n    /* \"#utility.yul\":1904:1912   */\n  dup4\n    /* \"#utility.yul\":1901:1917   */\n  lt\n    /* \"#utility.yul\":1895:1898   */\n  0x0133\n    /* \"#utility.yul\":1889:1893   */\n  dup4\n    /* \"#utility.yul\":1886:1899   */\n  lt\n    /* \"#utility.yul\":1882:1918   */\n  and\n    /* \"#utility.yul\":1864:1866   */\n  0x4e\n    /* \"#utility.yul\":1854:1862   */\n  dup5\n    /* \"#utility.yul\":1851:1867   */\n  lt\n    /* \"#utility.yul\":1846:1848   */\n  0x0b\n    /* \"#utility.yul\":1840:1844   */\n  dup5\n    /* \"#utility.yul\":1837:1849   */\n  lt\n    /* \"#utility.yul\":1833:1868   */\n  and\n    /* \"#utility.yul\":1817:1928   */\n  or\n    /* \"#utility.yul\":1814:2060   */\n  iszero\n  tag_83\n  jumpi\n    /* \"#utility.yul\":1970:1978   */\n  dup3\n    /* \"#utility.yul\":1964:1968   */\n  dup3\n    /* \"#utility.yul\":1960:1979   */\n  exp\n    /* \"#utility.yul\":1951:1979   */\n  swap1\n  pop\n    /* \"#utility.yul\":2005:2008   */\n  dup4\n    /* \"#utility.yul\":1998:2003   */\n  dup2\n    /* \"#utility.yul\":1995:2009   */\n  gt\n    /* \"#utility.yul\":1992:2032   */\n  iszero\n  tag_84\n  jumpi\n    /* \"#utility.yul\":2012:2030   */\n  tag_85\n  tag_52\n  jump\t// in\ntag_85:\n    /* \"#utility.yul\":1992:2032   */\ntag_84:\n    /* \"#utility.yul\":2045:2050   */\n  jump(tag_73)\n    /* \"#utility.yul\":1814:2060   */\ntag_83:\n    /* \"#utility.yul\":2085:2127   */\n  tag_86\n    /* \"#utility.yul\":2123:2126   */\n  dup5\n    /* \"#utility.yul\":2113:2121   */\n  dup5\n    /* \"#utility.yul\":2107:2111   */\n  dup5\n    /* \"#utility.yul\":2104:2105   */\n  0x01\n    /* \"#utility.yul\":2085:2127   */\n  tag_54\n  jump\t// in\ntag_86:\n    /* \"#utility.yul\":2070:2127   */\n  swap3\n  pop\n  swap1\n  pop\n    /* \"#utility.yul\":2159:2163   */\n  dup2\n    /* \"#utility.yul\":2154:2157   */\n  dup5\n    /* \"#utility.yul\":2150:2164   */\n  div\n    /* \"#utility.yul\":2143:2148   */\n  dup2\n    /* \"#utility.yul\":2140:2165   */\n  gt\n    /* \"#utility.yul\":2137:2188   */\n  iszero\n  tag_87\n  jumpi\n    /* \"#utility.yul\":2168:2186   */\n  tag_88\n  tag_52\n  jump\t// in\ntag_88:\n    /* \"#utility.yul\":2137:2188   */\ntag_87:\n    /* \"#utility.yul\":2217:2221   */\n  dup2\n    /* \"#utility.yul\":2210:2215   */\n  dup2\n    /* \"#utility.yul\":2206:2222   */\n  mul\n    /* \"#utility.yul\":2197:2222   */\n  swap1\n  pop\n    /* \"#utility.yul\":1155:2228   */\ntag_73:\n  swap4\n  swap3\n  pop\n  pop\n  pop\n  jump\t// out\n    /* \"#utility.yul\":2234:2311   */\ntag_56:\n    /* \"#utility.yul\":2271:2278   */\n  0x00\n    /* \"#utility.yul\":2300:2305   */\n  dup2\n    /* \"#utility.yul\":2289:2305   */\n  swap1\n  pop\n    /* \"#utility.yul\":2234:2311   */\n  swap2\n  swap1\n  pop\n  jump\t// out\n    /* \"#utility.yul\":2317:2602   */\ntag_4:\n    /* \"#utility.yul\":2377:2382   */\n  0x00\n    /* \"#utility.yul\":2401:2424   */\n  tag_91\n    /* \"#utility.yul\":2419:2423   */\n  dup3\n    /* \"#utility.yul\":2401:2424   */\n  tag_56\n  jump\t// in\ntag_91:\n    /* \"#utility.yul\":2393:2424   */\n  swap2\n  pop\n    /* \"#utility.yul\":2445:2472   */\n  tag_92\n    /* \"#utility.yul\":2463:2471   */\n  dup4\n    /* \"#utility.yul\":2445:2472   */\n  tag_56\n  jump\t// in\ntag_92:\n    /* \"#utility.yul\":2433:2472   */\n  swap3\n  pop\n    /* \"#utility.yul\":2491:2595   */\n  tag_93\n    /* \"#utility.yul\":2528:2594   */\n  0xffffffffffffffffffffffffffffffffffffffffffffffffffffffffffffffff\n    /* \"#utility.yul\":2518:2526   */\n  dup5\n    /* \"#utility.yul\":2512:2516   */\n  dup5\n    /* \"#utility.yul\":2491:2595   */\n  tag_55\n  jump\t// in\ntag_93:\n    /* \"#utility.yul\":2482:2595   */\n  swap1\n  pop\n    /* \"#utility.yul\":2317:2602   */\n  swap3\n  swap2\n  pop\n  pop\n  jump\t// out\n    /* \"#utility.yul\":2608:2956   */\ntag_6:\n    /* \"#utility.yul\":2648:2655   */\n  0x00\n    /* \"#utility.yul\":2671:2691   */\n  tag_95\n    /* \"#utility.yul\":2689:2690   */\n  dup3\n    /* \"#utility.yul\":2671:2691   */\n  tag_56\n  jump\t// in\ntag_95:\n    /* \"#utility.yul\":2666:2691   */\n  swap2\n  pop\n    /* \"#utility.yul\":2705:2725   */\n  tag_96\n    /* \"#utility.yul\":2723:2724   */\n  dup4\n    /* \"#utility.yul\":2705:2725   */\n  tag_56\n  jump\t// in\ntag_96:\n    /* \"#utility.yul\":2700:2725   */\n  swap3\n  pop\n    /* \"#utility.yul\":2893:2894   */\n  dup2\n    /* \"#utility.yul\":2825:2891   */\n  0xffffffffffffffffffffffffffffffffffffffffffffffffffffffffffffffff\n    /* \"#utility.yul\":2821:2895   */\n  div\n    /* \"#utility.yul\":2818:2819   */\n  dup4\n    /* \"#utility.yul\":2815:2896   */\n  gt\n    /* \"#utility.yul\":2810:2811   */\n  dup3\n    /* \"#utility.yul\":2803:2812   */\n  iszero\n    /* \"#utility.yul\":2796:2813   */\n  iszero\n    /* \"#utility.yul\":2792:2897   */\n  and\n    /* \"#utility.yul\":2789:2920   */\n  iszero\n  tag_97\n  jumpi\n    /* \"#utility.yul\":2900:2918   */\n  tag_98\n  tag_52\n  jump\t// in\ntag_98:\n    /* \"#utility.yul\":2789:2920   */\ntag_97:\n    /* \"#utility.yul\":2948:2949   */\n  dup3\n    /* \"#utility.yul\":2945:2946   */\n  dup3\n    /* \"#utility.yul\":2941:2950   */\n  mul\n    /* \"#utility.yul\":2930:2950   */\n  swap1\n  pop\n    /* \"#utility.yul\":2608:2956   */\n  swap3\n  swap2\n  pop\n  pop\n  jump\t// out\n    /* \"#utility.yul\":2962:3131   */\ntag_57:\n    /* \"#utility.yul\":3046:3057   */\n  0x00\n    /* \"#utility.yul\":3080:3086   */\n  dup3\n    /* \"#utility.yul\":3075:3078   */\n  dup3\n    /* \"#utility.yul\":3068:3087   */\n  mstore\n    /* \"#utility.yul\":3120:3124   */\n  0x20\n    /* \"#utility.yul\":3115:3118   */\n  dup3\n    /* \"#utility.yul\":3111:3125   */\n  add\n    /* \"#utility.yul\":3096:3125   */\n  swap1\n  pop\n    /* \"#utility.yul\":2962:3131   */\n  swap3\n  swap2\n  pop\n  pop\n  jump\t// out\n    /* \"#utility.yul\":3137:3318   */\ntag_58:\n    /* \"#utility.yul\":3277:3310   */\n  0x45524332303a206d696e7420746f20746865207a65726f206164647265737300\n    /* \"#utility.yul\":3273:3274   */\n  0x00\n    /* \"#utility.yul\":3265:3271   */\n  dup3\n    /* \"#utility.yul\":3261:3275   */\n  add\n    /* \"#utility.yul\":3254:3311   */\n  mstore\n    /* \"#utility.yul\":3137:3318   */\n  pop\n  jump\t// out\n    /* \"#utility.yul\":3324:3690   */\ntag_59:\n    /* \"#utility.yul\":3466:3469   */\n  0x00\n    /* \"#utility.yul\":3487:3554   */\n  tag_102\n    /* \"#utility.yul\":3551:3553   */\n  0x1f\n    /* \"#utility.yul\":3546:3549   */\n  dup4\n    /* \"#utility.yul\":3487:3554   */\n  tag_57\n  jump\t// in\ntag_102:\n    /* \"#utility.yul\":3480:3554   */\n  swap2\n  pop\n    /* \"#utility.yul\":3563:3656   */\n  tag_103\n    /* \"#utility.yul\":3652:3655   */\n  dup3\n    /* \"#utility.yul\":3563:3656   */\n  tag_58\n  jump\t// in\ntag_103:\n    /* \"#utility.yul\":3681:3683   */\n  0x20\n    /* \"#utility.yul\":3676:3679   */\n  dup3\n    /* \"#utility.yul\":3672:3684   */\n  add\n    /* \"#utility.yul\":3665:3684   */\n  swap1\n  pop\n    /* \"#utility.yul\":3324:3690   */\n  swap2\n  swap1\n  pop\n  jump\t// out\n    /* \"#utility.yul\":3696:4115   */\ntag_30:\n    /* \"#utility.yul\":3862:3866   */\n  0x00\n    /* \"#utility.yul\":3900:3902   */\n  0x20\n    /* \"#utility.yul\":3889:3898   */\n  dup3\n    /* \"#utility.yul\":3885:3903   */\n  add\n    /* \"#utility.yul\":3877:3903   */\n  swap1\n  pop\n    /* \"#utility.yul\":3949:3958   */\n  dup2\n    /* \"#utility.yul\":3943:3947   */\n  dup2\n    /* \"#utility.yul\":3939:3959   */\n  sub\n    /* \"#utility.yul\":3935:3936   */\n  0x00\n    /* \"#utility.yul\":3924:3933   */\n  dup4\n    /* \"#utility.yul\":3920:3937   */\n  add\n    /* \"#utility.yul\":3913:3960   */\n  mstore\n    /* \"#utility.yul\":3977:4108   */\n  tag_105\n    /* \"#utility.yul\":4103:4107   */\n  dup2\n    /* \"#utility.yul\":3977:4108   */\n  tag_59\n  jump\t// in\ntag_105:\n    /* \"#utility.yul\":3969:4108   */\n  swap1\n  pop\n    /* \"#utility.yul\":3696:4115   */\n  swap2\n  swap1\n  pop\n  jump\t// out\n    /* \"#utility.yul\":4121:4426   */\ntag_34:\n    /* \"#utility.yul\":4161:4164   */\n  0x00\n    /* \"#utility.yul\":4180:4200   */\n  tag_107\n    /* \"#utility.yul\":4198:4199   */\n  dup3\n    /* \"#utility.yul\":4180:4200   */\n  tag_56\n  jump\t// in\ntag_107:\n    /* \"#utility.yul\":4175:4200   */\n  swap2\n  pop\n    /* \"#utility.yul\":4214:4234   */\n  tag_108\n    /* \"#utility.yul\":4232:4233   */\n  dup4\n    /* \"#utility.yul\":4214:4234   */\n  tag_56\n  jump\t// in\ntag_108:\n    /* \"#utility.yul\":4209:4234   */\n  swap3\n  pop\n    /* \"#utility.yul\":4368:4369   */\n  dup3\n    /* \"#utility.yul\":4300:4366   */\n  0xffffffffffffffffffffffffffffffffffffffffffffffffffffffffffffffff\n    /* \"#utility.yul\":4296:4370   */\n  sub\n    /* \"#utility.yul\":4293:4294   */\n  dup3\n    /* \"#utility.yul\":4290:4371   */\n  gt\n    /* \"#utility.yul\":4287:4394   */\n  iszero\n  tag_109\n  jumpi\n    /* \"#utility.yul\":4374:4392   */\n  tag_110\n  tag_52\n  jump\t// in\ntag_110:\n    /* \"#utility.yul\":4287:4394   */\ntag_109:\n    /* \"#utility.yul\":4418:4419   */\n  dup3\n    /* \"#utility.yul\":4415:4416   */\n  dup3\n    /* \"#utility.yul\":4411:4420   */\n  add\n    /* \"#utility.yul\":4404:4420   */\n  swap1\n  pop\n    /* \"#utility.yul\":4121:4426   */\n  swap3\n  swap2\n  pop\n  pop\n  jump\t// out\n    /* \"#utility.yul\":4432:4550   */\ntag_60:\n    /* \"#utility.yul\":4519:4543   */\n  tag_112\n    /* \"#utility.yul\":4537:4542   */\n  dup2\n    /* \"#utility.yul\":4519:4543   */\n  tag_56\n  jump\t// in\ntag_112:\n    /* \"#utility.yul\":4514:4517   */\n  dup3\n    /* \"#utility.yul\":4507:4544   */\n  mstore\n    /* \"#utility.yul\":4432:4550   */\n  pop\n  pop\n  jump\t// out\n    /* \"#utility.yul\":4556:4778   */\ntag_36:\n    /* \"#utility.yul\":4649:4653   */\n  0x00\n    /* \"#utility.yul\":4687:4689   */\n  0x20\n    /* \"#utility.yul\":4676:4685   */\n  dup3\n    /* \"#utility.yul\":4672:4690   */\n  add\n    /* \"#utility.yul\":4664:4690   */\n  swap1\n  pop\n    /* \"#utility.yul\":4700:4771   */\n  tag_114\n    /* \"#utility.yul\":4768:4769   */\n  0x00\n    /* \"#utility.yul\":4757:4766   */\n  dup4\n    /* \"#utility.yul\":4753:4770   */\n  add\n    /* \"#utility.yul\":4744:4750   */\n  dup5\n    /* \"#utility.yul\":4700:4771   */\n  tag_60\n  jump\t// in\ntag_114:\n    /* \"#utility.yul\":4556:4778   */\n  swap3\n  swap2\n  pop\n  pop\n  jump\t// out\n    /* \"#utility.yul\":4784:4964   */\ntag_61:\n    /* \"#utility.yul\":4832:4909   */\n  0x4e487b7100000000000000000000000000000000000000000000000000000000\n    /* \"#utility.yul\":4829:4830   */\n  0x00\n    /* \"#utility.yul\":4822:4910   */\n  mstore\n    /* \"#utility.yul\":4929:4933   */\n  0x22\n    /* \"#utility.yul\":4926:4927   */\n  0x04\n    /* \"#utility.yul\":4919:4934   */\n  mstore\n    /* \"#utility.yul\":4953:4957   */\n  0x24\n    /* \"#utility.yul\":4950:4951   */\n  0x00\n    /* \"#utility.yul\":4943:4958   */\n  revert\n    /* \"#utility.yul\":4970:5290   */\ntag_42:\n    /* \"#utility.yul\":5014:5020   */\n  0x00\n    /* \"#utility.yul\":5051:5052   */\n  0x02\n    /* \"#utility.yul\":5045:5049   */\n  dup3\n    /* \"#utility.yul\":5041:5053   */\n  div\n    /* \"#utility.yul\":5031:5053   */\n  swap1\n  pop\n    /* \"#utility.yul\":5098:5099   */\n  0x01\n    /* \"#utility.yul\":5092:5096   */\n  dup3\n    /* \"#utility.yul\":5088:5100   */\n  and\n    /* \"#utility.yul\":5119:5137   */\n  dup1\n    /* \"#utility.yul\":5109:5190   */\n  tag_117\n  jumpi\n    /* \"#utility.yul\":5175:5179   */\n  0x7f\n    /* \"#utility.yul\":5167:5173   */\n  dup3\n    /* \"#utility.yul\":5163:5180   */\n  and\n    /* \"#utility.yul\":5153:5180   */\n  swap2\n  pop\n    /* \"#utility.yul\":5109:5190   */\ntag_117:\n    /* \"#utility.yul\":5237:5239   */\n  0x20\n    /* \"#utility.yul\":5229:5235   */\n  dup3\n    /* \"#utility.yul\":5226:5240   */\n  lt\n    /* \"#utility.yul\":5206:5224   */\n  dup2\n    /* \"#utility.yul\":5203:5241   */\n  eq\n    /* \"#utility.yul\":5200:5284   */\n  iszero\n  tag_118\n  jumpi\n    /* \"#utility.yul\":5256:5274   */\n  tag_119\n  tag_61\n  jump\t// in\ntag_119:\n    /* \"#utility.yul\":5200:5284   */\ntag_118:\n    /* \"#utility.yul\":5021:5290   */\n  pop\n    /* \"#utility.yul\":4970:5290   */\n  swap2\n  swap1\n  pop\n  jump\t// out\n    /* \"contracts/joci.sol\":21022:23072  contract JOCIToken is ERC20, ERC20Burnable, Ownable {... */\ntag_23:\n  dataSize(sub_0)\n  dup1\n  dataOffset(sub_0)\n  0x00\n  codecopy\n  0x00\n  return\nstop\n\nsub_0: assembly {\n        /* \"contracts/joci.sol\":21022:23072  contract JOCIToken is ERC20, ERC20Burnable, Ownable {... */\n      mstore(0x40, 0x80)\n      callvalue\n      dup1\n      iszero\n      tag_1\n      jumpi\n      0x00\n      dup1\n      revert\n    tag_1:\n      pop\n      jumpi(tag_2, lt(calldatasize, 0x04))\n      shr(0xe0, calldataload(0x00))\n      dup1\n      0x715018a6\n      gt\n      tag_21\n      jumpi\n      dup1\n      0xa457c2d7\n      gt\n      tag_22\n      jumpi\n      dup1\n      0xa457c2d7\n      eq\n      tag_16\n      jumpi\n      dup1\n      0xa9059cbb\n      eq\n      tag_17\n      jumpi\n      dup1\n      0xdd62ed3e\n      eq\n      tag_18\n      jumpi\n      dup1\n      0xf2fde38b\n      eq\n      tag_19\n      jumpi\n      dup1\n      0xfb293ba0\n      eq\n      tag_20\n      jumpi\n      jump(tag_2)\n    tag_22:\n      dup1\n      0x715018a6\n      eq\n      tag_12\n      jumpi\n      dup1\n      0x79cc6790\n      eq\n      tag_13\n      jumpi\n      dup1\n      0x8da5cb5b\n      eq\n      tag_14\n      jumpi\n      dup1\n      0x95d89b41\n      eq\n      tag_15\n      jumpi\n      jump(tag_2)\n    tag_21:\n      dup1\n      0x313ce567\n      gt\n      tag_23\n      jumpi\n      dup1\n      0x313ce567\n      eq\n      tag_7\n      jumpi\n      dup1\n      0x39509351\n      eq\n      tag_8\n      jumpi\n      dup1\n      0x3cc3c221\n      eq\n      tag_9\n      jumpi\n      dup1\n      0x42966c68\n      eq\n      tag_10\n      jumpi\n      dup1\n      0x70a08231\n      eq\n      tag_11\n      jumpi\n      jump(tag_2)\n    tag_23:\n      dup1\n      0x06fdde03\n      eq\n      tag_3\n      jumpi\n      dup1\n      0x095ea7b3\n      eq\n      tag_4\n      jumpi\n      dup1\n      0x18160ddd\n      eq\n      tag_5\n      jumpi\n      dup1\n      0x23b872dd\n      eq\n      tag_6\n      jumpi\n    tag_2:\n      0x00\n      dup1\n      revert\n        /* \"contracts/joci.sol\":6156:6254  function name() public view virtual override returns (string memory) {... */\n    tag_3:\n      tag_24\n      tag_25\n      jump\t// in\n    tag_24:\n      mload(0x40)\n      tag_26\n      swap2\n      swap1\n      tag_27\n      jump\t// in\n    tag_26:\n      mload(0x40)\n      dup1\n      swap2\n      sub\n      swap1\n      return\n        /* \"contracts/joci.sol\":8433:8630  function approve(address spender, uint256 amount) public virtual override returns (bool) {... */\n    tag_4:\n      tag_28\n      0x04\n      dup1\n      calldatasize\n      sub\n      dup2\n      add\n      swap1\n      tag_29\n      swap2\n      swap1\n      tag_30\n      jump\t// in\n    tag_29:\n      tag_31\n      jump\t// in\n    tag_28:\n      mload(0x40)\n      tag_32\n      swap2\n      swap1\n      tag_33\n      jump\t// in\n    tag_32:\n      mload(0x40)\n      dup1\n      swap2\n      sub\n      swap1\n      return\n        /* \"contracts/joci.sol\":7244:7350  function totalSupply() public view virtual override returns (uint256) {... */\n    tag_5:\n      tag_34\n      tag_35\n      jump\t// in\n    tag_34:\n      mload(0x40)\n      tag_36\n      swap2\n      swap1\n      tag_37\n      jump\t// in\n    tag_36:\n      mload(0x40)\n      dup1\n      swap2\n      sub\n      swap1\n      return\n        /* \"contracts/joci.sol\":21655:21938  function transferFrom(... */\n    tag_6:\n      tag_38\n      0x04\n      dup1\n      calldatasize\n      sub\n      dup2\n      add\n      swap1\n      tag_39\n      swap2\n      swap1\n      tag_40\n      jump\t// in\n    tag_39:\n      tag_41\n      jump\t// in\n    tag_38:\n      mload(0x40)\n      tag_42\n      swap2\n      swap1\n      tag_33\n      jump\t// in\n    tag_42:\n      mload(0x40)\n      dup1\n      swap2\n      sub\n      swap1\n      return\n        /* \"contracts/joci.sol\":7093:7184  function decimals() public view virtual override returns (uint8) {... */\n    tag_7:\n      tag_43\n      tag_44\n      jump\t// in\n    tag_43:\n      mload(0x40)\n      tag_45\n      swap2\n      swap1\n      tag_46\n      jump\t// in\n    tag_45:\n      mload(0x40)\n      dup1\n      swap2\n      sub\n      swap1\n      return\n        /* \"contracts/joci.sol\":9873:10107  function increaseAllowance(address spender, uint256 addedValue) public virtual returns (bool) {... */\n    tag_8:\n      tag_47\n      0x04\n      dup1\n      calldatasize\n      sub\n      dup2\n      add\n      swap1\n      tag_48\n      swap2\n      swap1\n      tag_30\n      jump\t// in\n    tag_48:\n      tag_49\n      jump\t// in\n    tag_47:\n      mload(0x40)\n      tag_50\n      swap2\n      swap1\n      tag_33\n      jump\t// in\n    tag_50:\n      mload(0x40)\n      dup1\n      swap2\n      sub\n      swap1\n      return\n        /* \"contracts/joci.sol\":21524:21649  function getNominatedUniswapV2LpPairAddress() external view returns (address) {... */\n    tag_9:\n      tag_51\n      tag_52\n      jump\t// in\n    tag_51:\n      mload(0x40)\n      tag_53\n      swap2\n      swap1\n      tag_54\n      jump\t// in\n    tag_53:\n      mload(0x40)\n      dup1\n      swap2\n      sub\n      swap1\n      return\n        /* \"contracts/joci.sol\":17475:17564  function burn(uint256 amount) public virtual {... */\n    tag_10:\n      tag_55\n      0x04\n      dup1\n      calldatasize\n      sub\n      dup2\n      add\n      swap1\n      tag_56\n      swap2\n      swap1\n      tag_57\n      jump\t// in\n    tag_56:\n      tag_58\n      jump\t// in\n    tag_55:\n      stop\n        /* \"contracts/joci.sol\":7408:7533  function balanceOf(address account) public view virtual override returns (uint256) {... */\n    tag_11:\n      tag_59\n      0x04\n      dup1\n      calldatasize\n      sub\n      dup2\n      add\n      swap1\n      tag_60\n      swap2\n      swap1\n      tag_61\n      jump\t// in\n    tag_60:\n      tag_62\n      jump\t// in\n    tag_59:\n      mload(0x40)\n      tag_63\n      swap2\n      swap1\n      tag_37\n      jump\t// in\n    tag_63:\n      mload(0x40)\n      dup1\n      swap2\n      sub\n      swap1\n      return\n        /* \"contracts/joci.sol\":19777:19878  function renounceOwnership() public virtual onlyOwner {... */\n    tag_12:\n      tag_64\n      tag_65\n      jump\t// in\n    tag_64:\n      stop\n        /* \"contracts/joci.sol\":17870:18031  function burnFrom(address account, uint256 amount) public virtual {... */\n    tag_13:\n      tag_66\n      0x04\n      dup1\n      calldatasize\n      sub\n      dup2\n      add\n      swap1\n      tag_67\n      swap2\n      swap1\n      tag_30\n      jump\t// in\n    tag_67:\n      tag_68\n      jump\t// in\n    tag_66:\n      stop\n        /* \"contracts/joci.sol\":19147:19232  function owner() public view virtual returns (address) {... */\n    tag_14:\n      tag_69\n      tag_70\n      jump\t// in\n    tag_69:\n      mload(0x40)\n      tag_71\n      swap2\n      swap1\n      tag_54\n      jump\t// in\n    tag_71:\n      mload(0x40)\n      dup1\n      swap2\n      sub\n      swap1\n      return\n        /* \"contracts/joci.sol\":6367:6469  function symbol() public view virtual override returns (string memory) {... */\n    tag_15:\n      tag_72\n      tag_73\n      jump\t// in\n    tag_72:\n      mload(0x40)\n      tag_74\n      swap2\n      swap1\n      tag_27\n      jump\t// in\n    tag_74:\n      mload(0x40)\n      dup1\n      swap2\n      sub\n      swap1\n      return\n        /* \"contracts/joci.sol\":10594:11021  function decreaseAllowance(address spender, uint256 subtractedValue) public virtual returns (bool) {... */\n    tag_16:\n      tag_75\n      0x04\n      dup1\n      calldatasize\n      sub\n      dup2\n      add\n      swap1\n      tag_76\n      swap2\n      swap1\n      tag_30\n      jump\t// in\n    tag_76:\n      tag_77\n      jump\t// in\n    tag_75:\n      mload(0x40)\n      tag_78\n      swap2\n      swap1\n      tag_33\n      jump\t// in\n    tag_78:\n      mload(0x40)\n      dup1\n      swap2\n      sub\n      swap1\n      return\n        /* \"contracts/joci.sol\":7729:7918  function transfer(address to, uint256 amount) public virtual override returns (bool) {... */\n    tag_17:\n      tag_79\n      0x04\n      dup1\n      calldatasize\n      sub\n      dup2\n      add\n      swap1\n      tag_80\n      swap2\n      swap1\n      tag_30\n      jump\t// in\n    tag_80:\n      tag_81\n      jump\t// in\n    tag_79:\n      mload(0x40)\n      tag_82\n      swap2\n      swap1\n      tag_33\n      jump\t// in\n    tag_82:\n      mload(0x40)\n      dup1\n      swap2\n      sub\n      swap1\n      return\n        /* \"contracts/joci.sol\":7976:8125  function allowance(address owner, address spender) public view virtual override returns (uint256) {... */\n    tag_18:\n      tag_83\n      0x04\n      dup1\n      calldatasize\n      sub\n      dup2\n      add\n      swap1\n      tag_84\n      swap2\n      swap1\n      tag_85\n      jump\t// in\n    tag_84:\n      tag_86\n      jump\t// in\n    tag_83:\n      mload(0x40)\n      tag_87\n      swap2\n      swap1\n      tag_37\n      jump\t// in\n    tag_87:\n      mload(0x40)\n      dup1\n      swap2\n      sub\n      swap1\n      return\n        /* \"contracts/joci.sol\":20027:20225  function transferOwnership(address newOwner) public virtual onlyOwner {... */\n    tag_19:\n      tag_88\n      0x04\n      dup1\n      calldatasize\n      sub\n      dup2\n      add\n      swap1\n      tag_89\n      swap2\n      swap1\n      tag_61\n      jump\t// in\n    tag_89:\n      tag_90\n      jump\t// in\n    tag_88:\n      stop\n        /* \"contracts/joci.sol\":21374:21518  function setNominatedUniswapV2LpPairAddress(address _lpPairAddress) external onlyOwner {... */\n    tag_20:\n      tag_91\n      0x04\n      dup1\n      calldatasize\n      sub\n      dup2\n      add\n      swap1\n      tag_92\n      swap2\n      swap1\n      tag_61\n      jump\t// in\n    tag_92:\n      tag_93\n      jump\t// in\n    tag_91:\n      stop\n        /* \"contracts/joci.sol\":6156:6254  function name() public view virtual override returns (string memory) {... */\n    tag_25:\n        /* \"contracts/joci.sol\":6210:6223  string memory */\n      0x60\n        /* \"contracts/joci.sol\":6242:6247  _name */\n      0x03\n        /* \"contracts/joci.sol\":6235:6247  return _name */\n      dup1\n      sload\n      tag_95\n      swap1\n      tag_96\n      jump\t// in\n    tag_95:\n      dup1\n      0x1f\n      add\n      0x20\n      dup1\n      swap2\n      div\n      mul\n      0x20\n      add\n      mload(0x40)\n      swap1\n      dup2\n      add\n      0x40\n      mstore\n      dup1\n      swap3\n      swap2\n      swap1\n      dup2\n      dup2\n      mstore\n      0x20\n      add\n      dup3\n      dup1\n      sload\n      tag_97\n      swap1\n      tag_96\n      jump\t// in\n    tag_97:\n      dup1\n      iszero\n      tag_98\n      jumpi\n      dup1\n      0x1f\n      lt\n      tag_99\n      jumpi\n      0x0100\n      dup1\n      dup4\n      sload\n      div\n      mul\n      dup4\n      mstore\n      swap2\n      0x20\n      add\n      swap2\n      jump(tag_98)\n    tag_99:\n      dup3\n      add\n      swap2\n      swap1\n      0x00\n      mstore\n      keccak256(0x00, 0x20)\n      swap1\n    tag_100:\n      dup2\n      sload\n      dup2\n      mstore\n      swap1\n      0x01\n      add\n      swap1\n      0x20\n      add\n      dup1\n      dup4\n      gt\n      tag_100\n      jumpi\n      dup3\n      swap1\n      sub\n      0x1f\n      and\n      dup3\n      add\n      swap2\n    tag_98:\n      pop\n      pop\n      pop\n      pop\n      pop\n      swap1\n      pop\n        /* \"contracts/joci.sol\":6156:6254  function name() public view virtual override returns (string memory) {... */\n      swap1\n      jump\t// out\n        /* \"contracts/joci.sol\":8433:8630  function approve(address spender, uint256 amount) public virtual override returns (bool) {... */\n    tag_31:\n        /* \"contracts/joci.sol\":8516:8520  bool */\n      0x00\n        /* \"contracts/joci.sol\":8532:8545  address owner */\n      dup1\n        /* \"contracts/joci.sol\":8548:8560  _msgSender() */\n      tag_102\n        /* \"contracts/joci.sol\":8548:8558  _msgSender */\n      tag_103\n        /* \"contracts/joci.sol\":8548:8560  _msgSender() */\n      jump\t// in\n    tag_102:\n        /* \"contracts/joci.sol\":8532:8560  address owner = _msgSender() */\n      swap1\n      pop\n        /* \"contracts/joci.sol\":8570:8602  _approve(owner, spender, amount) */\n      tag_104\n        /* \"contracts/joci.sol\":8579:8584  owner */\n      dup2\n        /* \"contracts/joci.sol\":8586:8593  spender */\n      dup6\n        /* \"contracts/joci.sol\":8595:8601  amount */\n      dup6\n        /* \"contracts/joci.sol\":8570:8578  _approve */\n      tag_105\n        /* \"contracts/joci.sol\":8570:8602  _approve(owner, spender, amount) */\n      jump\t// in\n    tag_104:\n        /* \"contracts/joci.sol\":8619:8623  true */\n      0x01\n        /* \"contracts/joci.sol\":8612:8623  return true */\n      swap2\n      pop\n      pop\n        /* \"contracts/joci.sol\":8433:8630  function approve(address spender, uint256 amount) public virtual override returns (bool) {... */\n      swap3\n      swap2\n      pop\n      pop\n      jump\t// out\n        /* \"contracts/joci.sol\":7244:7350  function totalSupply() public view virtual override returns (uint256) {... */\n    tag_35:\n        /* \"contracts/joci.sol\":7305:7312  uint256 */\n      0x00\n        /* \"contracts/joci.sol\":7331:7343  _totalSupply */\n      sload(0x02)\n        /* \"contracts/joci.sol\":7324:7343  return _totalSupply */\n      swap1\n      pop\n        /* \"contracts/joci.sol\":7244:7350  function totalSupply() public view virtual override returns (uint256) {... */\n      swap1\n      jump\t// out\n        /* \"contracts/joci.sol\":21655:21938  function transferFrom(... */\n    tag_41:\n        /* \"contracts/joci.sol\":21774:21778  bool */\n      0x00\n        /* \"contracts/joci.sol\":21798:21834  _checkLpTransactionLimit(to, amount) */\n      tag_108\n        /* \"contracts/joci.sol\":21823:21825  to */\n      dup4\n        /* \"contracts/joci.sol\":21827:21833  amount */\n      dup4\n        /* \"contracts/joci.sol\":21798:21822  _checkLpTransactionLimit */\n      tag_109\n        /* \"contracts/joci.sol\":21798:21834  _checkLpTransactionLimit(to, amount) */\n      jump\t// in\n    tag_108:\n        /* \"contracts/joci.sol\":21790:21878  require(_checkLpTransactionLimit(to, amount), \"Transfer amount exceeds the 1% LP limit\") */\n      tag_110\n      jumpi\n      mload(0x40)\n      0x08c379a000000000000000000000000000000000000000000000000000000000\n      dup2\n      mstore\n      0x04\n      add\n      tag_111\n      swap1\n      tag_112\n      jump\t// in\n    tag_111:\n      mload(0x40)\n      dup1\n      swap2\n      sub\n      swap1\n      revert\n    tag_110:\n        /* \"contracts/joci.sol\":21895:21931  super.transferFrom(from, to, amount) */\n      tag_113\n        /* \"contracts/joci.sol\":21914:21918  from */\n      dup5\n        /* \"contracts/joci.sol\":21920:21922  to */\n      dup5\n        /* \"contracts/joci.sol\":21924:21930  amount */\n      dup5\n        /* \"contracts/joci.sol\":21895:21913  super.transferFrom */\n      tag_114\n        /* \"contracts/joci.sol\":21895:21931  super.transferFrom(from, to, amount) */\n      jump\t// in\n    tag_113:\n        /* \"contracts/joci.sol\":21888:21931  return super.transferFrom(from, to, amount) */\n      swap1\n      pop\n        /* \"contracts/joci.sol\":21655:21938  function transferFrom(... */\n      swap4\n      swap3\n      pop\n      pop\n      pop\n      jump\t// out\n        /* \"contracts/joci.sol\":7093:7184  function decimals() public view virtual override returns (uint8) {... */\n    tag_44:\n        /* \"contracts/joci.sol\":7151:7156  uint8 */\n      0x00\n        /* \"contracts/joci.sol\":7175:7177  18 */\n      0x12\n        /* \"contracts/joci.sol\":7168:7177  return 18 */\n      swap1\n      pop\n        /* \"contracts/joci.sol\":7093:7184  function decimals() public view virtual override returns (uint8) {... */\n      swap1\n      jump\t// out\n        /* \"contracts/joci.sol\":9873:10107  function increaseAllowance(address spender, uint256 addedValue) public virtual returns (bool) {... */\n    tag_49:\n        /* \"contracts/joci.sol\":9961:9965  bool */\n      0x00\n        /* \"contracts/joci.sol\":9977:9990  address owner */\n      dup1\n        /* \"contracts/joci.sol\":9993:10005  _msgSender() */\n      tag_117\n        /* \"contracts/joci.sol\":9993:10003  _msgSender */\n      tag_103\n        /* \"contracts/joci.sol\":9993:10005  _msgSender() */\n      jump\t// in\n    tag_117:\n        /* \"contracts/joci.sol\":9977:10005  address owner = _msgSender() */\n      swap1\n      pop\n        /* \"contracts/joci.sol\":10015:10079  _approve(owner, spender, allowance(owner, spender) + addedValue) */\n      tag_118\n        /* \"contracts/joci.sol\":10024:10029  owner */\n      dup2\n        /* \"contracts/joci.sol\":10031:10038  spender */\n      dup6\n        /* \"contracts/joci.sol\":10068:10078  addedValue */\n      dup6\n        /* \"contracts/joci.sol\":10040:10065  allowance(owner, spender) */\n      tag_119\n        /* \"contracts/joci.sol\":10050:10055  owner */\n      dup6\n        /* \"contracts/joci.sol\":10057:10064  spender */\n      dup10\n        /* \"contracts/joci.sol\":10040:10049  allowance */\n      tag_86\n        /* \"contracts/joci.sol\":10040:10065  allowance(owner, spender) */\n      jump\t// in\n    tag_119:\n        /* \"contracts/joci.sol\":10040:10078  allowance(owner, spender) + addedValue */\n      tag_120\n      swap2\n      swap1\n      tag_121\n      jump\t// in\n    tag_120:\n        /* \"contracts/joci.sol\":10015:10023  _approve */\n      tag_105\n        /* \"contracts/joci.sol\":10015:10079  _approve(owner, spender, allowance(owner, spender) + addedValue) */\n      jump\t// in\n    tag_118:\n        /* \"contracts/joci.sol\":10096:10100  true */\n      0x01\n        /* \"contracts/joci.sol\":10089:10100  return true */\n      swap2\n      pop\n      pop\n        /* \"contracts/joci.sol\":9873:10107  function increaseAllowance(address spender, uint256 addedValue) public virtual returns (bool) {... */\n      swap3\n      swap2\n      pop\n      pop\n      jump\t// out\n        /* \"contracts/joci.sol\":21524:21649  function getNominatedUniswapV2LpPairAddress() external view returns (address) {... */\n    tag_52:\n        /* \"contracts/joci.sol\":21593:21600  address */\n      0x00\n        /* \"contracts/joci.sol\":21619:21642  _nominatedLpPairAddress */\n      0x06\n      0x00\n      swap1\n      sload\n      swap1\n      0x0100\n      exp\n      swap1\n      div\n      0xffffffffffffffffffffffffffffffffffffffff\n      and\n        /* \"contracts/joci.sol\":21612:21642  return _nominatedLpPairAddress */\n      swap1\n      pop\n        /* \"contracts/joci.sol\":21524:21649  function getNominatedUniswapV2LpPairAddress() external view returns (address) {... */\n      swap1\n      jump\t// out\n        /* \"contracts/joci.sol\":17475:17564  function burn(uint256 amount) public virtual {... */\n    tag_58:\n        /* \"contracts/joci.sol\":17530:17557  _burn(_msgSender(), amount) */\n      tag_124\n        /* \"contracts/joci.sol\":17536:17548  _msgSender() */\n      tag_125\n        /* \"contracts/joci.sol\":17536:17546  _msgSender */\n      tag_103\n        /* \"contracts/joci.sol\":17536:17548  _msgSender() */\n      jump\t// in\n    tag_125:\n        /* \"contracts/joci.sol\":17550:17556  amount */\n      dup3\n        /* \"contracts/joci.sol\":17530:17535  _burn */\n      tag_126\n        /* \"contracts/joci.sol\":17530:17557  _burn(_msgSender(), amount) */\n      jump\t// in\n    tag_124:\n        /* \"contracts/joci.sol\":17475:17564  function burn(uint256 amount) public virtual {... */\n      pop\n      jump\t// out\n        /* \"contracts/joci.sol\":7408:7533  function balanceOf(address account) public view virtual override returns (uint256) {... */\n    tag_62:\n        /* \"contracts/joci.sol\":7482:7489  uint256 */\n      0x00\n        /* \"contracts/joci.sol\":7508:7517  _balances */\n      dup1\n        /* \"contracts/joci.sol\":7508:7526  _balances[account] */\n      0x00\n        /* \"contracts/joci.sol\":7518:7525  account */\n      dup4\n        /* \"contracts/joci.sol\":7508:7526  _balances[account] */\n      0xffffffffffffffffffffffffffffffffffffffff\n      and\n      0xffffffffffffffffffffffffffffffffffffffff\n      and\n      dup2\n      mstore\n      0x20\n      add\n      swap1\n      dup2\n      mstore\n      0x20\n      add\n      0x00\n      keccak256\n      sload\n        /* \"contracts/joci.sol\":7501:7526  return _balances[account] */\n      swap1\n      pop\n        /* \"contracts/joci.sol\":7408:7533  function balanceOf(address account) public view virtual override returns (uint256) {... */\n      swap2\n      swap1\n      pop\n      jump\t// out\n        /* \"contracts/joci.sol\":19777:19878  function renounceOwnership() public virtual onlyOwner {... */\n    tag_65:\n        /* \"contracts/joci.sol\":19040:19053  _checkOwner() */\n      tag_129\n        /* \"contracts/joci.sol\":19040:19051  _checkOwner */\n      tag_130\n        /* \"contracts/joci.sol\":19040:19053  _checkOwner() */\n      jump\t// in\n    tag_129:\n        /* \"contracts/joci.sol\":19841:19871  _transferOwnership(address(0)) */\n      tag_132\n        /* \"contracts/joci.sol\":19868:19869  0 */\n      0x00\n        /* \"contracts/joci.sol\":19841:19859  _transferOwnership */\n      tag_133\n        /* \"contracts/joci.sol\":19841:19871  _transferOwnership(address(0)) */\n      jump\t// in\n    tag_132:\n        /* \"contracts/joci.sol\":19777:19878  function renounceOwnership() public virtual onlyOwner {... */\n      jump\t// out\n        /* \"contracts/joci.sol\":17870:18031  function burnFrom(address account, uint256 amount) public virtual {... */\n    tag_68:\n        /* \"contracts/joci.sol\":17946:17992  _spendAllowance(account, _msgSender(), amount) */\n      tag_135\n        /* \"contracts/joci.sol\":17962:17969  account */\n      dup3\n        /* \"contracts/joci.sol\":17971:17983  _msgSender() */\n      tag_136\n        /* \"contracts/joci.sol\":17971:17981  _msgSender */\n      tag_103\n        /* \"contracts/joci.sol\":17971:17983  _msgSender() */\n      jump\t// in\n    tag_136:\n        /* \"contracts/joci.sol\":17985:17991  amount */\n      dup4\n        /* \"contracts/joci.sol\":17946:17961  _spendAllowance */\n      tag_137\n        /* \"contracts/joci.sol\":17946:17992  _spendAllowance(account, _msgSender(), amount) */\n      jump\t// in\n    tag_135:\n        /* \"contracts/joci.sol\":18002:18024  _burn(account, amount) */\n      tag_138\n        /* \"contracts/joci.sol\":18008:18015  account */\n      dup3\n        /* \"contracts/joci.sol\":18017:18023  amount */\n      dup3\n        /* \"contracts/joci.sol\":18002:18007  _burn */\n      tag_126\n        /* \"contracts/joci.sol\":18002:18024  _burn(account, amount) */\n      jump\t// in\n    tag_138:\n        /* \"contracts/joci.sol\":17870:18031  function burnFrom(address account, uint256 amount) public virtual {... */\n      pop\n      pop\n      jump\t// out\n        /* \"contracts/joci.sol\":19147:19232  function owner() public view virtual returns (address) {... */\n    tag_70:\n        /* \"contracts/joci.sol\":19193:19200  address */\n      0x00\n        /* \"contracts/joci.sol\":19219:19225  _owner */\n      0x05\n      0x00\n      swap1\n      sload\n      swap1\n      0x0100\n      exp\n      swap1\n      div\n      0xffffffffffffffffffffffffffffffffffffffff\n      and\n        /* \"contracts/joci.sol\":19212:19225  return _owner */\n      swap1\n      pop\n        /* \"contracts/joci.sol\":19147:19232  function owner() public view virtual returns (address) {... */\n      swap1\n      jump\t// out\n        /* \"contracts/joci.sol\":6367:6469  function symbol() public view virtual override returns (string memory) {... */\n    tag_73:\n        /* \"contracts/joci.sol\":6423:6436  string memory */\n      0x60\n        /* \"contracts/joci.sol\":6455:6462  _symbol */\n      0x04\n        /* \"contracts/joci.sol\":6448:6462  return _symbol */\n      dup1\n      sload\n      tag_141\n      swap1\n      tag_96\n      jump\t// in\n    tag_141:\n      dup1\n      0x1f\n      add\n      0x20\n      dup1\n      swap2\n      div\n      mul\n      0x20\n      add\n      mload(0x40)\n      swap1\n      dup2\n      add\n      0x40\n      mstore\n      dup1\n      swap3\n      swap2\n      swap1\n      dup2\n      dup2\n      mstore\n      0x20\n      add\n      dup3\n      dup1\n      sload\n      tag_142\n      swap1\n      tag_96\n      jump\t// in\n    tag_142:\n      dup1\n      iszero\n      tag_143\n      jumpi\n      dup1\n      0x1f\n      lt\n      tag_144\n      jumpi\n      0x0100\n      dup1\n      dup4\n      sload\n      div\n      mul\n      dup4\n      mstore\n      swap2\n      0x20\n      add\n      swap2\n      jump(tag_143)\n    tag_144:\n      dup3\n      add\n      swap2\n      swap1\n      0x00\n      mstore\n      keccak256(0x00, 0x20)\n      swap1\n    tag_145:\n      dup2\n      sload\n      dup2\n      mstore\n      swap1\n      0x01\n      add\n      swap1\n      0x20\n      add\n      dup1\n      dup4\n      gt\n      tag_145\n      jumpi\n      dup3\n      swap1\n      sub\n      0x1f\n      and\n      dup3\n      add\n      swap2\n    tag_143:\n      pop\n      pop\n      pop\n      pop\n      pop\n      swap1\n      pop\n        /* \"contracts/joci.sol\":6367:6469  function symbol() public view virtual override returns (string memory) {... */\n      swap1\n      jump\t// out\n        /* \"contracts/joci.sol\":10594:11021  function decreaseAllowance(address spender, uint256 subtractedValue) public virtual returns (bool) {... */\n    tag_77:\n        /* \"contracts/joci.sol\":10687:10691  bool */\n      0x00\n        /* \"contracts/joci.sol\":10703:10716  address owner */\n      dup1\n        /* \"contracts/joci.sol\":10719:10731  _msgSender() */\n      tag_147\n        /* \"contracts/joci.sol\":10719:10729  _msgSender */\n      tag_103\n        /* \"contracts/joci.sol\":10719:10731  _msgSender() */\n      jump\t// in\n    tag_147:\n        /* \"contracts/joci.sol\":10703:10731  address owner = _msgSender() */\n      swap1\n      pop\n        /* \"contracts/joci.sol\":10741:10765  uint256 currentAllowance */\n      0x00\n        /* \"contracts/joci.sol\":10768:10793  allowance(owner, spender) */\n      tag_148\n        /* \"contracts/joci.sol\":10778:10783  owner */\n      dup3\n        /* \"contracts/joci.sol\":10785:10792  spender */\n      dup7\n        /* \"contracts/joci.sol\":10768:10777  allowance */\n      tag_86\n        /* \"contracts/joci.sol\":10768:10793  allowance(owner, spender) */\n      jump\t// in\n    tag_148:\n        /* \"contracts/joci.sol\":10741:10793  uint256 currentAllowance = allowance(owner, spender) */\n      swap1\n      pop\n        /* \"contracts/joci.sol\":10831:10846  subtractedValue */\n      dup4\n        /* \"contracts/joci.sol\":10811:10827  currentAllowance */\n      dup2\n        /* \"contracts/joci.sol\":10811:10846  currentAllowance >= subtractedValue */\n      lt\n      iszero\n        /* \"contracts/joci.sol\":10803:10888  require(currentAllowance >= subtractedValue, \"ERC20: decreased allowance below zero\") */\n      tag_149\n      jumpi\n      mload(0x40)\n      0x08c379a000000000000000000000000000000000000000000000000000000000\n      dup2\n      mstore\n      0x04\n      add\n      tag_150\n      swap1\n      tag_151\n      jump\t// in\n    tag_150:\n      mload(0x40)\n      dup1\n      swap2\n      sub\n      swap1\n      revert\n    tag_149:\n        /* \"contracts/joci.sol\":10922:10982  _approve(owner, spender, currentAllowance - subtractedValue) */\n      tag_152\n        /* \"contracts/joci.sol\":10931:10936  owner */\n      dup3\n        /* \"contracts/joci.sol\":10938:10945  spender */\n      dup7\n        /* \"contracts/joci.sol\":10966:10981  subtractedValue */\n      dup7\n        /* \"contracts/joci.sol\":10947:10963  currentAllowance */\n      dup5\n        /* \"contracts/joci.sol\":10947:10981  currentAllowance - subtractedValue */\n      sub\n        /* \"contracts/joci.sol\":10922:10930  _approve */\n      tag_105\n        /* \"contracts/joci.sol\":10922:10982  _approve(owner, spender, currentAllowance - subtractedValue) */\n      jump\t// in\n    tag_152:\n        /* \"contracts/joci.sol\":11010:11014  true */\n      0x01\n        /* \"contracts/joci.sol\":11003:11014  return true */\n      swap3\n      pop\n      pop\n      pop\n        /* \"contracts/joci.sol\":10594:11021  function decreaseAllowance(address spender, uint256 subtractedValue) public virtual returns (bool) {... */\n      swap3\n      swap2\n      pop\n      pop\n      jump\t// out\n        /* \"contracts/joci.sol\":7729:7918  function transfer(address to, uint256 amount) public virtual override returns (bool) {... */\n    tag_81:\n        /* \"contracts/joci.sol\":7808:7812  bool */\n      0x00\n        /* \"contracts/joci.sol\":7824:7837  address owner */\n      dup1\n        /* \"contracts/joci.sol\":7840:7852  _msgSender() */\n      tag_154\n        /* \"contracts/joci.sol\":7840:7850  _msgSender */\n      tag_103\n        /* \"contracts/joci.sol\":7840:7852  _msgSender() */\n      jump\t// in\n    tag_154:\n        /* \"contracts/joci.sol\":7824:7852  address owner = _msgSender() */\n      swap1\n      pop\n        /* \"contracts/joci.sol\":7862:7890  _transfer(owner, to, amount) */\n      tag_155\n        /* \"contracts/joci.sol\":7872:7877  owner */\n      dup2\n        /* \"contracts/joci.sol\":7879:7881  to */\n      dup6\n        /* \"contracts/joci.sol\":7883:7889  amount */\n      dup6\n        /* \"contracts/joci.sol\":7862:7871  _transfer */\n      tag_156\n        /* \"contracts/joci.sol\":7862:7890  _transfer(owner, to, amount) */\n      jump\t// in\n    tag_155:\n        /* \"contracts/joci.sol\":7907:7911  true */\n      0x01\n        /* \"contracts/joci.sol\":7900:7911  return true */\n      swap2\n      pop\n      pop\n        /* \"contracts/joci.sol\":7729:7918  function transfer(address to, uint256 amount) public virtual override returns (bool) {... */\n      swap3\n      swap2\n      pop\n      pop\n      jump\t// out\n        /* \"contracts/joci.sol\":7976:8125  function allowance(address owner, address spender) public view virtual override returns (uint256) {... */\n    tag_86:\n        /* \"contracts/joci.sol\":8065:8072  uint256 */\n      0x00\n        /* \"contracts/joci.sol\":8091:8102  _allowances */\n      0x01\n        /* \"contracts/joci.sol\":8091:8109  _allowances[owner] */\n      0x00\n        /* \"contracts/joci.sol\":8103:8108  owner */\n      dup5\n        /* \"contracts/joci.sol\":8091:8109  _allowances[owner] */\n      0xffffffffffffffffffffffffffffffffffffffff\n      and\n      0xffffffffffffffffffffffffffffffffffffffff\n      and\n      dup2\n      mstore\n      0x20\n      add\n      swap1\n      dup2\n      mstore\n      0x20\n      add\n      0x00\n      keccak256\n        /* \"contracts/joci.sol\":8091:8118  _allowances[owner][spender] */\n      0x00\n        /* \"contracts/joci.sol\":8110:8117  spender */\n      dup4\n        /* \"contracts/joci.sol\":8091:8118  _allowances[owner][spender] */\n      0xffffffffffffffffffffffffffffffffffffffff\n      and\n      0xffffffffffffffffffffffffffffffffffffffff\n      and\n      dup2\n      mstore\n      0x20\n      add\n      swap1\n      dup2\n      mstore\n      0x20\n      add\n      0x00\n      keccak256\n      sload\n        /* \"contracts/joci.sol\":8084:8118  return _allowances[owner][spender] */\n      swap1\n      pop\n        /* \"contracts/joci.sol\":7976:8125  function allowance(address owner, address spender) public view virtual override returns (uint256) {... */\n      swap3\n      swap2\n      pop\n      pop\n      jump\t// out\n        /* \"contracts/joci.sol\":20027:20225  function transferOwnership(address newOwner) public virtual onlyOwner {... */\n    tag_90:\n        /* \"contracts/joci.sol\":19040:19053  _checkOwner() */\n      tag_159\n        /* \"contracts/joci.sol\":19040:19051  _checkOwner */\n      tag_130\n        /* \"contracts/joci.sol\":19040:19053  _checkOwner() */\n      jump\t// in\n    tag_159:\n        /* \"contracts/joci.sol\":20135:20136  0 */\n      0x00\n        /* \"contracts/joci.sol\":20115:20137  newOwner != address(0) */\n      0xffffffffffffffffffffffffffffffffffffffff\n      and\n        /* \"contracts/joci.sol\":20115:20123  newOwner */\n      dup2\n        /* \"contracts/joci.sol\":20115:20137  newOwner != address(0) */\n      0xffffffffffffffffffffffffffffffffffffffff\n      and\n      eq\n      iszero\n        /* \"contracts/joci.sol\":20107:20180  require(newOwner != address(0), \"Ownable: new owner is the zero address\") */\n      tag_161\n      jumpi\n      mload(0x40)\n      0x08c379a000000000000000000000000000000000000000000000000000000000\n      dup2\n      mstore\n      0x04\n      add\n      tag_162\n      swap1\n      tag_163\n      jump\t// in\n    tag_162:\n      mload(0x40)\n      dup1\n      swap2\n      sub\n      swap1\n      revert\n    tag_161:\n        /* \"contracts/joci.sol\":20190:20218  _transferOwnership(newOwner) */\n      tag_164\n        /* \"contracts/joci.sol\":20209:20217  newOwner */\n      dup2\n        /* \"contracts/joci.sol\":20190:20208  _transferOwnership */\n      tag_133\n        /* \"contracts/joci.sol\":20190:20218  _transferOwnership(newOwner) */\n      jump\t// in\n    tag_164:\n        /* \"contracts/joci.sol\":20027:20225  function transferOwnership(address newOwner) public virtual onlyOwner {... */\n      pop\n      jump\t// out\n        /* \"contracts/joci.sol\":21374:21518  function setNominatedUniswapV2LpPairAddress(address _lpPairAddress) external onlyOwner {... */\n    tag_93:\n        /* \"contracts/joci.sol\":19040:19053  _checkOwner() */\n      tag_166\n        /* \"contracts/joci.sol\":19040:19051  _checkOwner */\n      tag_130\n        /* \"contracts/joci.sol\":19040:19053  _checkOwner() */\n      jump\t// in\n    tag_166:\n        /* \"contracts/joci.sol\":21497:21511  _lpPairAddress */\n      dup1\n        /* \"contracts/joci.sol\":21471:21494  _nominatedLpPairAddress */\n      0x06\n      0x00\n        /* \"contracts/joci.sol\":21471:21511  _nominatedLpPairAddress = _lpPairAddress */\n      0x0100\n      exp\n      dup2\n      sload\n      dup2\n      0xffffffffffffffffffffffffffffffffffffffff\n      mul\n      not\n      and\n      swap1\n      dup4\n      0xffffffffffffffffffffffffffffffffffffffff\n      and\n      mul\n      or\n      swap1\n      sstore\n      pop\n        /* \"contracts/joci.sol\":21374:21518  function setNominatedUniswapV2LpPairAddress(address _lpPairAddress) external onlyOwner {... */\n      pop\n      jump\t// out\n        /* \"contracts/joci.sol\":3954:4050  function _msgSender() internal view virtual returns (address) {... */\n    tag_103:\n        /* \"contracts/joci.sol\":4007:4014  address */\n      0x00\n        /* \"contracts/joci.sol\":4033:4043  msg.sender */\n      caller\n        /* \"contracts/joci.sol\":4026:4043  return msg.sender */\n      swap1\n      pop\n        /* \"contracts/joci.sol\":3954:4050  function _msgSender() internal view virtual returns (address) {... */\n      swap1\n      jump\t// out\n        /* \"contracts/joci.sol\":14506:14876  function _approve(... */\n    tag_105:\n        /* \"contracts/joci.sol\":14654:14655  0 */\n      0x00\n        /* \"contracts/joci.sol\":14637:14656  owner != address(0) */\n      0xffffffffffffffffffffffffffffffffffffffff\n      and\n        /* \"contracts/joci.sol\":14637:14642  owner */\n      dup4\n        /* \"contracts/joci.sol\":14637:14656  owner != address(0) */\n      0xffffffffffffffffffffffffffffffffffffffff\n      and\n      eq\n      iszero\n        /* \"contracts/joci.sol\":14629:14697  require(owner != address(0), \"ERC20: approve from the zero address\") */\n      tag_170\n      jumpi\n      mload(0x40)\n      0x08c379a000000000000000000000000000000000000000000000000000000000\n      dup2\n      mstore\n      0x04\n      add\n      tag_171\n      swap1\n      tag_172\n      jump\t// in\n    tag_171:\n      mload(0x40)\n      dup1\n      swap2\n      sub\n      swap1\n      revert\n    tag_170:\n        /* \"contracts/joci.sol\":14734:14735  0 */\n      0x00\n        /* \"contracts/joci.sol\":14715:14736  spender != address(0) */\n      0xffffffffffffffffffffffffffffffffffffffff\n      and\n        /* \"contracts/joci.sol\":14715:14722  spender */\n      dup3\n        /* \"contracts/joci.sol\":14715:14736  spender != address(0) */\n      0xffffffffffffffffffffffffffffffffffffffff\n      and\n      eq\n      iszero\n        /* \"contracts/joci.sol\":14707:14775  require(spender != address(0), \"ERC20: approve to the zero address\") */\n      tag_173\n      jumpi\n      mload(0x40)\n      0x08c379a000000000000000000000000000000000000000000000000000000000\n      dup2\n      mstore\n      0x04\n      add\n      tag_174\n      swap1\n      tag_175\n      jump\t// in\n    tag_174:\n      mload(0x40)\n      dup1\n      swap2\n      sub\n      swap1\n      revert\n    tag_173:\n        /* \"contracts/joci.sol\":14816:14822  amount */\n      dup1\n        /* \"contracts/joci.sol\":14786:14797  _allowances */\n      0x01\n        /* \"contracts/joci.sol\":14786:14804  _allowances[owner] */\n      0x00\n        /* \"contracts/joci.sol\":14798:14803  owner */\n      dup6\n        /* \"contracts/joci.sol\":14786:14804  _allowances[owner] */\n      0xffffffffffffffffffffffffffffffffffffffff\n      and\n      0xffffffffffffffffffffffffffffffffffffffff\n      and\n      dup2\n      mstore\n      0x20\n      add\n      swap1\n      dup2\n      mstore\n      0x20\n      add\n      0x00\n      keccak256\n        /* \"contracts/joci.sol\":14786:14813  _allowances[owner][spender] */\n      0x00\n        /* \"contracts/joci.sol\":14805:14812  spender */\n      dup5\n        /* \"contracts/joci.sol\":14786:14813  _allowances[owner][spender] */\n      0xffffffffffffffffffffffffffffffffffffffff\n      and\n      0xffffffffffffffffffffffffffffffffffffffff\n      and\n      dup2\n      mstore\n      0x20\n      add\n      swap1\n      dup2\n      mstore\n      0x20\n      add\n      0x00\n      keccak256\n        /* \"contracts/joci.sol\":14786:14822  _allowances[owner][spender] = amount */\n      dup2\n      swap1\n      sstore\n      pop\n        /* \"contracts/joci.sol\":14853:14860  spender */\n      dup2\n        /* \"contracts/joci.sol\":14837:14869  Approval(owner, spender, amount) */\n      0xffffffffffffffffffffffffffffffffffffffff\n      and\n        /* \"contracts/joci.sol\":14846:14851  owner */\n      dup4\n        /* \"contracts/joci.sol\":14837:14869  Approval(owner, spender, amount) */\n      0xffffffffffffffffffffffffffffffffffffffff\n      and\n      0x8c5be1e5ebec7d5bd14f71427d1e84f3dd0314c0f7b2291e5b200ac8c7c3b925\n        /* \"contracts/joci.sol\":14862:14868  amount */\n      dup4\n        /* \"contracts/joci.sol\":14837:14869  Approval(owner, spender, amount) */\n      mload(0x40)\n      tag_176\n      swap2\n      swap1\n      tag_37\n      jump\t// in\n    tag_176:\n      mload(0x40)\n      dup1\n      swap2\n      sub\n      swap1\n      log3\n        /* \"contracts/joci.sol\":14506:14876  function _approve(... */\n      pop\n      pop\n      pop\n      jump\t// out\n        /* \"contracts/joci.sol\":22049:23065  function _checkLpTransactionLimit(address to, uint256 amount) private view returns (bool) {... */\n    tag_109:\n        /* \"contracts/joci.sol\":22133:22137  bool */\n      0x00\n        /* \"contracts/joci.sol\":22188:22189  0 */\n      dup1\n        /* \"contracts/joci.sol\":22153:22190  _nominatedLpPairAddress == address(0) */\n      0xffffffffffffffffffffffffffffffffffffffff\n      and\n        /* \"contracts/joci.sol\":22153:22176  _nominatedLpPairAddress */\n      0x06\n      0x00\n      swap1\n      sload\n      swap1\n      0x0100\n      exp\n      swap1\n      div\n      0xffffffffffffffffffffffffffffffffffffffff\n      and\n        /* \"contracts/joci.sol\":22153:22190  _nominatedLpPairAddress == address(0) */\n      0xffffffffffffffffffffffffffffffffffffffff\n      and\n      eq\n        /* \"contracts/joci.sol\":22149:22298  if (_nominatedLpPairAddress == address(0)) {... */\n      iszero\n      tag_178\n      jumpi\n        /* \"contracts/joci.sol\":22283:22287  true */\n      0x01\n        /* \"contracts/joci.sol\":22276:22287  return true */\n      swap1\n      pop\n      jump(tag_177)\n        /* \"contracts/joci.sol\":22149:22298  if (_nominatedLpPairAddress == address(0)) {... */\n    tag_178:\n        /* \"contracts/joci.sol\":22317:22340  _nominatedLpPairAddress */\n      0x06\n      0x00\n      swap1\n      sload\n      swap1\n      0x0100\n      exp\n      swap1\n      div\n      0xffffffffffffffffffffffffffffffffffffffff\n      and\n        /* \"contracts/joci.sol\":22311:22340  to != _nominatedLpPairAddress */\n      0xffffffffffffffffffffffffffffffffffffffff\n      and\n        /* \"contracts/joci.sol\":22311:22313  to */\n      dup4\n        /* \"contracts/joci.sol\":22311:22340  to != _nominatedLpPairAddress */\n      0xffffffffffffffffffffffffffffffffffffffff\n      and\n      eq\n        /* \"contracts/joci.sol\":22307:22459  if (to != _nominatedLpPairAddress) {... */\n      tag_179\n      jumpi\n        /* \"contracts/joci.sol\":22444:22448  true */\n      0x01\n        /* \"contracts/joci.sol\":22437:22448  return true */\n      swap1\n      pop\n      jump(tag_177)\n        /* \"contracts/joci.sol\":22307:22459  if (to != _nominatedLpPairAddress) {... */\n    tag_179:\n        /* \"contracts/joci.sol\":22476:22497  IUniswapV2Pair lpPair */\n      0x00\n        /* \"contracts/joci.sol\":22515:22538  _nominatedLpPairAddress */\n      0x06\n      0x00\n      swap1\n      sload\n      swap1\n      0x0100\n      exp\n      swap1\n      div\n      0xffffffffffffffffffffffffffffffffffffffff\n      and\n        /* \"contracts/joci.sol\":22476:22539  IUniswapV2Pair lpPair = IUniswapV2Pair(_nominatedLpPairAddress) */\n      swap1\n      pop\n        /* \"contracts/joci.sol\":22550:22566  uint112 reserve0 */\n      0x00\n        /* \"contracts/joci.sol\":22568:22584  uint112 reserve1 */\n      dup1\n        /* \"contracts/joci.sol\":22589:22595  lpPair */\n      dup3\n        /* \"contracts/joci.sol\":22589:22607  lpPair.getReserves */\n      0xffffffffffffffffffffffffffffffffffffffff\n      and\n      0x0902f1ac\n        /* \"contracts/joci.sol\":22589:22609  lpPair.getReserves() */\n      mload(0x40)\n      dup2\n      0xffffffff\n      and\n      0xe0\n      shl\n      dup2\n      mstore\n      0x04\n      add\n      0x60\n      mload(0x40)\n      dup1\n      dup4\n      sub\n      dup2\n      dup7\n      gas\n      staticcall\n      iszero\n      dup1\n      iszero\n      tag_181\n      jumpi\n      returndatasize\n      0x00\n      dup1\n      returndatacopy\n      revert(0x00, returndatasize)\n    tag_181:\n      pop\n      pop\n      pop\n      pop\n      mload(0x40)\n      returndatasize\n      not(0x1f)\n      0x1f\n      dup3\n      add\n      and\n      dup3\n      add\n      dup1\n      0x40\n      mstore\n      pop\n      dup2\n      add\n      swap1\n      tag_182\n      swap2\n      swap1\n      tag_183\n      jump\t// in\n    tag_182:\n        /* \"contracts/joci.sol\":22549:22609  (uint112 reserve0, uint112 reserve1,) = lpPair.getReserves() */\n      pop\n      swap2\n      pop\n      swap2\n      pop\n        /* \"contracts/joci.sol\":22672:22692  uint256 tokenReserve */\n      0x00\n        /* \"contracts/joci.sol\":22723:22729  lpPair */\n      dup4\n        /* \"contracts/joci.sol\":22723:22736  lpPair.token0 */\n      0xffffffffffffffffffffffffffffffffffffffff\n      and\n      0x0dfe1681\n        /* \"contracts/joci.sol\":22723:22738  lpPair.token0() */\n      mload(0x40)\n      dup2\n      0xffffffff\n      and\n      0xe0\n      shl\n      dup2\n      mstore\n      0x04\n      add\n      0x20\n      mload(0x40)\n      dup1\n      dup4\n      sub\n      dup2\n      dup7\n      gas\n      staticcall\n      iszero\n      dup1\n      iszero\n      tag_185\n      jumpi\n      returndatasize\n      0x00\n      dup1\n      returndatacopy\n      revert(0x00, returndatasize)\n    tag_185:\n      pop\n      pop\n      pop\n      pop\n      mload(0x40)\n      returndatasize\n      not(0x1f)\n      0x1f\n      dup3\n      add\n      and\n      dup3\n      add\n      dup1\n      0x40\n      mstore\n      pop\n      dup2\n      add\n      swap1\n      tag_186\n      swap2\n      swap1\n      tag_187\n      jump\t// in\n    tag_186:\n        /* \"contracts/joci.sol\":22706:22738  address(this) == lpPair.token0() */\n      0xffffffffffffffffffffffffffffffffffffffff\n      and\n        /* \"contracts/joci.sol\":22714:22718  this */\n      address\n        /* \"contracts/joci.sol\":22706:22738  address(this) == lpPair.token0() */\n      0xffffffffffffffffffffffffffffffffffffffff\n      and\n      eq\n        /* \"contracts/joci.sol\":22702:22948  if (address(this) == lpPair.token0()) {... */\n      iszero\n      tag_188\n      jumpi\n        /* \"contracts/joci.sol\":22769:22777  reserve0 */\n      dup3\n        /* \"contracts/joci.sol\":22754:22777  tokenReserve = reserve0 */\n      0xffffffffffffffffffffffffffff\n      and\n      swap1\n      pop\n        /* \"contracts/joci.sol\":22702:22948  if (address(this) == lpPair.token0()) {... */\n      jump(tag_189)\n    tag_188:\n        /* \"contracts/joci.sol\":22815:22821  lpPair */\n      dup4\n        /* \"contracts/joci.sol\":22815:22828  lpPair.token1 */\n      0xffffffffffffffffffffffffffffffffffffffff\n      and\n      0xd21220a7\n        /* \"contracts/joci.sol\":22815:22830  lpPair.token1() */\n      mload(0x40)\n      dup2\n      0xffffffff\n      and\n      0xe0\n      shl\n      dup2\n      mstore\n      0x04\n      add\n      0x20\n      mload(0x40)\n      dup1\n      dup4\n      sub\n      dup2\n      dup7\n      gas\n      staticcall\n      iszero\n      dup1\n      iszero\n      tag_191\n      jumpi\n      returndatasize\n      0x00\n      dup1\n      returndatacopy\n      revert(0x00, returndatasize)\n    tag_191:\n      pop\n      pop\n      pop\n      pop\n      mload(0x40)\n      returndatasize\n      not(0x1f)\n      0x1f\n      dup3\n      add\n      and\n      dup3\n      add\n      dup1\n      0x40\n      mstore\n      pop\n      dup2\n      add\n      swap1\n      tag_192\n      swap2\n      swap1\n      tag_187\n      jump\t// in\n    tag_192:\n        /* \"contracts/joci.sol\":22798:22830  address(this) == lpPair.token1() */\n      0xffffffffffffffffffffffffffffffffffffffff\n      and\n        /* \"contracts/joci.sol\":22806:22810  this */\n      address\n        /* \"contracts/joci.sol\":22798:22830  address(this) == lpPair.token1() */\n      0xffffffffffffffffffffffffffffffffffffffff\n      and\n      eq\n        /* \"contracts/joci.sol\":22794:22948  if (address(this) == lpPair.token1()) {... */\n      iszero\n      tag_193\n      jumpi\n        /* \"contracts/joci.sol\":22861:22869  reserve1 */\n      dup2\n        /* \"contracts/joci.sol\":22846:22869  tokenReserve = reserve1 */\n      0xffffffffffffffffffffffffffff\n      and\n      swap1\n      pop\n        /* \"contracts/joci.sol\":22794:22948  if (address(this) == lpPair.token1()) {... */\n      jump(tag_194)\n    tag_193:\n        /* \"contracts/joci.sol\":22900:22937  revert(\"Token is not part of the LP\") */\n      mload(0x40)\n      0x08c379a000000000000000000000000000000000000000000000000000000000\n      dup2\n      mstore\n      0x04\n      add\n      tag_195\n      swap1\n      tag_196\n      jump\t// in\n    tag_195:\n      mload(0x40)\n      dup1\n      swap2\n      sub\n      swap1\n      revert\n        /* \"contracts/joci.sol\":22794:22948  if (address(this) == lpPair.token1()) {... */\n    tag_194:\n        /* \"contracts/joci.sol\":22702:22948  if (address(this) == lpPair.token0()) {... */\n    tag_189:\n        /* \"contracts/joci.sol\":22958:22988  uint256 onePercentTokenReserve */\n      0x00\n        /* \"contracts/joci.sol\":23006:23009  100 */\n      0x64\n        /* \"contracts/joci.sol\":22991:23003  tokenReserve */\n      dup3\n        /* \"contracts/joci.sol\":22991:23009  tokenReserve / 100 */\n      tag_197\n      swap2\n      swap1\n      tag_198\n      jump\t// in\n    tag_197:\n        /* \"contracts/joci.sol\":22958:23009  uint256 onePercentTokenReserve = tokenReserve / 100 */\n      swap1\n      pop\n        /* \"contracts/joci.sol\":23036:23058  onePercentTokenReserve */\n      dup1\n        /* \"contracts/joci.sol\":23026:23032  amount */\n      dup8\n        /* \"contracts/joci.sol\":23026:23058  amount <= onePercentTokenReserve */\n      gt\n      iszero\n        /* \"contracts/joci.sol\":23019:23058  return amount <= onePercentTokenReserve */\n      swap6\n      pop\n      pop\n      pop\n      pop\n      pop\n      pop\n        /* \"contracts/joci.sol\":22049:23065  function _checkLpTransactionLimit(address to, uint256 amount) private view returns (bool) {... */\n    tag_177:\n      swap3\n      swap2\n      pop\n      pop\n      jump\t// out\n        /* \"contracts/joci.sol\":9192:9478  function transferFrom(... */\n    tag_114:\n        /* \"contracts/joci.sol\":9319:9323  bool */\n      0x00\n        /* \"contracts/joci.sol\":9335:9350  address spender */\n      dup1\n        /* \"contracts/joci.sol\":9353:9365  _msgSender() */\n      tag_200\n        /* \"contracts/joci.sol\":9353:9363  _msgSender */\n      tag_103\n        /* \"contracts/joci.sol\":9353:9365  _msgSender() */\n      jump\t// in\n    tag_200:\n        /* \"contracts/joci.sol\":9335:9365  address spender = _msgSender() */\n      swap1\n      pop\n        /* \"contracts/joci.sol\":9375:9413  _spendAllowance(from, spender, amount) */\n      tag_201\n        /* \"contracts/joci.sol\":9391:9395  from */\n      dup6\n        /* \"contracts/joci.sol\":9397:9404  spender */\n      dup3\n        /* \"contracts/joci.sol\":9406:9412  amount */\n      dup6\n        /* \"contracts/joci.sol\":9375:9390  _spendAllowance */\n      tag_137\n        /* \"contracts/joci.sol\":9375:9413  _spendAllowance(from, spender, amount) */\n      jump\t// in\n    tag_201:\n        /* \"contracts/joci.sol\":9423:9450  _transfer(from, to, amount) */\n      tag_202\n        /* \"contracts/joci.sol\":9433:9437  from */\n      dup6\n        /* \"contracts/joci.sol\":9439:9441  to */\n      dup6\n        /* \"contracts/joci.sol\":9443:9449  amount */\n      dup6\n        /* \"contracts/joci.sol\":9423:9432  _transfer */\n      tag_156\n        /* \"contracts/joci.sol\":9423:9450  _transfer(from, to, amount) */\n      jump\t// in\n    tag_202:\n        /* \"contracts/joci.sol\":9467:9471  true */\n      0x01\n        /* \"contracts/joci.sol\":9460:9471  return true */\n      swap2\n      pop\n      pop\n        /* \"contracts/joci.sol\":9192:9478  function transferFrom(... */\n      swap4\n      swap3\n      pop\n      pop\n      pop\n      jump\t// out\n        /* \"contracts/joci.sol\":13424:14083  function _burn(address account, uint256 amount) internal virtual {... */\n    tag_126:\n        /* \"contracts/joci.sol\":13526:13527  0 */\n      0x00\n        /* \"contracts/joci.sol\":13507:13528  account != address(0) */\n      0xffffffffffffffffffffffffffffffffffffffff\n      and\n        /* \"contracts/joci.sol\":13507:13514  account */\n      dup3\n        /* \"contracts/joci.sol\":13507:13528  account != address(0) */\n      0xffffffffffffffffffffffffffffffffffffffff\n      and\n      eq\n      iszero\n        /* \"contracts/joci.sol\":13499:13566  require(account != address(0), \"ERC20: burn from the zero address\") */\n      tag_204\n      jumpi\n      mload(0x40)\n      0x08c379a000000000000000000000000000000000000000000000000000000000\n      dup2\n      mstore\n      0x04\n      add\n      tag_205\n      swap1\n      tag_206\n      jump\t// in\n    tag_205:\n      mload(0x40)\n      dup1\n      swap2\n      sub\n      swap1\n      revert\n    tag_204:\n        /* \"contracts/joci.sol\":13577:13626  _beforeTokenTransfer(account, address(0), amount) */\n      tag_207\n        /* \"contracts/joci.sol\":13598:13605  account */\n      dup3\n        /* \"contracts/joci.sol\":13615:13616  0 */\n      0x00\n        /* \"contracts/joci.sol\":13619:13625  amount */\n      dup4\n        /* \"contracts/joci.sol\":13577:13597  _beforeTokenTransfer */\n      tag_208\n        /* \"contracts/joci.sol\":13577:13626  _beforeTokenTransfer(account, address(0), amount) */\n      jump\t// in\n    tag_207:\n        /* \"contracts/joci.sol\":13637:13659  uint256 accountBalance */\n      0x00\n        /* \"contracts/joci.sol\":13662:13671  _balances */\n      dup1\n        /* \"contracts/joci.sol\":13662:13680  _balances[account] */\n      0x00\n        /* \"contracts/joci.sol\":13672:13679  account */\n      dup5\n        /* \"contracts/joci.sol\":13662:13680  _balances[account] */\n      0xffffffffffffffffffffffffffffffffffffffff\n      and\n      0xffffffffffffffffffffffffffffffffffffffff\n      and\n      dup2\n      mstore\n      0x20\n      add\n      swap1\n      dup2\n      mstore\n      0x20\n      add\n      0x00\n      keccak256\n      sload\n        /* \"contracts/joci.sol\":13637:13680  uint256 accountBalance = _balances[account] */\n      swap1\n      pop\n        /* \"contracts/joci.sol\":13716:13722  amount */\n      dup2\n        /* \"contracts/joci.sol\":13698:13712  accountBalance */\n      dup2\n        /* \"contracts/joci.sol\":13698:13722  accountBalance >= amount */\n      lt\n      iszero\n        /* \"contracts/joci.sol\":13690:13761  require(accountBalance >= amount, \"ERC20: burn amount exceeds balance\") */\n      tag_209\n      jumpi\n      mload(0x40)\n      0x08c379a000000000000000000000000000000000000000000000000000000000\n      dup2\n      mstore\n      0x04\n      add\n      tag_210\n      swap1\n      tag_211\n      jump\t// in\n    tag_210:\n      mload(0x40)\n      dup1\n      swap2\n      sub\n      swap1\n      revert\n    tag_209:\n        /* \"contracts/joci.sol\":13833:13839  amount */\n      dup2\n        /* \"contracts/joci.sol\":13816:13830  accountBalance */\n      dup2\n        /* \"contracts/joci.sol\":13816:13839  accountBalance - amount */\n      sub\n        /* \"contracts/joci.sol\":13795:13804  _balances */\n      0x00\n        /* \"contracts/joci.sol\":13795:13813  _balances[account] */\n      dup1\n        /* \"contracts/joci.sol\":13805:13812  account */\n      dup6\n        /* \"contracts/joci.sol\":13795:13813  _balances[account] */\n      0xffffffffffffffffffffffffffffffffffffffff\n      and\n      0xffffffffffffffffffffffffffffffffffffffff\n      and\n      dup2\n      mstore\n      0x20\n      add\n      swap1\n      dup2\n      mstore\n      0x20\n      add\n      0x00\n      keccak256\n        /* \"contracts/joci.sol\":13795:13839  _balances[account] = accountBalance - amount */\n      dup2\n      swap1\n      sstore\n      pop\n        /* \"contracts/joci.sol\":13948:13954  amount */\n      dup2\n        /* \"contracts/joci.sol\":13932:13944  _totalSupply */\n      0x02\n      0x00\n        /* \"contracts/joci.sol\":13932:13954  _totalSupply -= amount */\n      dup3\n      dup3\n      sload\n      sub\n      swap3\n      pop\n      pop\n      dup2\n      swap1\n      sstore\n      pop\n        /* \"contracts/joci.sol\":14006:14007  0 */\n      0x00\n        /* \"contracts/joci.sol\":13980:14017  Transfer(account, address(0), amount) */\n      0xffffffffffffffffffffffffffffffffffffffff\n      and\n        /* \"contracts/joci.sol\":13989:13996  account */\n      dup4\n        /* \"contracts/joci.sol\":13980:14017  Transfer(account, address(0), amount) */\n      0xffffffffffffffffffffffffffffffffffffffff\n      and\n      0xddf252ad1be2c89b69c2b068fc378daa952ba7f163c4a11628f55a4df523b3ef\n        /* \"contracts/joci.sol\":14010:14016  amount */\n      dup5\n        /* \"contracts/joci.sol\":13980:14017  Transfer(account, address(0), amount) */\n      mload(0x40)\n      tag_212\n      swap2\n      swap1\n      tag_37\n      jump\t// in\n    tag_212:\n      mload(0x40)\n      dup1\n      swap2\n      sub\n      swap1\n      log3\n        /* \"contracts/joci.sol\":14028:14076  _afterTokenTransfer(account, address(0), amount) */\n      tag_213\n        /* \"contracts/joci.sol\":14048:14055  account */\n      dup4\n        /* \"contracts/joci.sol\":14065:14066  0 */\n      0x00\n        /* \"contracts/joci.sol\":14069:14075  amount */\n      dup5\n        /* \"contracts/joci.sol\":14028:14047  _afterTokenTransfer */\n      tag_214\n        /* \"contracts/joci.sol\":14028:14076  _afterTokenTransfer(account, address(0), amount) */\n      jump\t// in\n    tag_213:\n        /* \"contracts/joci.sol\":13489:14083  {... */\n      pop\n        /* \"contracts/joci.sol\":13424:14083  function _burn(address account, uint256 amount) internal virtual {... */\n      pop\n      pop\n      jump\t// out\n        /* \"contracts/joci.sol\":19305:19435  function _checkOwner() internal view virtual {... */\n    tag_130:\n        /* \"contracts/joci.sol\":19379:19391  _msgSender() */\n      tag_216\n        /* \"contracts/joci.sol\":19379:19389  _msgSender */\n      tag_103\n        /* \"contracts/joci.sol\":19379:19391  _msgSender() */\n      jump\t// in\n    tag_216:\n        /* \"contracts/joci.sol\":19368:19391  owner() == _msgSender() */\n      0xffffffffffffffffffffffffffffffffffffffff\n      and\n        /* \"contracts/joci.sol\":19368:19375  owner() */\n      tag_217\n        /* \"contracts/joci.sol\":19368:19373  owner */\n      tag_70\n        /* \"contracts/joci.sol\":19368:19375  owner() */\n      jump\t// in\n    tag_217:\n        /* \"contracts/joci.sol\":19368:19391  owner() == _msgSender() */\n      0xffffffffffffffffffffffffffffffffffffffff\n      and\n      eq\n        /* \"contracts/joci.sol\":19360:19428  require(owner() == _msgSender(), \"Ownable: caller is not the owner\") */\n      tag_218\n      jumpi\n      mload(0x40)\n      0x08c379a000000000000000000000000000000000000000000000000000000000\n      dup2\n      mstore\n      0x04\n      add\n      tag_219\n      swap1\n      tag_220\n      jump\t// in\n    tag_219:\n      mload(0x40)\n      dup1\n      swap2\n      sub\n      swap1\n      revert\n    tag_218:\n        /* \"contracts/joci.sol\":19305:19435  function _checkOwner() internal view virtual {... */\n      jump\t// out\n        /* \"contracts/joci.sol\":20379:20566  function _transferOwnership(address newOwner) internal virtual {... */\n    tag_133:\n        /* \"contracts/joci.sol\":20452:20468  address oldOwner */\n      0x00\n        /* \"contracts/joci.sol\":20471:20477  _owner */\n      0x05\n      0x00\n      swap1\n      sload\n      swap1\n      0x0100\n      exp\n      swap1\n      div\n      0xffffffffffffffffffffffffffffffffffffffff\n      and\n        /* \"contracts/joci.sol\":20452:20477  address oldOwner = _owner */\n      swap1\n      pop\n        /* \"contracts/joci.sol\":20496:20504  newOwner */\n      dup2\n        /* \"contracts/joci.sol\":20487:20493  _owner */\n      0x05\n      0x00\n        /* \"contracts/joci.sol\":20487:20504  _owner = newOwner */\n      0x0100\n      exp\n      dup2\n      sload\n      dup2\n      0xffffffffffffffffffffffffffffffffffffffff\n      mul\n      not\n      and\n      swap1\n      dup4\n      0xffffffffffffffffffffffffffffffffffffffff\n      and\n      mul\n      or\n      swap1\n      sstore\n      pop\n        /* \"contracts/joci.sol\":20550:20558  newOwner */\n      dup2\n        /* \"contracts/joci.sol\":20519:20559  OwnershipTransferred(oldOwner, newOwner) */\n      0xffffffffffffffffffffffffffffffffffffffff\n      and\n        /* \"contracts/joci.sol\":20540:20548  oldOwner */\n      dup2\n        /* \"contracts/joci.sol\":20519:20559  OwnershipTransferred(oldOwner, newOwner) */\n      0xffffffffffffffffffffffffffffffffffffffff\n      and\n      0x8be0079c531659141344cd1fd0a4f28419497f9722a3daafe3b4186f6b6457e0\n      mload(0x40)\n      mload(0x40)\n      dup1\n      swap2\n      sub\n      swap1\n      log3\n        /* \"contracts/joci.sol\":20442:20566  {... */\n      pop\n        /* \"contracts/joci.sol\":20379:20566  function _transferOwnership(address newOwner) internal virtual {... */\n      pop\n      jump\t// out\n        /* \"contracts/joci.sol\":15157:15598  function _spendAllowance(... */\n    tag_137:\n        /* \"contracts/joci.sol\":15287:15311  uint256 currentAllowance */\n      0x00\n        /* \"contracts/joci.sol\":15314:15339  allowance(owner, spender) */\n      tag_223\n        /* \"contracts/joci.sol\":15324:15329  owner */\n      dup5\n        /* \"contracts/joci.sol\":15331:15338  spender */\n      dup5\n        /* \"contracts/joci.sol\":15314:15323  allowance */\n      tag_86\n        /* \"contracts/joci.sol\":15314:15339  allowance(owner, spender) */\n      jump\t// in\n    tag_223:\n        /* \"contracts/joci.sol\":15287:15339  uint256 currentAllowance = allowance(owner, spender) */\n      swap1\n      pop\n        /* \"contracts/joci.sol\":15373:15390  type(uint256).max */\n      0xffffffffffffffffffffffffffffffffffffffffffffffffffffffffffffffff\n        /* \"contracts/joci.sol\":15353:15369  currentAllowance */\n      dup2\n        /* \"contracts/joci.sol\":15353:15390  currentAllowance != type(uint256).max */\n      eq\n        /* \"contracts/joci.sol\":15349:15592  if (currentAllowance != type(uint256).max) {... */\n      tag_224\n      jumpi\n        /* \"contracts/joci.sol\":15434:15440  amount */\n      dup2\n        /* \"contracts/joci.sol\":15414:15430  currentAllowance */\n      dup2\n        /* \"contracts/joci.sol\":15414:15440  currentAllowance >= amount */\n      lt\n      iszero\n        /* \"contracts/joci.sol\":15406:15474  require(currentAllowance >= amount, \"ERC20: insufficient allowance\") */\n      tag_225\n      jumpi\n      mload(0x40)\n      0x08c379a000000000000000000000000000000000000000000000000000000000\n      dup2\n      mstore\n      0x04\n      add\n      tag_226\n      swap1\n      tag_227\n      jump\t// in\n    tag_226:\n      mload(0x40)\n      dup1\n      swap2\n      sub\n      swap1\n      revert\n    tag_225:\n        /* \"contracts/joci.sol\":15516:15567  _approve(owner, spender, currentAllowance - amount) */\n      tag_228\n        /* \"contracts/joci.sol\":15525:15530  owner */\n      dup5\n        /* \"contracts/joci.sol\":15532:15539  spender */\n      dup5\n        /* \"contracts/joci.sol\":15560:15566  amount */\n      dup5\n        /* \"contracts/joci.sol\":15541:15557  currentAllowance */\n      dup5\n        /* \"contracts/joci.sol\":15541:15566  currentAllowance - amount */\n      sub\n        /* \"contracts/joci.sol\":15516:15524  _approve */\n      tag_105\n        /* \"contracts/joci.sol\":15516:15567  _approve(owner, spender, currentAllowance - amount) */\n      jump\t// in\n    tag_228:\n        /* \"contracts/joci.sol\":15349:15592  if (currentAllowance != type(uint256).max) {... */\n    tag_224:\n        /* \"contracts/joci.sol\":15277:15598  {... */\n      pop\n        /* \"contracts/joci.sol\":15157:15598  function _spendAllowance(... */\n      pop\n      pop\n      pop\n      jump\t// out\n        /* \"contracts/joci.sol\":11475:12293  function _transfer(... */\n    tag_156:\n        /* \"contracts/joci.sol\":11617:11618  0 */\n      0x00\n        /* \"contracts/joci.sol\":11601:11619  from != address(0) */\n      0xffffffffffffffffffffffffffffffffffffffff\n      and\n        /* \"contracts/joci.sol\":11601:11605  from */\n      dup4\n        /* \"contracts/joci.sol\":11601:11619  from != address(0) */\n      0xffffffffffffffffffffffffffffffffffffffff\n      and\n      eq\n      iszero\n        /* \"contracts/joci.sol\":11593:11661  require(from != address(0), \"ERC20: transfer from the zero address\") */\n      tag_230\n      jumpi\n      mload(0x40)\n      0x08c379a000000000000000000000000000000000000000000000000000000000\n      dup2\n      mstore\n      0x04\n      add\n      tag_231\n      swap1\n      tag_232\n      jump\t// in\n    tag_231:\n      mload(0x40)\n      dup1\n      swap2\n      sub\n      swap1\n      revert\n    tag_230:\n        /* \"contracts/joci.sol\":11693:11694  0 */\n      0x00\n        /* \"contracts/joci.sol\":11679:11695  to != address(0) */\n      0xffffffffffffffffffffffffffffffffffffffff\n      and\n        /* \"contracts/joci.sol\":11679:11681  to */\n      dup3\n        /* \"contracts/joci.sol\":11679:11695  to != address(0) */\n      0xffffffffffffffffffffffffffffffffffffffff\n      and\n      eq\n      iszero\n        /* \"contracts/joci.sol\":11671:11735  require(to != address(0), \"ERC20: transfer to the zero address\") */\n      tag_233\n      jumpi\n      mload(0x40)\n      0x08c379a000000000000000000000000000000000000000000000000000000000\n      dup2\n      mstore\n      0x04\n      add\n      tag_234\n      swap1\n      tag_235\n      jump\t// in\n    tag_234:\n      mload(0x40)\n      dup1\n      swap2\n      sub\n      swap1\n      revert\n    tag_233:\n        /* \"contracts/joci.sol\":11746:11784  _beforeTokenTransfer(from, to, amount) */\n      tag_236\n        /* \"contracts/joci.sol\":11767:11771  from */\n      dup4\n        /* \"contracts/joci.sol\":11773:11775  to */\n      dup4\n        /* \"contracts/joci.sol\":11777:11783  amount */\n      dup4\n        /* \"contracts/joci.sol\":11746:11766  _beforeTokenTransfer */\n      tag_208\n        /* \"contracts/joci.sol\":11746:11784  _beforeTokenTransfer(from, to, amount) */\n      jump\t// in\n    tag_236:\n        /* \"contracts/joci.sol\":11795:11814  uint256 fromBalance */\n      0x00\n        /* \"contracts/joci.sol\":11817:11826  _balances */\n      dup1\n        /* \"contracts/joci.sol\":11817:11832  _balances[from] */\n      0x00\n        /* \"contracts/joci.sol\":11827:11831  from */\n      dup6\n        /* \"contracts/joci.sol\":11817:11832  _balances[from] */\n      0xffffffffffffffffffffffffffffffffffffffff\n      and\n      0xffffffffffffffffffffffffffffffffffffffff\n      and\n      dup2\n      mstore\n      0x20\n      add\n      swap1\n      dup2\n      mstore\n      0x20\n      add\n      0x00\n      keccak256\n      sload\n        /* \"contracts/joci.sol\":11795:11832  uint256 fromBalance = _balances[from] */\n      swap1\n      pop\n        /* \"contracts/joci.sol\":11865:11871  amount */\n      dup2\n        /* \"contracts/joci.sol\":11850:11861  fromBalance */\n      dup2\n        /* \"contracts/joci.sol\":11850:11871  fromBalance >= amount */\n      lt\n      iszero\n        /* \"contracts/joci.sol\":11842:11914  require(fromBalance >= amount, \"ERC20: transfer amount exceeds balance\") */\n      tag_237\n      jumpi\n      mload(0x40)\n      0x08c379a000000000000000000000000000000000000000000000000000000000\n      dup2\n      mstore\n      0x04\n      add\n      tag_238\n      swap1\n      tag_239\n      jump\t// in\n    tag_238:\n      mload(0x40)\n      dup1\n      swap2\n      sub\n      swap1\n      revert\n    tag_237:\n        /* \"contracts/joci.sol\":11980:11986  amount */\n      dup2\n        /* \"contracts/joci.sol\":11966:11977  fromBalance */\n      dup2\n        /* \"contracts/joci.sol\":11966:11986  fromBalance - amount */\n      sub\n        /* \"contracts/joci.sol\":11948:11957  _balances */\n      0x00\n        /* \"contracts/joci.sol\":11948:11963  _balances[from] */\n      dup1\n        /* \"contracts/joci.sol\":11958:11962  from */\n      dup7\n        /* \"contracts/joci.sol\":11948:11963  _balances[from] */\n      0xffffffffffffffffffffffffffffffffffffffff\n      and\n      0xffffffffffffffffffffffffffffffffffffffff\n      and\n      dup2\n      mstore\n      0x20\n      add\n      swap1\n      dup2\n      mstore\n      0x20\n      add\n      0x00\n      keccak256\n        /* \"contracts/joci.sol\":11948:11986  _balances[from] = fromBalance - amount */\n      dup2\n      swap1\n      sstore\n      pop\n        /* \"contracts/joci.sol\":12180:12186  amount */\n      dup2\n        /* \"contracts/joci.sol\":12163:12172  _balances */\n      0x00\n        /* \"contracts/joci.sol\":12163:12176  _balances[to] */\n      dup1\n        /* \"contracts/joci.sol\":12173:12175  to */\n      dup6\n        /* \"contracts/joci.sol\":12163:12176  _balances[to] */\n      0xffffffffffffffffffffffffffffffffffffffff\n      and\n      0xffffffffffffffffffffffffffffffffffffffff\n      and\n      dup2\n      mstore\n      0x20\n      add\n      swap1\n      dup2\n      mstore\n      0x20\n      add\n      0x00\n      keccak256\n      0x00\n        /* \"contracts/joci.sol\":12163:12186  _balances[to] += amount */\n      dup3\n      dup3\n      sload\n      add\n      swap3\n      pop\n      pop\n      dup2\n      swap1\n      sstore\n      pop\n        /* \"contracts/joci.sol\":12227:12229  to */\n      dup3\n        /* \"contracts/joci.sol\":12212:12238  Transfer(from, to, amount) */\n      0xffffffffffffffffffffffffffffffffffffffff\n      and\n        /* \"contracts/joci.sol\":12221:12225  from */\n      dup5\n        /* \"contracts/joci.sol\":12212:12238  Transfer(from, to, amount) */\n      0xffffffffffffffffffffffffffffffffffffffff\n      and\n      0xddf252ad1be2c89b69c2b068fc378daa952ba7f163c4a11628f55a4df523b3ef\n        /* \"contracts/joci.sol\":12231:12237  amount */\n      dup5\n        /* \"contracts/joci.sol\":12212:12238  Transfer(from, to, amount) */\n      mload(0x40)\n      tag_240\n      swap2\n      swap1\n      tag_37\n      jump\t// in\n    tag_240:\n      mload(0x40)\n      dup1\n      swap2\n      sub\n      swap1\n      log3\n        /* \"contracts/joci.sol\":12249:12286  _afterTokenTransfer(from, to, amount) */\n      tag_241\n        /* \"contracts/joci.sol\":12269:12273  from */\n      dup5\n        /* \"contracts/joci.sol\":12275:12277  to */\n      dup5\n        /* \"contracts/joci.sol\":12279:12285  amount */\n      dup5\n        /* \"contracts/joci.sol\":12249:12268  _afterTokenTransfer */\n      tag_214\n        /* \"contracts/joci.sol\":12249:12286  _afterTokenTransfer(from, to, amount) */\n      jump\t// in\n    tag_241:\n        /* \"contracts/joci.sol\":11583:12293  {... */\n      pop\n        /* \"contracts/joci.sol\":11475:12293  function _transfer(... */\n      pop\n      pop\n      pop\n      jump\t// out\n        /* \"contracts/joci.sol\":16182:16303  function _beforeTokenTransfer(... */\n    tag_208:\n      pop\n      pop\n      pop\n      jump\t// out\n        /* \"contracts/joci.sol\":16891:17011  function _afterTokenTransfer(... */\n    tag_214:\n      pop\n      pop\n      pop\n      jump\t// out\n        /* \"#utility.yul\":7:106   */\n    tag_244:\n        /* \"#utility.yul\":59:65   */\n      0x00\n        /* \"#utility.yul\":93:98   */\n      dup2\n        /* \"#utility.yul\":87:99   */\n      mload\n        /* \"#utility.yul\":77:99   */\n      swap1\n      pop\n        /* \"#utility.yul\":7:106   */\n      swap2\n      swap1\n      pop\n      jump\t// out\n        /* \"#utility.yul\":112:281   */\n    tag_245:\n        /* \"#utility.yul\":196:207   */\n      0x00\n        /* \"#utility.yul\":230:236   */\n      dup3\n        /* \"#utility.yul\":225:228   */\n      dup3\n        /* \"#utility.yul\":218:237   */\n      mstore\n        /* \"#utility.yul\":270:274   */\n      0x20\n        /* \"#utility.yul\":265:268   */\n      dup3\n        /* \"#utility.yul\":261:275   */\n      add\n        /* \"#utility.yul\":246:275   */\n      swap1\n      pop\n        /* \"#utility.yul\":112:281   */\n      swap3\n      swap2\n      pop\n      pop\n      jump\t// out\n        /* \"#utility.yul\":287:594   */\n    tag_246:\n        /* \"#utility.yul\":355:356   */\n      0x00\n        /* \"#utility.yul\":365:478   */\n    tag_305:\n        /* \"#utility.yul\":379:385   */\n      dup4\n        /* \"#utility.yul\":376:377   */\n      dup2\n        /* \"#utility.yul\":373:386   */\n      lt\n        /* \"#utility.yul\":365:478   */\n      iszero\n      tag_307\n      jumpi\n        /* \"#utility.yul\":464:465   */\n      dup1\n        /* \"#utility.yul\":459:462   */\n      dup3\n        /* \"#utility.yul\":455:466   */\n      add\n        /* \"#utility.yul\":449:467   */\n      mload\n        /* \"#utility.yul\":445:446   */\n      dup2\n        /* \"#utility.yul\":440:443   */\n      dup5\n        /* \"#utility.yul\":436:447   */\n      add\n        /* \"#utility.yul\":429:468   */\n      mstore\n        /* \"#utility.yul\":401:403   */\n      0x20\n        /* \"#utility.yul\":398:399   */\n      dup2\n        /* \"#utility.yul\":394:404   */\n      add\n        /* \"#utility.yul\":389:404   */\n      swap1\n      pop\n        /* \"#utility.yul\":365:478   */\n      jump(tag_305)\n    tag_307:\n        /* \"#utility.yul\":496:502   */\n      dup4\n        /* \"#utility.yul\":493:494   */\n      dup2\n        /* \"#utility.yul\":490:503   */\n      gt\n        /* \"#utility.yul\":487:588   */\n      iszero\n      tag_308\n      jumpi\n        /* \"#utility.yul\":576:577   */\n      0x00\n        /* \"#utility.yul\":567:573   */\n      dup5\n        /* \"#utility.yul\":562:565   */\n      dup5\n        /* \"#utility.yul\":558:574   */\n      add\n        /* \"#utility.yul\":551:578   */\n      mstore\n        /* \"#utility.yul\":487:588   */\n    tag_308:\n        /* \"#utility.yul\":336:594   */\n      pop\n        /* \"#utility.yul\":287:594   */\n      pop\n      pop\n      pop\n      jump\t// out\n        /* \"#utility.yul\":600:702   */\n    tag_247:\n        /* \"#utility.yul\":641:647   */\n      0x00\n        /* \"#utility.yul\":692:694   */\n      0x1f\n        /* \"#utility.yul\":688:695   */\n      not\n        /* \"#utility.yul\":683:685   */\n      0x1f\n        /* \"#utility.yul\":676:681   */\n      dup4\n        /* \"#utility.yul\":672:686   */\n      add\n        /* \"#utility.yul\":668:696   */\n      and\n        /* \"#utility.yul\":658:696   */\n      swap1\n      pop\n        /* \"#utility.yul\":600:702   */\n      swap2\n      swap1\n      pop\n      jump\t// out\n        /* \"#utility.yul\":708:1072   */\n    tag_248:\n        /* \"#utility.yul\":796:799   */\n      0x00\n        /* \"#utility.yul\":824:863   */\n      tag_311\n        /* \"#utility.yul\":857:862   */\n      dup3\n        /* \"#utility.yul\":824:863   */\n      tag_244\n      jump\t// in\n    tag_311:\n        /* \"#utility.yul\":879:950   */\n      tag_312\n        /* \"#utility.yul\":943:949   */\n      dup2\n        /* \"#utility.yul\":938:941   */\n      dup6\n        /* \"#utility.yul\":879:950   */\n      tag_245\n      jump\t// in\n    tag_312:\n        /* \"#utility.yul\":872:950   */\n      swap4\n      pop\n        /* \"#utility.yul\":959:1011   */\n      tag_313\n        /* \"#utility.yul\":1004:1010   */\n      dup2\n        /* \"#utility.yul\":999:1002   */\n      dup6\n        /* \"#utility.yul\":992:996   */\n      0x20\n        /* \"#utility.yul\":985:990   */\n      dup7\n        /* \"#utility.yul\":981:997   */\n      add\n        /* \"#utility.yul\":959:1011   */\n      tag_246\n      jump\t// in\n    tag_313:\n        /* \"#utility.yul\":1036:1065   */\n      tag_314\n        /* \"#utility.yul\":1058:1064   */\n      dup2\n        /* \"#utility.yul\":1036:1065   */\n      tag_247\n      jump\t// in\n    tag_314:\n        /* \"#utility.yul\":1031:1034   */\n      dup5\n        /* \"#utility.yul\":1027:1066   */\n      add\n        /* \"#utility.yul\":1020:1066   */\n      swap2\n      pop\n        /* \"#utility.yul\":800:1072   */\n      pop\n        /* \"#utility.yul\":708:1072   */\n      swap3\n      swap2\n      pop\n      pop\n      jump\t// out\n        /* \"#utility.yul\":1078:1391   */\n    tag_27:\n        /* \"#utility.yul\":1191:1195   */\n      0x00\n        /* \"#utility.yul\":1229:1231   */\n      0x20\n        /* \"#utility.yul\":1218:1227   */\n      dup3\n        /* \"#utility.yul\":1214:1232   */\n      add\n        /* \"#utility.yul\":1206:1232   */\n      swap1\n      pop\n        /* \"#utility.yul\":1278:1287   */\n      dup2\n        /* \"#utility.yul\":1272:1276   */\n      dup2\n        /* \"#utility.yul\":1268:1288   */\n      sub\n        /* \"#utility.yul\":1264:1265   */\n      0x00\n        /* \"#utility.yul\":1253:1262   */\n      dup4\n        /* \"#utility.yul\":1249:1266   */\n      add\n        /* \"#utility.yul\":1242:1289   */\n      mstore\n        /* \"#utility.yul\":1306:1384   */\n      tag_316\n        /* \"#utility.yul\":1379:1383   */\n      dup2\n        /* \"#utility.yul\":1370:1376   */\n      dup5\n        /* \"#utility.yul\":1306:1384   */\n      tag_248\n      jump\t// in\n    tag_316:\n        /* \"#utility.yul\":1298:1384   */\n      swap1\n      pop\n        /* \"#utility.yul\":1078:1391   */\n      swap3\n      swap2\n      pop\n      pop\n      jump\t// out\n        /* \"#utility.yul\":1478:1595   */\n    tag_250:\n        /* \"#utility.yul\":1587:1588   */\n      0x00\n        /* \"#utility.yul\":1584:1585   */\n      dup1\n        /* \"#utility.yul\":1577:1589   */\n      revert\n        /* \"#utility.yul\":1724:1850   */\n    tag_252:\n        /* \"#utility.yul\":1761:1768   */\n      0x00\n        /* \"#utility.yul\":1801:1843   */\n      0xffffffffffffffffffffffffffffffffffffffff\n        /* \"#utility.yul\":1794:1799   */\n      dup3\n        /* \"#utility.yul\":1790:1844   */\n      and\n        /* \"#utility.yul\":1779:1844   */\n      swap1\n      pop\n        /* \"#utility.yul\":1724:1850   */\n      swap2\n      swap1\n      pop\n      jump\t// out\n        /* \"#utility.yul\":1856:1952   */\n    tag_253:\n        /* \"#utility.yul\":1893:1900   */\n      0x00\n        /* \"#utility.yul\":1922:1946   */\n      tag_322\n        /* \"#utility.yul\":1940:1945   */\n      dup3\n        /* \"#utility.yul\":1922:1946   */\n      tag_252\n      jump\t// in\n    tag_322:\n        /* \"#utility.yul\":1911:1946   */\n      swap1\n      pop\n        /* \"#utility.yul\":1856:1952   */\n      swap2\n      swap1\n      pop\n      jump\t// out\n        /* \"#utility.yul\":1958:2080   */\n    tag_254:\n        /* \"#utility.yul\":2031:2055   */\n      tag_324\n        /* \"#utility.yul\":2049:2054   */\n      dup2\n        /* \"#utility.yul\":2031:2055   */\n      tag_253\n      jump\t// in\n    tag_324:\n        /* \"#utility.yul\":2024:2029   */\n      dup2\n        /* \"#utility.yul\":2021:2056   */\n      eq\n        /* \"#utility.yul\":2011:2074   */\n      tag_325\n      jumpi\n        /* \"#utility.yul\":2070:2071   */\n      0x00\n        /* \"#utility.yul\":2067:2068   */\n      dup1\n        /* \"#utility.yul\":2060:2072   */\n      revert\n        /* \"#utility.yul\":2011:2074   */\n    tag_325:\n        /* \"#utility.yul\":1958:2080   */\n      pop\n      jump\t// out\n        /* \"#utility.yul\":2086:2225   */\n    tag_255:\n        /* \"#utility.yul\":2132:2137   */\n      0x00\n        /* \"#utility.yul\":2170:2176   */\n      dup2\n        /* \"#utility.yul\":2157:2177   */\n      calldataload\n        /* \"#utility.yul\":2148:2177   */\n      swap1\n      pop\n        /* \"#utility.yul\":2186:2219   */\n      tag_327\n        /* \"#utility.yul\":2213:2218   */\n      dup2\n        /* \"#utility.yul\":2186:2219   */\n      tag_254\n      jump\t// in\n    tag_327:\n        /* \"#utility.yul\":2086:2225   */\n      swap3\n      swap2\n      pop\n      pop\n      jump\t// out\n        /* \"#utility.yul\":2231:2308   */\n    tag_256:\n        /* \"#utility.yul\":2268:2275   */\n      0x00\n        /* \"#utility.yul\":2297:2302   */\n      dup2\n        /* \"#utility.yul\":2286:2302   */\n      swap1\n      pop\n        /* \"#utility.yul\":2231:2308   */\n      swap2\n      swap1\n      pop\n      jump\t// out\n        /* \"#utility.yul\":2314:2436   */\n    tag_257:\n        /* \"#utility.yul\":2387:2411   */\n      tag_330\n        /* \"#utility.yul\":2405:2410   */\n      dup2\n        /* \"#utility.yul\":2387:2411   */\n      tag_256\n      jump\t// in\n    tag_330:\n        /* \"#utility.yul\":2380:2385   */\n      dup2\n        /* \"#utility.yul\":2377:2412   */\n      eq\n        /* \"#utility.yul\":2367:2430   */\n      tag_331\n      jumpi\n        /* \"#utility.yul\":2426:2427   */\n      0x00\n        /* \"#utility.yul\":2423:2424   */\n      dup1\n        /* \"#utility.yul\":2416:2428   */\n      revert\n        /* \"#utility.yul\":2367:2430   */\n    tag_331:\n        /* \"#utility.yul\":2314:2436   */\n      pop\n      jump\t// out\n        /* \"#utility.yul\":2442:2581   */\n    tag_258:\n        /* \"#utility.yul\":2488:2493   */\n      0x00\n        /* \"#utility.yul\":2526:2532   */\n      dup2\n        /* \"#utility.yul\":2513:2533   */\n      calldataload\n        /* \"#utility.yul\":2504:2533   */\n      swap1\n      pop\n        /* \"#utility.yul\":2542:2575   */\n      tag_333\n        /* \"#utility.yul\":2569:2574   */\n      dup2\n        /* \"#utility.yul\":2542:2575   */\n      tag_257\n      jump\t// in\n    tag_333:\n        /* \"#utility.yul\":2442:2581   */\n      swap3\n      swap2\n      pop\n      pop\n      jump\t// out\n        /* \"#utility.yul\":2587:3061   */\n    tag_30:\n        /* \"#utility.yul\":2655:2661   */\n      0x00\n        /* \"#utility.yul\":2663:2669   */\n      dup1\n        /* \"#utility.yul\":2712:2714   */\n      0x40\n        /* \"#utility.yul\":2700:2709   */\n      dup4\n        /* \"#utility.yul\":2691:2698   */\n      dup6\n        /* \"#utility.yul\":2687:2710   */\n      sub\n        /* \"#utility.yul\":2683:2715   */\n      slt\n        /* \"#utility.yul\":2680:2799   */\n      iszero\n      tag_335\n      jumpi\n        /* \"#utility.yul\":2718:2797   */\n      tag_336\n      tag_250\n      jump\t// in\n    tag_336:\n        /* \"#utility.yul\":2680:2799   */\n    tag_335:\n        /* \"#utility.yul\":2838:2839   */\n      0x00\n        /* \"#utility.yul\":2863:2916   */\n      tag_337\n        /* \"#utility.yul\":2908:2915   */\n      dup6\n        /* \"#utility.yul\":2899:2905   */\n      dup3\n        /* \"#utility.yul\":2888:2897   */\n      dup7\n        /* \"#utility.yul\":2884:2906   */\n      add\n        /* \"#utility.yul\":2863:2916   */\n      tag_255\n      jump\t// in\n    tag_337:\n        /* \"#utility.yul\":2853:2916   */\n      swap3\n      pop\n        /* \"#utility.yul\":2809:2926   */\n      pop\n        /* \"#utility.yul\":2965:2967   */\n      0x20\n        /* \"#utility.yul\":2991:3044   */\n      tag_338\n        /* \"#utility.yul\":3036:3043   */\n      dup6\n        /* \"#utility.yul\":3027:3033   */\n      dup3\n        /* \"#utility.yul\":3016:3025   */\n      dup7\n        /* \"#utility.yul\":3012:3034   */\n      add\n        /* \"#utility.yul\":2991:3044   */\n      tag_258\n      jump\t// in\n    tag_338:\n        /* \"#utility.yul\":2981:3044   */\n      swap2\n      pop\n        /* \"#utility.yul\":2936:3054   */\n      pop\n        /* \"#utility.yul\":2587:3061   */\n      swap3\n      pop\n      swap3\n      swap1\n      pop\n      jump\t// out\n        /* \"#utility.yul\":3067:3157   */\n    tag_259:\n        /* \"#utility.yul\":3101:3108   */\n      0x00\n        /* \"#utility.yul\":3144:3149   */\n      dup2\n        /* \"#utility.yul\":3137:3150   */\n      iszero\n        /* \"#utility.yul\":3130:3151   */\n      iszero\n        /* \"#utility.yul\":3119:3151   */\n      swap1\n      pop\n        /* \"#utility.yul\":3067:3157   */\n      swap2\n      swap1\n      pop\n      jump\t// out\n        /* \"#utility.yul\":3163:3272   */\n    tag_260:\n        /* \"#utility.yul\":3244:3265   */\n      tag_341\n        /* \"#utility.yul\":3259:3264   */\n      dup2\n        /* \"#utility.yul\":3244:3265   */\n      tag_259\n      jump\t// in\n    tag_341:\n        /* \"#utility.yul\":3239:3242   */\n      dup3\n        /* \"#utility.yul\":3232:3266   */\n      mstore\n        /* \"#utility.yul\":3163:3272   */\n      pop\n      pop\n      jump\t// out\n        /* \"#utility.yul\":3278:3488   */\n    tag_33:\n        /* \"#utility.yul\":3365:3369   */\n      0x00\n        /* \"#utility.yul\":3403:3405   */\n      0x20\n        /* \"#utility.yul\":3392:3401   */\n      dup3\n        /* \"#utility.yul\":3388:3406   */\n      add\n        /* \"#utility.yul\":3380:3406   */\n      swap1\n      pop\n        /* \"#utility.yul\":3416:3481   */\n      tag_343\n        /* \"#utility.yul\":3478:3479   */\n      0x00\n        /* \"#utility.yul\":3467:3476   */\n      dup4\n        /* \"#utility.yul\":3463:3480   */\n      add\n        /* \"#utility.yul\":3454:3460   */\n      dup5\n        /* \"#utility.yul\":3416:3481   */\n      tag_260\n      jump\t// in\n    tag_343:\n        /* \"#utility.yul\":3278:3488   */\n      swap3\n      swap2\n      pop\n      pop\n      jump\t// out\n        /* \"#utility.yul\":3494:3612   */\n    tag_261:\n        /* \"#utility.yul\":3581:3605   */\n      tag_345\n        /* \"#utility.yul\":3599:3604   */\n      dup2\n        /* \"#utility.yul\":3581:3605   */\n      tag_256\n      jump\t// in\n    tag_345:\n        /* \"#utility.yul\":3576:3579   */\n      dup3\n        /* \"#utility.yul\":3569:3606   */\n      mstore\n        /* \"#utility.yul\":3494:3612   */\n      pop\n      pop\n      jump\t// out\n        /* \"#utility.yul\":3618:3840   */\n    tag_37:\n        /* \"#utility.yul\":3711:3715   */\n      0x00\n        /* \"#utility.yul\":3749:3751   */\n      0x20\n        /* \"#utility.yul\":3738:3747   */\n      dup3\n        /* \"#utility.yul\":3734:3752   */\n      add\n        /* \"#utility.yul\":3726:3752   */\n      swap1\n      pop\n        /* \"#utility.yul\":3762:3833   */\n      tag_347\n        /* \"#utility.yul\":3830:3831   */\n      0x00\n        /* \"#utility.yul\":3819:3828   */\n      dup4\n        /* \"#utility.yul\":3815:3832   */\n      add\n        /* \"#utility.yul\":3806:3812   */\n      dup5\n        /* \"#utility.yul\":3762:3833   */\n      tag_261\n      jump\t// in\n    tag_347:\n        /* \"#utility.yul\":3618:3840   */\n      swap3\n      swap2\n      pop\n      pop\n      jump\t// out\n        /* \"#utility.yul\":3846:4465   */\n    tag_40:\n        /* \"#utility.yul\":3923:3929   */\n      0x00\n        /* \"#utility.yul\":3931:3937   */\n      dup1\n        /* \"#utility.yul\":3939:3945   */\n      0x00\n        /* \"#utility.yul\":3988:3990   */\n      0x60\n        /* \"#utility.yul\":3976:3985   */\n      dup5\n        /* \"#utility.yul\":3967:3974   */\n      dup7\n        /* \"#utility.yul\":3963:3986   */\n      sub\n        /* \"#utility.yul\":3959:3991   */\n      slt\n        /* \"#utility.yul\":3956:4075   */\n      iszero\n      tag_349\n      jumpi\n        /* \"#utility.yul\":3994:4073   */\n      tag_350\n      tag_250\n      jump\t// in\n    tag_350:\n        /* \"#utility.yul\":3956:4075   */\n    tag_349:\n        /* \"#utility.yul\":4114:4115   */\n      0x00\n        /* \"#utility.yul\":4139:4192   */\n      tag_351\n        /* \"#utility.yul\":4184:4191   */\n      dup7\n        /* \"#utility.yul\":4175:4181   */\n      dup3\n        /* \"#utility.yul\":4164:4173   */\n      dup8\n        /* \"#utility.yul\":4160:4182   */\n      add\n        /* \"#utility.yul\":4139:4192   */\n      tag_255\n      jump\t// in\n    tag_351:\n        /* \"#utility.yul\":4129:4192   */\n      swap4\n      pop\n        /* \"#utility.yul\":4085:4202   */\n      pop\n        /* \"#utility.yul\":4241:4243   */\n      0x20\n        /* \"#utility.yul\":4267:4320   */\n      tag_352\n        /* \"#utility.yul\":4312:4319   */\n      dup7\n        /* \"#utility.yul\":4303:4309   */\n      dup3\n        /* \"#utility.yul\":4292:4301   */\n      dup8\n        /* \"#utility.yul\":4288:4310   */\n      add\n        /* \"#utility.yul\":4267:4320   */\n      tag_255\n      jump\t// in\n    tag_352:\n        /* \"#utility.yul\":4257:4320   */\n      swap3\n      pop\n        /* \"#utility.yul\":4212:4330   */\n      pop\n        /* \"#utility.yul\":4369:4371   */\n      0x40\n        /* \"#utility.yul\":4395:4448   */\n      tag_353\n        /* \"#utility.yul\":4440:4447   */\n      dup7\n        /* \"#utility.yul\":4431:4437   */\n      dup3\n        /* \"#utility.yul\":4420:4429   */\n      dup8\n        /* \"#utility.yul\":4416:4438   */\n      add\n        /* \"#utility.yul\":4395:4448   */\n      tag_258\n      jump\t// in\n    tag_353:\n        /* \"#utility.yul\":4385:4448   */\n      swap2\n      pop\n        /* \"#utility.yul\":4340:4458   */\n      pop\n        /* \"#utility.yul\":3846:4465   */\n      swap3\n      pop\n      swap3\n      pop\n      swap3\n      jump\t// out\n        /* \"#utility.yul\":4471:4557   */\n    tag_262:\n        /* \"#utility.yul\":4506:4513   */\n      0x00\n        /* \"#utility.yul\":4546:4550   */\n      0xff\n        /* \"#utility.yul\":4539:4544   */\n      dup3\n        /* \"#utility.yul\":4535:4551   */\n      and\n        /* \"#utility.yul\":4524:4551   */\n      swap1\n      pop\n        /* \"#utility.yul\":4471:4557   */\n      swap2\n      swap1\n      pop\n      jump\t// out\n        /* \"#utility.yul\":4563:4675   */\n    tag_263:\n        /* \"#utility.yul\":4646:4668   */\n      tag_356\n        /* \"#utility.yul\":4662:4667   */\n      dup2\n        /* \"#utility.yul\":4646:4668   */\n      tag_262\n      jump\t// in\n    tag_356:\n        /* \"#utility.yul\":4641:4644   */\n      dup3\n        /* \"#utility.yul\":4634:4669   */\n      mstore\n        /* \"#utility.yul\":4563:4675   */\n      pop\n      pop\n      jump\t// out\n        /* \"#utility.yul\":4681:4895   */\n    tag_46:\n        /* \"#utility.yul\":4770:4774   */\n      0x00\n        /* \"#utility.yul\":4808:4810   */\n      0x20\n        /* \"#utility.yul\":4797:4806   */\n      dup3\n        /* \"#utility.yul\":4793:4811   */\n      add\n        /* \"#utility.yul\":4785:4811   */\n      swap1\n      pop\n        /* \"#utility.yul\":4821:4888   */\n      tag_358\n        /* \"#utility.yul\":4885:4886   */\n      0x00\n        /* \"#utility.yul\":4874:4883   */\n      dup4\n        /* \"#utility.yul\":4870:4887   */\n      add\n        /* \"#utility.yul\":4861:4867   */\n      dup5\n        /* \"#utility.yul\":4821:4888   */\n      tag_263\n      jump\t// in\n    tag_358:\n        /* \"#utility.yul\":4681:4895   */\n      swap3\n      swap2\n      pop\n      pop\n      jump\t// out\n        /* \"#utility.yul\":4901:5019   */\n    tag_264:\n        /* \"#utility.yul\":4988:5012   */\n      tag_360\n        /* \"#utility.yul\":5006:5011   */\n      dup2\n        /* \"#utility.yul\":4988:5012   */\n      tag_253\n      jump\t// in\n    tag_360:\n        /* \"#utility.yul\":4983:4986   */\n      dup3\n        /* \"#utility.yul\":4976:5013   */\n      mstore\n        /* \"#utility.yul\":4901:5019   */\n      pop\n      pop\n      jump\t// out\n        /* \"#utility.yul\":5025:5247   */\n    tag_54:\n        /* \"#utility.yul\":5118:5122   */\n      0x00\n        /* \"#utility.yul\":5156:5158   */\n      0x20\n        /* \"#utility.yul\":5145:5154   */\n      dup3\n        /* \"#utility.yul\":5141:5159   */\n      add\n        /* \"#utility.yul\":5133:5159   */\n      swap1\n      pop\n        /* \"#utility.yul\":5169:5240   */\n      tag_362\n        /* \"#utility.yul\":5237:5238   */\n      0x00\n        /* \"#utility.yul\":5226:5235   */\n      dup4\n        /* \"#utility.yul\":5222:5239   */\n      add\n        /* \"#utility.yul\":5213:5219   */\n      dup5\n        /* \"#utility.yul\":5169:5240   */\n      tag_264\n      jump\t// in\n    tag_362:\n        /* \"#utility.yul\":5025:5247   */\n      swap3\n      swap2\n      pop\n      pop\n      jump\t// out\n        /* \"#utility.yul\":5253:5582   */\n    tag_57:\n        /* \"#utility.yul\":5312:5318   */\n      0x00\n        /* \"#utility.yul\":5361:5363   */\n      0x20\n        /* \"#utility.yul\":5349:5358   */\n      dup3\n        /* \"#utility.yul\":5340:5347   */\n      dup5\n        /* \"#utility.yul\":5336:5359   */\n      sub\n        /* \"#utility.yul\":5332:5364   */\n      slt\n        /* \"#utility.yul\":5329:5448   */\n      iszero\n      tag_364\n      jumpi\n        /* \"#utility.yul\":5367:5446   */\n      tag_365\n      tag_250\n      jump\t// in\n    tag_365:\n        /* \"#utility.yul\":5329:5448   */\n    tag_364:\n        /* \"#utility.yul\":5487:5488   */\n      0x00\n        /* \"#utility.yul\":5512:5565   */\n      tag_366\n        /* \"#utility.yul\":5557:5564   */\n      dup5\n        /* \"#utility.yul\":5548:5554   */\n      dup3\n        /* \"#utility.yul\":5537:5546   */\n      dup6\n        /* \"#utility.yul\":5533:5555   */\n      add\n        /* \"#utility.yul\":5512:5565   */\n      tag_258\n      jump\t// in\n    tag_366:\n        /* \"#utility.yul\":5502:5565   */\n      swap2\n      pop\n        /* \"#utility.yul\":5458:5575   */\n      pop\n        /* \"#utility.yul\":5253:5582   */\n      swap3\n      swap2\n      pop\n      pop\n      jump\t// out\n        /* \"#utility.yul\":5588:5917   */\n    tag_61:\n        /* \"#utility.yul\":5647:5653   */\n      0x00\n        /* \"#utility.yul\":5696:5698   */\n      0x20\n        /* \"#utility.yul\":5684:5693   */\n      dup3\n        /* \"#utility.yul\":5675:5682   */\n      dup5\n        /* \"#utility.yul\":5671:5694   */\n      sub\n        /* \"#utility.yul\":5667:5699   */\n      slt\n        /* \"#utility.yul\":5664:5783   */\n      iszero\n      tag_368\n      jumpi\n        /* \"#utility.yul\":5702:5781   */\n      tag_369\n      tag_250\n      jump\t// in\n    tag_369:\n        /* \"#utility.yul\":5664:5783   */\n    tag_368:\n        /* \"#utility.yul\":5822:5823   */\n      0x00\n        /* \"#utility.yul\":5847:5900   */\n      tag_370\n        /* \"#utility.yul\":5892:5899   */\n      dup5\n        /* \"#utility.yul\":5883:5889   */\n      dup3\n        /* \"#utility.yul\":5872:5881   */\n      dup6\n        /* \"#utility.yul\":5868:5890   */\n      add\n        /* \"#utility.yul\":5847:5900   */\n      tag_255\n      jump\t// in\n    tag_370:\n        /* \"#utility.yul\":5837:5900   */\n      swap2\n      pop\n        /* \"#utility.yul\":5793:5910   */\n      pop\n        /* \"#utility.yul\":5588:5917   */\n      swap3\n      swap2\n      pop\n      pop\n      jump\t// out\n        /* \"#utility.yul\":5923:6397   */\n    tag_85:\n        /* \"#utility.yul\":5991:5997   */\n      0x00\n        /* \"#utility.yul\":5999:6005   */\n      dup1\n        /* \"#utility.yul\":6048:6050   */\n      0x40\n        /* \"#utility.yul\":6036:6045   */\n      dup4\n        /* \"#utility.yul\":6027:6034   */\n      dup6\n        /* \"#utility.yul\":6023:6046   */\n      sub\n        /* \"#utility.yul\":6019:6051   */\n      slt\n        /* \"#utility.yul\":6016:6135   */\n      iszero\n      tag_372\n      jumpi\n        /* \"#utility.yul\":6054:6133   */\n      tag_373\n      tag_250\n      jump\t// in\n    tag_373:\n        /* \"#utility.yul\":6016:6135   */\n    tag_372:\n        /* \"#utility.yul\":6174:6175   */\n      0x00\n        /* \"#utility.yul\":6199:6252   */\n      tag_374\n        /* \"#utility.yul\":6244:6251   */\n      dup6\n        /* \"#utility.yul\":6235:6241   */\n      dup3\n        /* \"#utility.yul\":6224:6233   */\n      dup7\n        /* \"#utility.yul\":6220:6242   */\n      add\n        /* \"#utility.yul\":6199:6252   */\n      tag_255\n      jump\t// in\n    tag_374:\n        /* \"#utility.yul\":6189:6252   */\n      swap3\n      pop\n        /* \"#utility.yul\":6145:6262   */\n      pop\n        /* \"#utility.yul\":6301:6303   */\n      0x20\n        /* \"#utility.yul\":6327:6380   */\n      tag_375\n        /* \"#utility.yul\":6372:6379   */\n      dup6\n        /* \"#utility.yul\":6363:6369   */\n      dup3\n        /* \"#utility.yul\":6352:6361   */\n      dup7\n        /* \"#utility.yul\":6348:6370   */\n      add\n        /* \"#utility.yul\":6327:6380   */\n      tag_255\n      jump\t// in\n    tag_375:\n        /* \"#utility.yul\":6317:6380   */\n      swap2\n      pop\n        /* \"#utility.yul\":6272:6390   */\n      pop\n        /* \"#utility.yul\":5923:6397   */\n      swap3\n      pop\n      swap3\n      swap1\n      pop\n      jump\t// out\n        /* \"#utility.yul\":6403:6583   */\n    tag_265:\n        /* \"#utility.yul\":6451:6528   */\n      0x4e487b7100000000000000000000000000000000000000000000000000000000\n        /* \"#utility.yul\":6448:6449   */\n      0x00\n        /* \"#utility.yul\":6441:6529   */\n      mstore\n        /* \"#utility.yul\":6548:6552   */\n      0x22\n        /* \"#utility.yul\":6545:6546   */\n      0x04\n        /* \"#utility.yul\":6538:6553   */\n      mstore\n        /* \"#utility.yul\":6572:6576   */\n      0x24\n        /* \"#utility.yul\":6569:6570   */\n      0x00\n        /* \"#utility.yul\":6562:6577   */\n      revert\n        /* \"#utility.yul\":6589:6909   */\n    tag_96:\n        /* \"#utility.yul\":6633:6639   */\n      0x00\n        /* \"#utility.yul\":6670:6671   */\n      0x02\n        /* \"#utility.yul\":6664:6668   */\n      dup3\n        /* \"#utility.yul\":6660:6672   */\n      div\n        /* \"#utility.yul\":6650:6672   */\n      swap1\n      pop\n        /* \"#utility.yul\":6717:6718   */\n      0x01\n        /* \"#utility.yul\":6711:6715   */\n      dup3\n        /* \"#utility.yul\":6707:6719   */\n      and\n        /* \"#utility.yul\":6738:6756   */\n      dup1\n        /* \"#utility.yul\":6728:6809   */\n      tag_378\n      jumpi\n        /* \"#utility.yul\":6794:6798   */\n      0x7f\n        /* \"#utility.yul\":6786:6792   */\n      dup3\n        /* \"#utility.yul\":6782:6799   */\n      and\n        /* \"#utility.yul\":6772:6799   */\n      swap2\n      pop\n        /* \"#utility.yul\":6728:6809   */\n    tag_378:\n        /* \"#utility.yul\":6856:6858   */\n      0x20\n        /* \"#utility.yul\":6848:6854   */\n      dup3\n        /* \"#utility.yul\":6845:6859   */\n      lt\n        /* \"#utility.yul\":6825:6843   */\n      dup2\n        /* \"#utility.yul\":6822:6860   */\n      eq\n        /* \"#utility.yul\":6819:6903   */\n      iszero\n      tag_379\n      jumpi\n        /* \"#utility.yul\":6875:6893   */\n      tag_380\n      tag_265\n      jump\t// in\n    tag_380:\n        /* \"#utility.yul\":6819:6903   */\n    tag_379:\n        /* \"#utility.yul\":6640:6909   */\n      pop\n        /* \"#utility.yul\":6589:6909   */\n      swap2\n      swap1\n      pop\n      jump\t// out\n        /* \"#utility.yul\":6915:7141   */\n    tag_266:\n        /* \"#utility.yul\":7055:7089   */\n      0x5472616e7366657220616d6f756e74206578636565647320746865203125204c\n        /* \"#utility.yul\":7051:7052   */\n      0x00\n        /* \"#utility.yul\":7043:7049   */\n      dup3\n        /* \"#utility.yul\":7039:7053   */\n      add\n        /* \"#utility.yul\":7032:7090   */\n      mstore\n        /* \"#utility.yul\":7124:7133   */\n      0x50206c696d697400000000000000000000000000000000000000000000000000\n        /* \"#utility.yul\":7119:7121   */\n      0x20\n        /* \"#utility.yul\":7111:7117   */\n      dup3\n        /* \"#utility.yul\":7107:7122   */\n      add\n        /* \"#utility.yul\":7100:7134   */\n      mstore\n        /* \"#utility.yul\":6915:7141   */\n      pop\n      jump\t// out\n        /* \"#utility.yul\":7147:7513   */\n    tag_267:\n        /* \"#utility.yul\":7289:7292   */\n      0x00\n        /* \"#utility.yul\":7310:7377   */\n      tag_383\n        /* \"#utility.yul\":7374:7376   */\n      0x27\n        /* \"#utility.yul\":7369:7372   */\n      dup4\n        /* \"#utility.yul\":7310:7377   */\n      tag_245\n      jump\t// in\n    tag_383:\n        /* \"#utility.yul\":7303:7377   */\n      swap2\n      pop\n        /* \"#utility.yul\":7386:7479   */\n      tag_384\n        /* \"#utility.yul\":7475:7478   */\n      dup3\n        /* \"#utility.yul\":7386:7479   */\n      tag_266\n      jump\t// in\n    tag_384:\n        /* \"#utility.yul\":7504:7506   */\n      0x40\n        /* \"#utility.yul\":7499:7502   */\n      dup3\n        /* \"#utility.yul\":7495:7507   */\n      add\n        /* \"#utility.yul\":7488:7507   */\n      swap1\n      pop\n        /* \"#utility.yul\":7147:7513   */\n      swap2\n      swap1\n      pop\n      jump\t// out\n        /* \"#utility.yul\":7519:7938   */\n    tag_112:\n        /* \"#utility.yul\":7685:7689   */\n      0x00\n        /* \"#utility.yul\":7723:7725   */\n      0x20\n        /* \"#utility.yul\":7712:7721   */\n      dup3\n        /* \"#utility.yul\":7708:7726   */\n      add\n        /* \"#utility.yul\":7700:7726   */\n      swap1\n      pop\n        /* \"#utility.yul\":7772:7781   */\n      dup2\n        /* \"#utility.yul\":7766:7770   */\n      dup2\n        /* \"#utility.yul\":7762:7782   */\n      sub\n        /* \"#utility.yul\":7758:7759   */\n      0x00\n        /* \"#utility.yul\":7747:7756   */\n      dup4\n        /* \"#utility.yul\":7743:7760   */\n      add\n        /* \"#utility.yul\":7736:7783   */\n      mstore\n        /* \"#utility.yul\":7800:7931   */\n      tag_386\n        /* \"#utility.yul\":7926:7930   */\n      dup2\n        /* \"#utility.yul\":7800:7931   */\n      tag_267\n      jump\t// in\n    tag_386:\n        /* \"#utility.yul\":7792:7931   */\n      swap1\n      pop\n        /* \"#utility.yul\":7519:7938   */\n      swap2\n      swap1\n      pop\n      jump\t// out\n        /* \"#utility.yul\":7944:8124   */\n    tag_268:\n        /* \"#utility.yul\":7992:8069   */\n      0x4e487b7100000000000000000000000000000000000000000000000000000000\n        /* \"#utility.yul\":7989:7990   */\n      0x00\n        /* \"#utility.yul\":7982:8070   */\n      mstore\n        /* \"#utility.yul\":8089:8093   */\n      0x11\n        /* \"#utility.yul\":8086:8087   */\n      0x04\n        /* \"#utility.yul\":8079:8094   */\n      mstore\n        /* \"#utility.yul\":8113:8117   */\n      0x24\n        /* \"#utility.yul\":8110:8111   */\n      0x00\n        /* \"#utility.yul\":8103:8118   */\n      revert\n        /* \"#utility.yul\":8130:8435   */\n    tag_121:\n        /* \"#utility.yul\":8170:8173   */\n      0x00\n        /* \"#utility.yul\":8189:8209   */\n      tag_389\n        /* \"#utility.yul\":8207:8208   */\n      dup3\n        /* \"#utility.yul\":8189:8209   */\n      tag_256\n      jump\t// in\n    tag_389:\n        /* \"#utility.yul\":8184:8209   */\n      swap2\n      pop\n        /* \"#utility.yul\":8223:8243   */\n      tag_390\n        /* \"#utility.yul\":8241:8242   */\n      dup4\n        /* \"#utility.yul\":8223:8243   */\n      tag_256\n      jump\t// in\n    tag_390:\n        /* \"#utility.yul\":8218:8243   */\n      swap3\n      pop\n        /* \"#utility.yul\":8377:8378   */\n      dup3\n        /* \"#utility.yul\":8309:8375   */\n      0xffffffffffffffffffffffffffffffffffffffffffffffffffffffffffffffff\n        /* \"#utility.yul\":8305:8379   */\n      sub\n        /* \"#utility.yul\":8302:8303   */\n      dup3\n        /* \"#utility.yul\":8299:8380   */\n      gt\n        /* \"#utility.yul\":8296:8403   */\n      iszero\n      tag_391\n      jumpi\n        /* \"#utility.yul\":8383:8401   */\n      tag_392\n      tag_268\n      jump\t// in\n    tag_392:\n        /* \"#utility.yul\":8296:8403   */\n    tag_391:\n        /* \"#utility.yul\":8427:8428   */\n      dup3\n        /* \"#utility.yul\":8424:8425   */\n      dup3\n        /* \"#utility.yul\":8420:8429   */\n      add\n        /* \"#utility.yul\":8413:8429   */\n      swap1\n      pop\n        /* \"#utility.yul\":8130:8435   */\n      swap3\n      swap2\n      pop\n      pop\n      jump\t// out\n        /* \"#utility.yul\":8441:8665   */\n    tag_269:\n        /* \"#utility.yul\":8581:8615   */\n      0x45524332303a2064656372656173656420616c6c6f77616e63652062656c6f77\n        /* \"#utility.yul\":8577:8578   */\n      0x00\n        /* \"#utility.yul\":8569:8575   */\n      dup3\n        /* \"#utility.yul\":8565:8579   */\n      add\n        /* \"#utility.yul\":8558:8616   */\n      mstore\n        /* \"#utility.yul\":8650:8657   */\n      0x207a65726f000000000000000000000000000000000000000000000000000000\n        /* \"#utility.yul\":8645:8647   */\n      0x20\n        /* \"#utility.yul\":8637:8643   */\n      dup3\n        /* \"#utility.yul\":8633:8648   */\n      add\n        /* \"#utility.yul\":8626:8658   */\n      mstore\n        /* \"#utility.yul\":8441:8665   */\n      pop\n      jump\t// out\n        /* \"#utility.yul\":8671:9037   */\n    tag_270:\n        /* \"#utility.yul\":8813:8816   */\n      0x00\n        /* \"#utility.yul\":8834:8901   */\n      tag_395\n        /* \"#utility.yul\":8898:8900   */\n      0x25\n        /* \"#utility.yul\":8893:8896   */\n      dup4\n        /* \"#utility.yul\":8834:8901   */\n      tag_245\n      jump\t// in\n    tag_395:\n        /* \"#utility.yul\":8827:8901   */\n      swap2\n      pop\n        /* \"#utility.yul\":8910:9003   */\n      tag_396\n        /* \"#utility.yul\":8999:9002   */\n      dup3\n        /* \"#utility.yul\":8910:9003   */\n      tag_269\n      jump\t// in\n    tag_396:\n        /* \"#utility.yul\":9028:9030   */\n      0x40\n        /* \"#utility.yul\":9023:9026   */\n      dup3\n        /* \"#utility.yul\":9019:9031   */\n      add\n        /* \"#utility.yul\":9012:9031   */\n      swap1\n      pop\n        /* \"#utility.yul\":8671:9037   */\n      swap2\n      swap1\n      pop\n      jump\t// out\n        /* \"#utility.yul\":9043:9462   */\n    tag_151:\n        /* \"#utility.yul\":9209:9213   */\n      0x00\n        /* \"#utility.yul\":9247:9249   */\n      0x20\n        /* \"#utility.yul\":9236:9245   */\n      dup3\n        /* \"#utility.yul\":9232:9250   */\n      add\n        /* \"#utility.yul\":9224:9250   */\n      swap1\n      pop\n        /* \"#utility.yul\":9296:9305   */\n      dup2\n        /* \"#utility.yul\":9290:9294   */\n      dup2\n        /* \"#utility.yul\":9286:9306   */\n      sub\n        /* \"#utility.yul\":9282:9283   */\n      0x00\n        /* \"#utility.yul\":9271:9280   */\n      dup4\n        /* \"#utility.yul\":9267:9284   */\n      add\n        /* \"#utility.yul\":9260:9307   */\n      mstore\n        /* \"#utility.yul\":9324:9455   */\n      tag_398\n        /* \"#utility.yul\":9450:9454   */\n      dup2\n        /* \"#utility.yul\":9324:9455   */\n      tag_270\n      jump\t// in\n    tag_398:\n        /* \"#utility.yul\":9316:9455   */\n      swap1\n      pop\n        /* \"#utility.yul\":9043:9462   */\n      swap2\n      swap1\n      pop\n      jump\t// out\n        /* \"#utility.yul\":9468:9693   */\n    tag_271:\n        /* \"#utility.yul\":9608:9642   */\n      0x4f776e61626c653a206e6577206f776e657220697320746865207a65726f2061\n        /* \"#utility.yul\":9604:9605   */\n      0x00\n        /* \"#utility.yul\":9596:9602   */\n      dup3\n        /* \"#utility.yul\":9592:9606   */\n      add\n        /* \"#utility.yul\":9585:9643   */\n      mstore\n        /* \"#utility.yul\":9677:9685   */\n      0x6464726573730000000000000000000000000000000000000000000000000000\n        /* \"#utility.yul\":9672:9674   */\n      0x20\n        /* \"#utility.yul\":9664:9670   */\n      dup3\n        /* \"#utility.yul\":9660:9675   */\n      add\n        /* \"#utility.yul\":9653:9686   */\n      mstore\n        /* \"#utility.yul\":9468:9693   */\n      pop\n      jump\t// out\n        /* \"#utility.yul\":9699:10065   */\n    tag_272:\n        /* \"#utility.yul\":9841:9844   */\n      0x00\n        /* \"#utility.yul\":9862:9929   */\n      tag_401\n        /* \"#utility.yul\":9926:9928   */\n      0x26\n        /* \"#utility.yul\":9921:9924   */\n      dup4\n        /* \"#utility.yul\":9862:9929   */\n      tag_245\n      jump\t// in\n    tag_401:\n        /* \"#utility.yul\":9855:9929   */\n      swap2\n      pop\n        /* \"#utility.yul\":9938:10031   */\n      tag_402\n        /* \"#utility.yul\":10027:10030   */\n      dup3\n        /* \"#utility.yul\":9938:10031   */\n      tag_271\n      jump\t// in\n    tag_402:\n        /* \"#utility.yul\":10056:10058   */\n      0x40\n        /* \"#utility.yul\":10051:10054   */\n      dup3\n        /* \"#utility.yul\":10047:10059   */\n      add\n        /* \"#utility.yul\":10040:10059   */\n      swap1\n      pop\n        /* \"#utility.yul\":9699:10065   */\n      swap2\n      swap1\n      pop\n      jump\t// out\n        /* \"#utility.yul\":10071:10490   */\n    tag_163:\n        /* \"#utility.yul\":10237:10241   */\n      0x00\n        /* \"#utility.yul\":10275:10277   */\n      0x20\n        /* \"#utility.yul\":10264:10273   */\n      dup3\n        /* \"#utility.yul\":10260:10278   */\n      add\n        /* \"#utility.yul\":10252:10278   */\n      swap1\n      pop\n        /* \"#utility.yul\":10324:10333   */\n      dup2\n        /* \"#utility.yul\":10318:10322   */\n      dup2\n        /* \"#utility.yul\":10314:10334   */\n      sub\n        /* \"#utility.yul\":10310:10311   */\n      0x00\n        /* \"#utility.yul\":10299:10308   */\n      dup4\n        /* \"#utility.yul\":10295:10312   */\n      add\n        /* \"#utility.yul\":10288:10335   */\n      mstore\n        /* \"#utility.yul\":10352:10483   */\n      tag_404\n        /* \"#utility.yul\":10478:10482   */\n      dup2\n        /* \"#utility.yul\":10352:10483   */\n      tag_272\n      jump\t// in\n    tag_404:\n        /* \"#utility.yul\":10344:10483   */\n      swap1\n      pop\n        /* \"#utility.yul\":10071:10490   */\n      swap2\n      swap1\n      pop\n      jump\t// out\n        /* \"#utility.yul\":10496:10719   */\n    tag_273:\n        /* \"#utility.yul\":10636:10670   */\n      0x45524332303a20617070726f76652066726f6d20746865207a65726f20616464\n        /* \"#utility.yul\":10632:10633   */\n      0x00\n        /* \"#utility.yul\":10624:10630   */\n      dup3\n        /* \"#utility.yul\":10620:10634   */\n      add\n        /* \"#utility.yul\":10613:10671   */\n      mstore\n        /* \"#utility.yul\":10705:10711   */\n      0x7265737300000000000000000000000000000000000000000000000000000000\n        /* \"#utility.yul\":10700:10702   */\n      0x20\n        /* \"#utility.yul\":10692:10698   */\n      dup3\n        /* \"#utility.yul\":10688:10703   */\n      add\n        /* \"#utility.yul\":10681:10712   */\n      mstore\n        /* \"#utility.yul\":10496:10719   */\n      pop\n      jump\t// out\n        /* \"#utility.yul\":10725:11091   */\n    tag_274:\n        /* \"#utility.yul\":10867:10870   */\n      0x00\n        /* \"#utility.yul\":10888:10955   */\n      tag_407\n        /* \"#utility.yul\":10952:10954   */\n      0x24\n        /* \"#utility.yul\":10947:10950   */\n      dup4\n        /* \"#utility.yul\":10888:10955   */\n      tag_245\n      jump\t// in\n    tag_407:\n        /* \"#utility.yul\":10881:10955   */\n      swap2\n      pop\n        /* \"#utility.yul\":10964:11057   */\n      tag_408\n        /* \"#utility.yul\":11053:11056   */\n      dup3\n        /* \"#utility.yul\":10964:11057   */\n      tag_273\n      jump\t// in\n    tag_408:\n        /* \"#utility.yul\":11082:11084   */\n      0x40\n        /* \"#utility.yul\":11077:11080   */\n      dup3\n        /* \"#utility.yul\":11073:11085   */\n      add\n        /* \"#utility.yul\":11066:11085   */\n      swap1\n      pop\n        /* \"#utility.yul\":10725:11091   */\n      swap2\n      swap1\n      pop\n      jump\t// out\n        /* \"#utility.yul\":11097:11516   */\n    tag_172:\n        /* \"#utility.yul\":11263:11267   */\n      0x00\n        /* \"#utility.yul\":11301:11303   */\n      0x20\n        /* \"#utility.yul\":11290:11299   */\n      dup3\n        /* \"#utility.yul\":11286:11304   */\n      add\n        /* \"#utility.yul\":11278:11304   */\n      swap1\n      pop\n        /* \"#utility.yul\":11350:11359   */\n      dup2\n        /* \"#utility.yul\":11344:11348   */\n      dup2\n        /* \"#utility.yul\":11340:11360   */\n      sub\n        /* \"#utility.yul\":11336:11337   */\n      0x00\n        /* \"#utility.yul\":11325:11334   */\n      dup4\n        /* \"#utility.yul\":11321:11338   */\n      add\n        /* \"#utility.yul\":11314:11361   */\n      mstore\n        /* \"#utility.yul\":11378:11509   */\n      tag_410\n        /* \"#utility.yul\":11504:11508   */\n      dup2\n        /* \"#utility.yul\":11378:11509   */\n      tag_274\n      jump\t// in\n    tag_410:\n        /* \"#utility.yul\":11370:11509   */\n      swap1\n      pop\n        /* \"#utility.yul\":11097:11516   */\n      swap2\n      swap1\n      pop\n      jump\t// out\n        /* \"#utility.yul\":11522:11743   */\n    tag_275:\n        /* \"#utility.yul\":11662:11696   */\n      0x45524332303a20617070726f766520746f20746865207a65726f206164647265\n        /* \"#utility.yul\":11658:11659   */\n      0x00\n        /* \"#utility.yul\":11650:11656   */\n      dup3\n        /* \"#utility.yul\":11646:11660   */\n      add\n        /* \"#utility.yul\":11639:11697   */\n      mstore\n        /* \"#utility.yul\":11731:11735   */\n      0x7373000000000000000000000000000000000000000000000000000000000000\n        /* \"#utility.yul\":11726:11728   */\n      0x20\n        /* \"#utility.yul\":11718:11724   */\n      dup3\n        /* \"#utility.yul\":11714:11729   */\n      add\n        /* \"#utility.yul\":11707:11736   */\n      mstore\n        /* \"#utility.yul\":11522:11743   */\n      pop\n      jump\t// out\n        /* \"#utility.yul\":11749:12115   */\n    tag_276:\n        /* \"#utility.yul\":11891:11894   */\n      0x00\n        /* \"#utility.yul\":11912:11979   */\n      tag_413\n        /* \"#utility.yul\":11976:11978   */\n      0x22\n        /* \"#utility.yul\":11971:11974   */\n      dup4\n        /* \"#utility.yul\":11912:11979   */\n      tag_245\n      jump\t// in\n    tag_413:\n        /* \"#utility.yul\":11905:11979   */\n      swap2\n      pop\n        /* \"#utility.yul\":11988:12081   */\n      tag_414\n        /* \"#utility.yul\":12077:12080   */\n      dup3\n        /* \"#utility.yul\":11988:12081   */\n      tag_275\n      jump\t// in\n    tag_414:\n        /* \"#utility.yul\":12106:12108   */\n      0x40\n        /* \"#utility.yul\":12101:12104   */\n      dup3\n        /* \"#utility.yul\":12097:12109   */\n      add\n        /* \"#utility.yul\":12090:12109   */\n      swap1\n      pop\n        /* \"#utility.yul\":11749:12115   */\n      swap2\n      swap1\n      pop\n      jump\t// out\n        /* \"#utility.yul\":12121:12540   */\n    tag_175:\n        /* \"#utility.yul\":12287:12291   */\n      0x00\n        /* \"#utility.yul\":12325:12327   */\n      0x20\n        /* \"#utility.yul\":12314:12323   */\n      dup3\n        /* \"#utility.yul\":12310:12328   */\n      add\n        /* \"#utility.yul\":12302:12328   */\n      swap1\n      pop\n        /* \"#utility.yul\":12374:12383   */\n      dup2\n        /* \"#utility.yul\":12368:12372   */\n      dup2\n        /* \"#utility.yul\":12364:12384   */\n      sub\n        /* \"#utility.yul\":12360:12361   */\n      0x00\n        /* \"#utility.yul\":12349:12358   */\n      dup4\n        /* \"#utility.yul\":12345:12362   */\n      add\n        /* \"#utility.yul\":12338:12385   */\n      mstore\n        /* \"#utility.yul\":12402:12533   */\n      tag_416\n        /* \"#utility.yul\":12528:12532   */\n      dup2\n        /* \"#utility.yul\":12402:12533   */\n      tag_276\n      jump\t// in\n    tag_416:\n        /* \"#utility.yul\":12394:12533   */\n      swap1\n      pop\n        /* \"#utility.yul\":12121:12540   */\n      swap2\n      swap1\n      pop\n      jump\t// out\n        /* \"#utility.yul\":12546:12660   */\n    tag_277:\n        /* \"#utility.yul\":12583:12590   */\n      0x00\n        /* \"#utility.yul\":12623:12653   */\n      0xffffffffffffffffffffffffffff\n        /* \"#utility.yul\":12616:12621   */\n      dup3\n        /* \"#utility.yul\":12612:12654   */\n      and\n        /* \"#utility.yul\":12601:12654   */\n      swap1\n      pop\n        /* \"#utility.yul\":12546:12660   */\n      swap2\n      swap1\n      pop\n      jump\t// out\n        /* \"#utility.yul\":12666:12788   */\n    tag_278:\n        /* \"#utility.yul\":12739:12763   */\n      tag_419\n        /* \"#utility.yul\":12757:12762   */\n      dup2\n        /* \"#utility.yul\":12739:12763   */\n      tag_277\n      jump\t// in\n    tag_419:\n        /* \"#utility.yul\":12732:12737   */\n      dup2\n        /* \"#utility.yul\":12729:12764   */\n      eq\n        /* \"#utility.yul\":12719:12782   */\n      tag_420\n      jumpi\n        /* \"#utility.yul\":12778:12779   */\n      0x00\n        /* \"#utility.yul\":12775:12776   */\n      dup1\n        /* \"#utility.yul\":12768:12780   */\n      revert\n        /* \"#utility.yul\":12719:12782   */\n    tag_420:\n        /* \"#utility.yul\":12666:12788   */\n      pop\n      jump\t// out\n        /* \"#utility.yul\":12794:12937   */\n    tag_279:\n        /* \"#utility.yul\":12851:12856   */\n      0x00\n        /* \"#utility.yul\":12882:12888   */\n      dup2\n        /* \"#utility.yul\":12876:12889   */\n      mload\n        /* \"#utility.yul\":12867:12889   */\n      swap1\n      pop\n        /* \"#utility.yul\":12898:12931   */\n      tag_422\n        /* \"#utility.yul\":12925:12930   */\n      dup2\n        /* \"#utility.yul\":12898:12931   */\n      tag_278\n      jump\t// in\n    tag_422:\n        /* \"#utility.yul\":12794:12937   */\n      swap3\n      swap2\n      pop\n      pop\n      jump\t// out\n        /* \"#utility.yul\":12943:13036   */\n    tag_280:\n        /* \"#utility.yul\":12979:12986   */\n      0x00\n        /* \"#utility.yul\":13019:13029   */\n      0xffffffff\n        /* \"#utility.yul\":13012:13017   */\n      dup3\n        /* \"#utility.yul\":13008:13030   */\n      and\n        /* \"#utility.yul\":12997:13030   */\n      swap1\n      pop\n        /* \"#utility.yul\":12943:13036   */\n      swap2\n      swap1\n      pop\n      jump\t// out\n        /* \"#utility.yul\":13042:13162   */\n    tag_281:\n        /* \"#utility.yul\":13114:13137   */\n      tag_425\n        /* \"#utility.yul\":13131:13136   */\n      dup2\n        /* \"#utility.yul\":13114:13137   */\n      tag_280\n      jump\t// in\n    tag_425:\n        /* \"#utility.yul\":13107:13112   */\n      dup2\n        /* \"#utility.yul\":13104:13138   */\n      eq\n        /* \"#utility.yul\":13094:13156   */\n      tag_426\n      jumpi\n        /* \"#utility.yul\":13152:13153   */\n      0x00\n        /* \"#utility.yul\":13149:13150   */\n      dup1\n        /* \"#utility.yul\":13142:13154   */\n      revert\n        /* \"#utility.yul\":13094:13156   */\n    tag_426:\n        /* \"#utility.yul\":13042:13162   */\n      pop\n      jump\t// out\n        /* \"#utility.yul\":13168:13309   */\n    tag_282:\n        /* \"#utility.yul\":13224:13229   */\n      0x00\n        /* \"#utility.yul\":13255:13261   */\n      dup2\n        /* \"#utility.yul\":13249:13262   */\n      mload\n        /* \"#utility.yul\":13240:13262   */\n      swap1\n      pop\n        /* \"#utility.yul\":13271:13303   */\n      tag_428\n        /* \"#utility.yul\":13297:13302   */\n      dup2\n        /* \"#utility.yul\":13271:13303   */\n      tag_281\n      jump\t// in\n    tag_428:\n        /* \"#utility.yul\":13168:13309   */\n      swap3\n      swap2\n      pop\n      pop\n      jump\t// out\n        /* \"#utility.yul\":13315:13976   */\n    tag_183:\n        /* \"#utility.yul\":13402:13408   */\n      0x00\n        /* \"#utility.yul\":13410:13416   */\n      dup1\n        /* \"#utility.yul\":13418:13424   */\n      0x00\n        /* \"#utility.yul\":13467:13469   */\n      0x60\n        /* \"#utility.yul\":13455:13464   */\n      dup5\n        /* \"#utility.yul\":13446:13453   */\n      dup7\n        /* \"#utility.yul\":13442:13465   */\n      sub\n        /* \"#utility.yul\":13438:13470   */\n      slt\n        /* \"#utility.yul\":13435:13554   */\n      iszero\n      tag_430\n      jumpi\n        /* \"#utility.yul\":13473:13552   */\n      tag_431\n      tag_250\n      jump\t// in\n    tag_431:\n        /* \"#utility.yul\":13435:13554   */\n    tag_430:\n        /* \"#utility.yul\":13593:13594   */\n      0x00\n        /* \"#utility.yul\":13618:13682   */\n      tag_432\n        /* \"#utility.yul\":13674:13681   */\n      dup7\n        /* \"#utility.yul\":13665:13671   */\n      dup3\n        /* \"#utility.yul\":13654:13663   */\n      dup8\n        /* \"#utility.yul\":13650:13672   */\n      add\n        /* \"#utility.yul\":13618:13682   */\n      tag_279\n      jump\t// in\n    tag_432:\n        /* \"#utility.yul\":13608:13682   */\n      swap4\n      pop\n        /* \"#utility.yul\":13564:13692   */\n      pop\n        /* \"#utility.yul\":13731:13733   */\n      0x20\n        /* \"#utility.yul\":13757:13821   */\n      tag_433\n        /* \"#utility.yul\":13813:13820   */\n      dup7\n        /* \"#utility.yul\":13804:13810   */\n      dup3\n        /* \"#utility.yul\":13793:13802   */\n      dup8\n        /* \"#utility.yul\":13789:13811   */\n      add\n        /* \"#utility.yul\":13757:13821   */\n      tag_279\n      jump\t// in\n    tag_433:\n        /* \"#utility.yul\":13747:13821   */\n      swap3\n      pop\n        /* \"#utility.yul\":13702:13831   */\n      pop\n        /* \"#utility.yul\":13870:13872   */\n      0x40\n        /* \"#utility.yul\":13896:13959   */\n      tag_434\n        /* \"#utility.yul\":13951:13958   */\n      dup7\n        /* \"#utility.yul\":13942:13948   */\n      dup3\n        /* \"#utility.yul\":13931:13940   */\n      dup8\n        /* \"#utility.yul\":13927:13949   */\n      add\n        /* \"#utility.yul\":13896:13959   */\n      tag_282\n      jump\t// in\n    tag_434:\n        /* \"#utility.yul\":13886:13959   */\n      swap2\n      pop\n        /* \"#utility.yul\":13841:13969   */\n      pop\n        /* \"#utility.yul\":13315:13976   */\n      swap3\n      pop\n      swap3\n      pop\n      swap3\n      jump\t// out\n        /* \"#utility.yul\":13982:14125   */\n    tag_283:\n        /* \"#utility.yul\":14039:14044   */\n      0x00\n        /* \"#utility.yul\":14070:14076   */\n      dup2\n        /* \"#utility.yul\":14064:14077   */\n      mload\n        /* \"#utility.yul\":14055:14077   */\n      swap1\n      pop\n        /* \"#utility.yul\":14086:14119   */\n      tag_436\n        /* \"#utility.yul\":14113:14118   */\n      dup2\n        /* \"#utility.yul\":14086:14119   */\n      tag_254\n      jump\t// in\n    tag_436:\n        /* \"#utility.yul\":13982:14125   */\n      swap3\n      swap2\n      pop\n      pop\n      jump\t// out\n        /* \"#utility.yul\":14131:14482   */\n    tag_187:\n        /* \"#utility.yul\":14201:14207   */\n      0x00\n        /* \"#utility.yul\":14250:14252   */\n      0x20\n        /* \"#utility.yul\":14238:14247   */\n      dup3\n        /* \"#utility.yul\":14229:14236   */\n      dup5\n        /* \"#utility.yul\":14225:14248   */\n      sub\n        /* \"#utility.yul\":14221:14253   */\n      slt\n        /* \"#utility.yul\":14218:14337   */\n      iszero\n      tag_438\n      jumpi\n        /* \"#utility.yul\":14256:14335   */\n      tag_439\n      tag_250\n      jump\t// in\n    tag_439:\n        /* \"#utility.yul\":14218:14337   */\n    tag_438:\n        /* \"#utility.yul\":14376:14377   */\n      0x00\n        /* \"#utility.yul\":14401:14465   */\n      tag_440\n        /* \"#utility.yul\":14457:14464   */\n      dup5\n        /* \"#utility.yul\":14448:14454   */\n      dup3\n        /* \"#utility.yul\":14437:14446   */\n      dup6\n        /* \"#utility.yul\":14433:14455   */\n      add\n        /* \"#utility.yul\":14401:14465   */\n      tag_283\n      jump\t// in\n    tag_440:\n        /* \"#utility.yul\":14391:14465   */\n      swap2\n      pop\n        /* \"#utility.yul\":14347:14475   */\n      pop\n        /* \"#utility.yul\":14131:14482   */\n      swap3\n      swap2\n      pop\n      pop\n      jump\t// out\n        /* \"#utility.yul\":14488:14665   */\n    tag_284:\n        /* \"#utility.yul\":14628:14657   */\n      0x546f6b656e206973206e6f742070617274206f6620746865204c500000000000\n        /* \"#utility.yul\":14624:14625   */\n      0x00\n        /* \"#utility.yul\":14616:14622   */\n      dup3\n        /* \"#utility.yul\":14612:14626   */\n      add\n        /* \"#utility.yul\":14605:14658   */\n      mstore\n        /* \"#utility.yul\":14488:14665   */\n      pop\n      jump\t// out\n        /* \"#utility.yul\":14671:15037   */\n    tag_285:\n        /* \"#utility.yul\":14813:14816   */\n      0x00\n        /* \"#utility.yul\":14834:14901   */\n      tag_443\n        /* \"#utility.yul\":14898:14900   */\n      0x1b\n        /* \"#utility.yul\":14893:14896   */\n      dup4\n        /* \"#utility.yul\":14834:14901   */\n      tag_245\n      jump\t// in\n    tag_443:\n        /* \"#utility.yul\":14827:14901   */\n      swap2\n      pop\n        /* \"#utility.yul\":14910:15003   */\n      tag_444\n        /* \"#utility.yul\":14999:15002   */\n      dup3\n        /* \"#utility.yul\":14910:15003   */\n      tag_284\n      jump\t// in\n    tag_444:\n        /* \"#utility.yul\":15028:15030   */\n      0x20\n        /* \"#utility.yul\":15023:15026   */\n      dup3\n        /* \"#utility.yul\":15019:15031   */\n      add\n        /* \"#utility.yul\":15012:15031   */\n      swap1\n      pop\n        /* \"#utility.yul\":14671:15037   */\n      swap2\n      swap1\n      pop\n      jump\t// out\n        /* \"#utility.yul\":15043:15462   */\n    tag_196:\n        /* \"#utility.yul\":15209:15213   */\n      0x00\n        /* \"#utility.yul\":15247:15249   */\n      0x20\n        /* \"#utility.yul\":15236:15245   */\n      dup3\n        /* \"#utility.yul\":15232:15250   */\n      add\n        /* \"#utility.yul\":15224:15250   */\n      swap1\n      pop\n        /* \"#utility.yul\":15296:15305   */\n      dup2\n        /* \"#utility.yul\":15290:15294   */\n      dup2\n        /* \"#utility.yul\":15286:15306   */\n      sub\n        /* \"#utility.yul\":15282:15283   */\n      0x00\n        /* \"#utility.yul\":15271:15280   */\n      dup4\n        /* \"#utility.yul\":15267:15284   */\n      add\n        /* \"#utility.yul\":15260:15307   */\n      mstore\n        /* \"#utility.yul\":15324:15455   */\n      tag_446\n        /* \"#utility.yul\":15450:15454   */\n      dup2\n        /* \"#utility.yul\":15324:15455   */\n      tag_285\n      jump\t// in\n    tag_446:\n        /* \"#utility.yul\":15316:15455   */\n      swap1\n      pop\n        /* \"#utility.yul\":15043:15462   */\n      swap2\n      swap1\n      pop\n      jump\t// out\n        /* \"#utility.yul\":15468:15648   */\n    tag_286:\n        /* \"#utility.yul\":15516:15593   */\n      0x4e487b7100000000000000000000000000000000000000000000000000000000\n        /* \"#utility.yul\":15513:15514   */\n      0x00\n        /* \"#utility.yul\":15506:15594   */\n      mstore\n        /* \"#utility.yul\":15613:15617   */\n      0x12\n        /* \"#utility.yul\":15610:15611   */\n      0x04\n        /* \"#utility.yul\":15603:15618   */\n      mstore\n        /* \"#utility.yul\":15637:15641   */\n      0x24\n        /* \"#utility.yul\":15634:15635   */\n      0x00\n        /* \"#utility.yul\":15627:15642   */\n      revert\n        /* \"#utility.yul\":15654:15839   */\n    tag_198:\n        /* \"#utility.yul\":15694:15695   */\n      0x00\n        /* \"#utility.yul\":15711:15731   */\n      tag_449\n        /* \"#utility.yul\":15729:15730   */\n      dup3\n        /* \"#utility.yul\":15711:15731   */\n      tag_256\n      jump\t// in\n    tag_449:\n        /* \"#utility.yul\":15706:15731   */\n      swap2\n      pop\n        /* \"#utility.yul\":15745:15765   */\n      tag_450\n        /* \"#utility.yul\":15763:15764   */\n      dup4\n        /* \"#utility.yul\":15745:15765   */\n      tag_256\n      jump\t// in\n    tag_450:\n        /* \"#utility.yul\":15740:15765   */\n      swap3\n      pop\n        /* \"#utility.yul\":15784:15785   */\n      dup3\n        /* \"#utility.yul\":15774:15809   */\n      tag_451\n      jumpi\n        /* \"#utility.yul\":15789:15807   */\n      tag_452\n      tag_286\n      jump\t// in\n    tag_452:\n        /* \"#utility.yul\":15774:15809   */\n    tag_451:\n        /* \"#utility.yul\":15831:15832   */\n      dup3\n        /* \"#utility.yul\":15828:15829   */\n      dup3\n        /* \"#utility.yul\":15824:15833   */\n      div\n        /* \"#utility.yul\":15819:15833   */\n      swap1\n      pop\n        /* \"#utility.yul\":15654:15839   */\n      swap3\n      swap2\n      pop\n      pop\n      jump\t// out\n        /* \"#utility.yul\":15845:16065   */\n    tag_287:\n        /* \"#utility.yul\":15985:16019   */\n      0x45524332303a206275726e2066726f6d20746865207a65726f20616464726573\n        /* \"#utility.yul\":15981:15982   */\n      0x00\n        /* \"#utility.yul\":15973:15979   */\n      dup3\n        /* \"#utility.yul\":15969:15983   */\n      add\n        /* \"#utility.yul\":15962:16020   */\n      mstore\n        /* \"#utility.yul\":16054:16057   */\n      0x7300000000000000000000000000000000000000000000000000000000000000\n        /* \"#utility.yul\":16049:16051   */\n      0x20\n        /* \"#utility.yul\":16041:16047   */\n      dup3\n        /* \"#utility.yul\":16037:16052   */\n      add\n        /* \"#utility.yul\":16030:16058   */\n      mstore\n        /* \"#utility.yul\":15845:16065   */\n      pop\n      jump\t// out\n        /* \"#utility.yul\":16071:16437   */\n    tag_288:\n        /* \"#utility.yul\":16213:16216   */\n      0x00\n        /* \"#utility.yul\":16234:16301   */\n      tag_455\n        /* \"#utility.yul\":16298:16300   */\n      0x21\n        /* \"#utility.yul\":16293:16296   */\n      dup4\n        /* \"#utility.yul\":16234:16301   */\n      tag_245\n      jump\t// in\n    tag_455:\n        /* \"#utility.yul\":16227:16301   */\n      swap2\n      pop\n        /* \"#utility.yul\":16310:16403   */\n      tag_456\n        /* \"#utility.yul\":16399:16402   */\n      dup3\n        /* \"#utility.yul\":16310:16403   */\n      tag_287\n      jump\t// in\n    tag_456:\n        /* \"#utility.yul\":16428:16430   */\n      0x40\n        /* \"#utility.yul\":16423:16426   */\n      dup3\n        /* \"#utility.yul\":16419:16431   */\n      add\n        /* \"#utility.yul\":16412:16431   */\n      swap1\n      pop\n        /* \"#utility.yul\":16071:16437   */\n      swap2\n      swap1\n      pop\n      jump\t// out\n        /* \"#utility.yul\":16443:16862   */\n    tag_206:\n        /* \"#utility.yul\":16609:16613   */\n      0x00\n        /* \"#utility.yul\":16647:16649   */\n      0x20\n        /* \"#utility.yul\":16636:16645   */\n      dup3\n        /* \"#utility.yul\":16632:16650   */\n      add\n        /* \"#utility.yul\":16624:16650   */\n      swap1\n      pop\n        /* \"#utility.yul\":16696:16705   */\n      dup2\n        /* \"#utility.yul\":16690:16694   */\n      dup2\n        /* \"#utility.yul\":16686:16706   */\n      sub\n        /* \"#utility.yul\":16682:16683   */\n      0x00\n        /* \"#utility.yul\":16671:16680   */\n      dup4\n        /* \"#utility.yul\":16667:16684   */\n      add\n        /* \"#utility.yul\":16660:16707   */\n      mstore\n        /* \"#utility.yul\":16724:16855   */\n      tag_458\n        /* \"#utility.yul\":16850:16854   */\n      dup2\n        /* \"#utility.yul\":16724:16855   */\n      tag_288\n      jump\t// in\n    tag_458:\n        /* \"#utility.yul\":16716:16855   */\n      swap1\n      pop\n        /* \"#utility.yul\":16443:16862   */\n      swap2\n      swap1\n      pop\n      jump\t// out\n        /* \"#utility.yul\":16868:17089   */\n    tag_289:\n        /* \"#utility.yul\":17008:17042   */\n      0x45524332303a206275726e20616d6f756e7420657863656564732062616c616e\n        /* \"#utility.yul\":17004:17005   */\n      0x00\n        /* \"#utility.yul\":16996:17002   */\n      dup3\n        /* \"#utility.yul\":16992:17006   */\n      add\n        /* \"#utility.yul\":16985:17043   */\n      mstore\n        /* \"#utility.yul\":17077:17081   */\n      0x6365000000000000000000000000000000000000000000000000000000000000\n        /* \"#utility.yul\":17072:17074   */\n      0x20\n        /* \"#utility.yul\":17064:17070   */\n      dup3\n        /* \"#utility.yul\":17060:17075   */\n      add\n        /* \"#utility.yul\":17053:17082   */\n      mstore\n        /* \"#utility.yul\":16868:17089   */\n      pop\n      jump\t// out\n        /* \"#utility.yul\":17095:17461   */\n    tag_290:\n        /* \"#utility.yul\":17237:17240   */\n      0x00\n        /* \"#utility.yul\":17258:17325   */\n      tag_461\n        /* \"#utility.yul\":17322:17324   */\n      0x22\n        /* \"#utility.yul\":17317:17320   */\n      dup4\n        /* \"#utility.yul\":17258:17325   */\n      tag_245\n      jump\t// in\n    tag_461:\n        /* \"#utility.yul\":17251:17325   */\n      swap2\n      pop\n        /* \"#utility.yul\":17334:17427   */\n      tag_462\n        /* \"#utility.yul\":17423:17426   */\n      dup3\n        /* \"#utility.yul\":17334:17427   */\n      tag_289\n      jump\t// in\n    tag_462:\n        /* \"#utility.yul\":17452:17454   */\n      0x40\n        /* \"#utility.yul\":17447:17450   */\n      dup3\n        /* \"#utility.yul\":17443:17455   */\n      add\n        /* \"#utility.yul\":17436:17455   */\n      swap1\n      pop\n        /* \"#utility.yul\":17095:17461   */\n      swap2\n      swap1\n      pop\n      jump\t// out\n        /* \"#utility.yul\":17467:17886   */\n    tag_211:\n        /* \"#utility.yul\":17633:17637   */\n      0x00\n        /* \"#utility.yul\":17671:17673   */\n      0x20\n        /* \"#utility.yul\":17660:17669   */\n      dup3\n        /* \"#utility.yul\":17656:17674   */\n      add\n        /* \"#utility.yul\":17648:17674   */\n      swap1\n      pop\n        /* \"#utility.yul\":17720:17729   */\n      dup2\n        /* \"#utility.yul\":17714:17718   */\n      dup2\n        /* \"#utility.yul\":17710:17730   */\n      sub\n        /* \"#utility.yul\":17706:17707   */\n      0x00\n        /* \"#utility.yul\":17695:17704   */\n      dup4\n        /* \"#utility.yul\":17691:17708   */\n      add\n        /* \"#utility.yul\":17684:17731   */\n      mstore\n        /* \"#utility.yul\":17748:17879   */\n      tag_464\n        /* \"#utility.yul\":17874:17878   */\n      dup2\n        /* \"#utility.yul\":17748:17879   */\n      tag_290\n      jump\t// in\n    tag_464:\n        /* \"#utility.yul\":17740:17879   */\n      swap1\n      pop\n        /* \"#utility.yul\":17467:17886   */\n      swap2\n      swap1\n      pop\n      jump\t// out\n        /* \"#utility.yul\":17892:18074   */\n    tag_291:\n        /* \"#utility.yul\":18032:18066   */\n      0x4f776e61626c653a2063616c6c6572206973206e6f7420746865206f776e6572\n        /* \"#utility.yul\":18028:18029   */\n      0x00\n        /* \"#utility.yul\":18020:18026   */\n      dup3\n        /* \"#utility.yul\":18016:18030   */\n      add\n        /* \"#utility.yul\":18009:18067   */\n      mstore\n        /* \"#utility.yul\":17892:18074   */\n      pop\n      jump\t// out\n        /* \"#utility.yul\":18080:18446   */\n    tag_292:\n        /* \"#utility.yul\":18222:18225   */\n      0x00\n        /* \"#utility.yul\":18243:18310   */\n      tag_467\n        /* \"#utility.yul\":18307:18309   */\n      0x20\n        /* \"#utility.yul\":18302:18305   */\n      dup4\n        /* \"#utility.yul\":18243:18310   */\n      tag_245\n      jump\t// in\n    tag_467:\n        /* \"#utility.yul\":18236:18310   */\n      swap2\n      pop\n        /* \"#utility.yul\":18319:18412   */\n      tag_468\n        /* \"#utility.yul\":18408:18411   */\n      dup3\n        /* \"#utility.yul\":18319:18412   */\n      tag_291\n      jump\t// in\n    tag_468:\n        /* \"#utility.yul\":18437:18439   */\n      0x20\n        /* \"#utility.yul\":18432:18435   */\n      dup3\n        /* \"#utility.yul\":18428:18440   */\n      add\n        /* \"#utility.yul\":18421:18440   */\n      swap1\n      pop\n        /* \"#utility.yul\":18080:18446   */\n      swap2\n      swap1\n      pop\n      jump\t// out\n        /* \"#utility.yul\":18452:18871   */\n    tag_220:\n        /* \"#utility.yul\":18618:18622   */\n      0x00\n        /* \"#utility.yul\":18656:18658   */\n      0x20\n        /* \"#utility.yul\":18645:18654   */\n      dup3\n        /* \"#utility.yul\":18641:18659   */\n      add\n        /* \"#utility.yul\":18633:18659   */\n      swap1\n      pop\n        /* \"#utility.yul\":18705:18714   */\n      dup2\n        /* \"#utility.yul\":18699:18703   */\n      dup2\n        /* \"#utility.yul\":18695:18715   */\n      sub\n        /* \"#utility.yul\":18691:18692   */\n      0x00\n        /* \"#utility.yul\":18680:18689   */\n      dup4\n        /* \"#utility.yul\":18676:18693   */\n      add\n        /* \"#utility.yul\":18669:18716   */\n      mstore\n        /* \"#utility.yul\":18733:18864   */\n      tag_470\n        /* \"#utility.yul\":18859:18863   */\n      dup2\n        /* \"#utility.yul\":18733:18864   */\n      tag_292\n      jump\t// in\n    tag_470:\n        /* \"#utility.yul\":18725:18864   */\n      swap1\n      pop\n        /* \"#utility.yul\":18452:18871   */\n      swap2\n      swap1\n      pop\n      jump\t// out\n        /* \"#utility.yul\":18877:19056   */\n    tag_293:\n        /* \"#utility.yul\":19017:19048   */\n      0x45524332303a20696e73756666696369656e7420616c6c6f77616e6365000000\n        /* \"#utility.yul\":19013:19014   */\n      0x00\n        /* \"#utility.yul\":19005:19011   */\n      dup3\n        /* \"#utility.yul\":19001:19015   */\n      add\n        /* \"#utility.yul\":18994:19049   */\n      mstore\n        /* \"#utility.yul\":18877:19056   */\n      pop\n      jump\t// out\n        /* \"#utility.yul\":19062:19428   */\n    tag_294:\n        /* \"#utility.yul\":19204:19207   */\n      0x00\n        /* \"#utility.yul\":19225:19292   */\n      tag_473\n        /* \"#utility.yul\":19289:19291   */\n      0x1d\n        /* \"#utility.yul\":19284:19287   */\n      dup4\n        /* \"#utility.yul\":19225:19292   */\n      tag_245\n      jump\t// in\n    tag_473:\n        /* \"#utility.yul\":19218:19292   */\n      swap2\n      pop\n        /* \"#utility.yul\":19301:19394   */\n      tag_474\n        /* \"#utility.yul\":19390:19393   */\n      dup3\n        /* \"#utility.yul\":19301:19394   */\n      tag_293\n      jump\t// in\n    tag_474:\n        /* \"#utility.yul\":19419:19421   */\n      0x20\n        /* \"#utility.yul\":19414:19417   */\n      dup3\n        /* \"#utility.yul\":19410:19422   */\n      add\n        /* \"#utility.yul\":19403:19422   */\n      swap1\n      pop\n        /* \"#utility.yul\":19062:19428   */\n      swap2\n      swap1\n      pop\n      jump\t// out\n        /* \"#utility.yul\":19434:19853   */\n    tag_227:\n        /* \"#utility.yul\":19600:19604   */\n      0x00\n        /* \"#utility.yul\":19638:19640   */\n      0x20\n        /* \"#utility.yul\":19627:19636   */\n      dup3\n        /* \"#utility.yul\":19623:19641   */\n      add\n        /* \"#utility.yul\":19615:19641   */\n      swap1\n      pop\n        /* \"#utility.yul\":19687:19696   */\n      dup2\n        /* \"#utility.yul\":19681:19685   */\n      dup2\n        /* \"#utility.yul\":19677:19697   */\n      sub\n        /* \"#utility.yul\":19673:19674   */\n      0x00\n        /* \"#utility.yul\":19662:19671   */\n      dup4\n        /* \"#utility.yul\":19658:19675   */\n      add\n        /* \"#utility.yul\":19651:19698   */\n      mstore\n        /* \"#utility.yul\":19715:19846   */\n      tag_476\n        /* \"#utility.yul\":19841:19845   */\n      dup2\n        /* \"#utility.yul\":19715:19846   */\n      tag_294\n      jump\t// in\n    tag_476:\n        /* \"#utility.yul\":19707:19846   */\n      swap1\n      pop\n        /* \"#utility.yul\":19434:19853   */\n      swap2\n      swap1\n      pop\n      jump\t// out\n        /* \"#utility.yul\":19859:20083   */\n    tag_295:\n        /* \"#utility.yul\":19999:20033   */\n      0x45524332303a207472616e736665722066726f6d20746865207a65726f206164\n        /* \"#utility.yul\":19995:19996   */\n      0x00\n        /* \"#utility.yul\":19987:19993   */\n      dup3\n        /* \"#utility.yul\":19983:19997   */\n      add\n        /* \"#utility.yul\":19976:20034   */\n      mstore\n        /* \"#utility.yul\":20068:20075   */\n      0x6472657373000000000000000000000000000000000000000000000000000000\n        /* \"#utility.yul\":20063:20065   */\n      0x20\n        /* \"#utility.yul\":20055:20061   */\n      dup3\n        /* \"#utility.yul\":20051:20066   */\n      add\n        /* \"#utility.yul\":20044:20076   */\n      mstore\n        /* \"#utility.yul\":19859:20083   */\n      pop\n      jump\t// out\n        /* \"#utility.yul\":20089:20455   */\n    tag_296:\n        /* \"#utility.yul\":20231:20234   */\n      0x00\n        /* \"#utility.yul\":20252:20319   */\n      tag_479\n        /* \"#utility.yul\":20316:20318   */\n      0x25\n        /* \"#utility.yul\":20311:20314   */\n      dup4\n        /* \"#utility.yul\":20252:20319   */\n      tag_245\n      jump\t// in\n    tag_479:\n        /* \"#utility.yul\":20245:20319   */\n      swap2\n      pop\n        /* \"#utility.yul\":20328:20421   */\n      tag_480\n        /* \"#utility.yul\":20417:20420   */\n      dup3\n        /* \"#utility.yul\":20328:20421   */\n      tag_295\n      jump\t// in\n    tag_480:\n        /* \"#utility.yul\":20446:20448   */\n      0x40\n        /* \"#utility.yul\":20441:20444   */\n      dup3\n        /* \"#utility.yul\":20437:20449   */\n      add\n        /* \"#utility.yul\":20430:20449   */\n      swap1\n      pop\n        /* \"#utility.yul\":20089:20455   */\n      swap2\n      swap1\n      pop\n      jump\t// out\n        /* \"#utility.yul\":20461:20880   */\n    tag_232:\n        /* \"#utility.yul\":20627:20631   */\n      0x00\n        /* \"#utility.yul\":20665:20667   */\n      0x20\n        /* \"#utility.yul\":20654:20663   */\n      dup3\n        /* \"#utility.yul\":20650:20668   */\n      add\n        /* \"#utility.yul\":20642:20668   */\n      swap1\n      pop\n        /* \"#utility.yul\":20714:20723   */\n      dup2\n        /* \"#utility.yul\":20708:20712   */\n      dup2\n        /* \"#utility.yul\":20704:20724   */\n      sub\n        /* \"#utility.yul\":20700:20701   */\n      0x00\n        /* \"#utility.yul\":20689:20698   */\n      dup4\n        /* \"#utility.yul\":20685:20702   */\n      add\n        /* \"#utility.yul\":20678:20725   */\n      mstore\n        /* \"#utility.yul\":20742:20873   */\n      tag_482\n        /* \"#utility.yul\":20868:20872   */\n      dup2\n        /* \"#utility.yul\":20742:20873   */\n      tag_296\n      jump\t// in\n    tag_482:\n        /* \"#utility.yul\":20734:20873   */\n      swap1\n      pop\n        /* \"#utility.yul\":20461:20880   */\n      swap2\n      swap1\n      pop\n      jump\t// out\n        /* \"#utility.yul\":20886:21108   */\n    tag_297:\n        /* \"#utility.yul\":21026:21060   */\n      0x45524332303a207472616e7366657220746f20746865207a65726f2061646472\n        /* \"#utility.yul\":21022:21023   */\n      0x00\n        /* \"#utility.yul\":21014:21020   */\n      dup3\n        /* \"#utility.yul\":21010:21024   */\n      add\n        /* \"#utility.yul\":21003:21061   */\n      mstore\n        /* \"#utility.yul\":21095:21100   */\n      0x6573730000000000000000000000000000000000000000000000000000000000\n        /* \"#utility.yul\":21090:21092   */\n      0x20\n        /* \"#utility.yul\":21082:21088   */\n      dup3\n        /* \"#utility.yul\":21078:21093   */\n      add\n        /* \"#utility.yul\":21071:21101   */\n      mstore\n        /* \"#utility.yul\":20886:21108   */\n      pop\n      jump\t// out\n        /* \"#utility.yul\":21114:21480   */\n    tag_298:\n        /* \"#utility.yul\":21256:21259   */\n      0x00\n        /* \"#utility.yul\":21277:21344   */\n      tag_485\n        /* \"#utility.yul\":21341:21343   */\n      0x23\n        /* \"#utility.yul\":21336:21339   */\n      dup4\n        /* \"#utility.yul\":21277:21344   */\n      tag_245\n      jump\t// in\n    tag_485:\n        /* \"#utility.yul\":21270:21344   */\n      swap2\n      pop\n        /* \"#utility.yul\":21353:21446   */\n      tag_486\n        /* \"#utility.yul\":21442:21445   */\n      dup3\n        /* \"#utility.yul\":21353:21446   */\n      tag_297\n      jump\t// in\n    tag_486:\n        /* \"#utility.yul\":21471:21473   */\n      0x40\n        /* \"#utility.yul\":21466:21469   */\n      dup3\n        /* \"#utility.yul\":21462:21474   */\n      add\n        /* \"#utility.yul\":21455:21474   */\n      swap1\n      pop\n        /* \"#utility.yul\":21114:21480   */\n      swap2\n      swap1\n      pop\n      jump\t// out\n        /* \"#utility.yul\":21486:21905   */\n    tag_235:\n        /* \"#utility.yul\":21652:21656   */\n      0x00\n        /* \"#utility.yul\":21690:21692   */\n      0x20\n        /* \"#utility.yul\":21679:21688   */\n      dup3\n        /* \"#utility.yul\":21675:21693   */\n      add\n        /* \"#utility.yul\":21667:21693   */\n      swap1\n      pop\n        /* \"#utility.yul\":21739:21748   */\n      dup2\n        /* \"#utility.yul\":21733:21737   */\n      dup2\n        /* \"#utility.yul\":21729:21749   */\n      sub\n        /* \"#utility.yul\":21725:21726   */\n      0x00\n        /* \"#utility.yul\":21714:21723   */\n      dup4\n        /* \"#utility.yul\":21710:21727   */\n      add\n        /* \"#utility.yul\":21703:21750   */\n      mstore\n        /* \"#utility.yul\":21767:21898   */\n      tag_488\n        /* \"#utility.yul\":21893:21897   */\n      dup2\n        /* \"#utility.yul\":21767:21898   */\n      tag_298\n      jump\t// in\n    tag_488:\n        /* \"#utility.yul\":21759:21898   */\n      swap1\n      pop\n        /* \"#utility.yul\":21486:21905   */\n      swap2\n      swap1\n      pop\n      jump\t// out\n        /* \"#utility.yul\":21911:22136   */\n    tag_299:\n        /* \"#utility.yul\":22051:22085   */\n      0x45524332303a207472616e7366657220616d6f756e7420657863656564732062\n        /* \"#utility.yul\":22047:22048   */\n      0x00\n        /* \"#utility.yul\":22039:22045   */\n      dup3\n        /* \"#utility.yul\":22035:22049   */\n      add\n        /* \"#utility.yul\":22028:22086   */\n      mstore\n        /* \"#utility.yul\":22120:22128   */\n      0x616c616e63650000000000000000000000000000000000000000000000000000\n        /* \"#utility.yul\":22115:22117   */\n      0x20\n        /* \"#utility.yul\":22107:22113   */\n      dup3\n        /* \"#utility.yul\":22103:22118   */\n      add\n        /* \"#utility.yul\":22096:22129   */\n      mstore\n        /* \"#utility.yul\":21911:22136   */\n      pop\n      jump\t// out\n        /* \"#utility.yul\":22142:22508   */\n    tag_300:\n        /* \"#utility.yul\":22284:22287   */\n      0x00\n        /* \"#utility.yul\":22305:22372   */\n      tag_491\n        /* \"#utility.yul\":22369:22371   */\n      0x26\n        /* \"#utility.yul\":22364:22367   */\n      dup4\n        /* \"#utility.yul\":22305:22372   */\n      tag_245\n      jump\t// in\n    tag_491:\n        /* \"#utility.yul\":22298:22372   */\n      swap2\n      pop\n        /* \"#utility.yul\":22381:22474   */\n      tag_492\n        /* \"#utility.yul\":22470:22473   */\n      dup3\n        /* \"#utility.yul\":22381:22474   */\n      tag_299\n      jump\t// in\n    tag_492:\n        /* \"#utility.yul\":22499:22501   */\n      0x40\n        /* \"#utility.yul\":22494:22497   */\n      dup3\n        /* \"#utility.yul\":22490:22502   */\n      add\n        /* \"#utility.yul\":22483:22502   */\n      swap1\n      pop\n        /* \"#utility.yul\":22142:22508   */\n      swap2\n      swap1\n      pop\n      jump\t// out\n        /* \"#utility.yul\":22514:22933   */\n    tag_239:\n        /* \"#utility.yul\":22680:22684   */\n      0x00\n        /* \"#utility.yul\":22718:22720   */\n      0x20\n        /* \"#utility.yul\":22707:22716   */\n      dup3\n        /* \"#utility.yul\":22703:22721   */\n      add\n        /* \"#utility.yul\":22695:22721   */\n      swap1\n      pop\n        /* \"#utility.yul\":22767:22776   */\n      dup2\n        /* \"#utility.yul\":22761:22765   */\n      dup2\n        /* \"#utility.yul\":22757:22777   */\n      sub\n        /* \"#utility.yul\":22753:22754   */\n      0x00\n        /* \"#utility.yul\":22742:22751   */\n      dup4\n        /* \"#utility.yul\":22738:22755   */\n      add\n        /* \"#utility.yul\":22731:22778   */\n      mstore\n        /* \"#utility.yul\":22795:22926   */\n      tag_494\n        /* \"#utility.yul\":22921:22925   */\n      dup2\n        /* \"#utility.yul\":22795:22926   */\n      tag_300\n      jump\t// in\n    tag_494:\n        /* \"#utility.yul\":22787:22926   */\n      swap1\n      pop\n        /* \"#utility.yul\":22514:22933   */\n      swap2\n      swap1\n      pop\n      jump\t// out\n\n    auxdata: 0xa2646970667358221220e5d794fed8402550c263d74bb9ebb513c9aa6207f4aa9f723570977b6d18ea0f64736f6c634300080a0033\n}\n",
				"bytecode": {
					"linkReferences": {},
					"object": "6080604052620000146200012160201b60201c565b60ff16600a620000259190620005ad565b633b9aca00620000369190620005fe565b6007553480156200004657600080fd5b506040518060400160405280601481526020017f4a656574657273204f757420436861647320496e0000000000000000000000008152506040518060400160405280600481526020017f4a4f4349000000000000000000000000000000000000000000000000000000008152508160039080519060200190620000cb92919062000370565b508060049080519060200190620000e492919062000370565b50505062000107620000fb6200012a60201b60201c565b6200013260201b60201c565b6200011b33600754620001f860201b60201c565b620007d2565b60006012905090565b600033905090565b6000600560009054906101000a900473ffffffffffffffffffffffffffffffffffffffff16905081600560006101000a81548173ffffffffffffffffffffffffffffffffffffffff021916908373ffffffffffffffffffffffffffffffffffffffff1602179055508173ffffffffffffffffffffffffffffffffffffffff168173ffffffffffffffffffffffffffffffffffffffff167f8be0079c531659141344cd1fd0a4f28419497f9722a3daafe3b4186f6b6457e060405160405180910390a35050565b600073ffffffffffffffffffffffffffffffffffffffff168273ffffffffffffffffffffffffffffffffffffffff1614156200026b576040517f08c379a00000000000000000000000000000000000000000000000000000000081526004016200026290620006c0565b60405180910390fd5b6200027f600083836200036660201b60201c565b8060026000828254620002939190620006e2565b92505081905550806000808473ffffffffffffffffffffffffffffffffffffffff1673ffffffffffffffffffffffffffffffffffffffff168152602001908152602001600020600082825401925050819055508173ffffffffffffffffffffffffffffffffffffffff16600073ffffffffffffffffffffffffffffffffffffffff167fddf252ad1be2c89b69c2b068fc378daa952ba7f163c4a11628f55a4df523b3ef8360405162000346919062000750565b60405180910390a362000362600083836200036b60201b60201c565b5050565b505050565b505050565b8280546200037e906200079c565b90600052602060002090601f016020900481019282620003a25760008555620003ee565b82601f10620003bd57805160ff1916838001178555620003ee565b82800160010185558215620003ee579182015b82811115620003ed578251825591602001919060010190620003d0565b5b509050620003fd919062000401565b5090565b5b808211156200041c57600081600090555060010162000402565b5090565b7f4e487b7100000000000000000000000000000000000000000000000000000000600052601160045260246000fd5b60008160011c9050919050565b6000808291508390505b6001851115620004ae5780860481111562000486576200048562000420565b5b6001851615620004965780820291505b8081029050620004a6856200044f565b945062000466565b94509492505050565b600082620004c957600190506200059c565b81620004d957600090506200059c565b8160018114620004f25760028114620004fd5762000533565b60019150506200059c565b60ff84111562000512576200051162000420565b5b8360020a9150848211156200052c576200052b62000420565b5b506200059c565b5060208310610133831016604e8410600b84101617156200056d5782820a90508381111562000567576200056662000420565b5b6200059c565b6200057c84848460016200045c565b9250905081840481111562000596576200059562000420565b5b81810290505b9392505050565b6000819050919050565b6000620005ba82620005a3565b9150620005c783620005a3565b9250620005f67fffffffffffffffffffffffffffffffffffffffffffffffffffffffffffffffff8484620004b7565b905092915050565b60006200060b82620005a3565b91506200061883620005a3565b9250817fffffffffffffffffffffffffffffffffffffffffffffffffffffffffffffffff048311821515161562000654576200065362000420565b5b828202905092915050565b600082825260208201905092915050565b7f45524332303a206d696e7420746f20746865207a65726f206164647265737300600082015250565b6000620006a8601f836200065f565b9150620006b58262000670565b602082019050919050565b60006020820190508181036000830152620006db8162000699565b9050919050565b6000620006ef82620005a3565b9150620006fc83620005a3565b9250827fffffffffffffffffffffffffffffffffffffffffffffffffffffffffffffffff0382111562000734576200073362000420565b5b828201905092915050565b6200074a81620005a3565b82525050565b60006020820190506200076760008301846200073f565b92915050565b7f4e487b7100000000000000000000000000000000000000000000000000000000600052602260045260246000fd5b60006002820490506001821680620007b557607f821691505b60208210811415620007cc57620007cb6200076d565b5b50919050565b61207f80620007e26000396000f3fe608060405234801561001057600080fd5b50600436106101165760003560e01c8063715018a6116100a2578063a457c2d711610071578063a457c2d7146102d1578063a9059cbb14610301578063dd62ed3e14610331578063f2fde38b14610361578063fb293ba01461037d57610116565b8063715018a61461026f57806379cc6790146102795780638da5cb5b1461029557806395d89b41146102b357610116565b8063313ce567116100e9578063313ce567146101b757806339509351146101d55780633cc3c2211461020557806342966c681461022357806370a082311461023f57610116565b806306fdde031461011b578063095ea7b31461013957806318160ddd1461016957806323b872dd14610187575b600080fd5b610123610399565b604051610130919061144b565b60405180910390f35b610153600480360381019061014e9190611506565b61042b565b6040516101609190611561565b60405180910390f35b61017161044e565b60405161017e919061158b565b60405180910390f35b6101a1600480360381019061019c91906115a6565b610458565b6040516101ae9190611561565b60405180910390f35b6101bf6104b7565b6040516101cc9190611615565b60405180910390f35b6101ef60048036038101906101ea9190611506565b6104c0565b6040516101fc9190611561565b60405180910390f35b61020d6104f7565b60405161021a919061163f565b60405180910390f35b61023d6004803603810190610238919061165a565b610521565b005b61025960048036038101906102549190611687565b610535565b604051610266919061158b565b60405180910390f35b61027761057d565b005b610293600480360381019061028e9190611506565b610591565b005b61029d6105b1565b6040516102aa919061163f565b60405180910390f35b6102bb6105db565b6040516102c8919061144b565b60405180910390f35b6102eb60048036038101906102e69190611506565b61066d565b6040516102f89190611561565b60405180910390f35b61031b60048036038101906103169190611506565b6106e4565b6040516103289190611561565b60405180910390f35b61034b600480360381019061034691906116b4565b610707565b604051610358919061158b565b60405180910390f35b61037b60048036038101906103769190611687565b61078e565b005b61039760048036038101906103929190611687565b610812565b005b6060600380546103a890611723565b80601f01602080910402602001604051908101604052809291908181526020018280546103d490611723565b80156104215780601f106103f657610100808354040283529160200191610421565b820191906000526020600020905b81548152906001019060200180831161040457829003601f168201915b5050505050905090565b60008061043661085e565b9050610443818585610866565b600191505092915050565b6000600254905090565b60006104648383610a31565b6104a3576040517f08c379a000000000000000000000000000000000000000000000000000000000815260040161049a906117c7565b60405180910390fd5b6104ae848484610d63565b90509392505050565b60006012905090565b6000806104cb61085e565b90506104ec8185856104dd8589610707565b6104e79190611816565b610866565b600191505092915050565b6000600660009054906101000a900473ffffffffffffffffffffffffffffffffffffffff16905090565b61053261052c61085e565b82610d92565b50565b60008060008373ffffffffffffffffffffffffffffffffffffffff1673ffffffffffffffffffffffffffffffffffffffff168152602001908152602001600020549050919050565b610585610f60565b61058f6000610fde565b565b6105a38261059d61085e565b836110a4565b6105ad8282610d92565b5050565b6000600560009054906101000a900473ffffffffffffffffffffffffffffffffffffffff16905090565b6060600480546105ea90611723565b80601f016020809104026020016040519081016040528092919081815260200182805461061690611723565b80156106635780601f1061063857610100808354040283529160200191610663565b820191906000526020600020905b81548152906001019060200180831161064657829003601f168201915b5050505050905090565b60008061067861085e565b905060006106868286610707565b9050838110156106cb576040517f08c379a00000000000000000000000000000000000000000000000000000000081526004016106c2906118de565b60405180910390fd5b6106d88286868403610866565b60019250505092915050565b6000806106ef61085e565b90506106fc818585611130565b600191505092915050565b6000600160008473ffffffffffffffffffffffffffffffffffffffff1673ffffffffffffffffffffffffffffffffffffffff16815260200190815260200160002060008373ffffffffffffffffffffffffffffffffffffffff1673ffffffffffffffffffffffffffffffffffffffff16815260200190815260200160002054905092915050565b610796610f60565b600073ffffffffffffffffffffffffffffffffffffffff168173ffffffffffffffffffffffffffffffffffffffff161415610806576040517f08c379a00000000000000000000000000000000000000000000000000000000081526004016107fd90611970565b60405180910390fd5b61080f81610fde565b50565b61081a610f60565b80600660006101000a81548173ffffffffffffffffffffffffffffffffffffffff021916908373ffffffffffffffffffffffffffffffffffffffff16021790555050565b600033905090565b600073ffffffffffffffffffffffffffffffffffffffff168373ffffffffffffffffffffffffffffffffffffffff1614156108d6576040517f08c379a00000000000000000000000000000000000000000000000000000000081526004016108cd90611a02565b60405180910390fd5b600073ffffffffffffffffffffffffffffffffffffffff168273ffffffffffffffffffffffffffffffffffffffff161415610946576040517f08c379a000000000000000000000000000000000000000000000000000000000815260040161093d90611a94565b60405180910390fd5b80600160008573ffffffffffffffffffffffffffffffffffffffff1673ffffffffffffffffffffffffffffffffffffffff16815260200190815260200160002060008473ffffffffffffffffffffffffffffffffffffffff1673ffffffffffffffffffffffffffffffffffffffff168152602001908152602001600020819055508173ffffffffffffffffffffffffffffffffffffffff168373ffffffffffffffffffffffffffffffffffffffff167f8c5be1e5ebec7d5bd14f71427d1e84f3dd0314c0f7b2291e5b200ac8c7c3b92583604051610a24919061158b565b60405180910390a3505050565b60008073ffffffffffffffffffffffffffffffffffffffff16600660009054906101000a900473ffffffffffffffffffffffffffffffffffffffff1673ffffffffffffffffffffffffffffffffffffffff161415610a925760019050610d5d565b600660009054906101000a900473ffffffffffffffffffffffffffffffffffffffff1673ffffffffffffffffffffffffffffffffffffffff168373ffffffffffffffffffffffffffffffffffffffff1614610af05760019050610d5d565b6000600660009054906101000a900473ffffffffffffffffffffffffffffffffffffffff1690506000808273ffffffffffffffffffffffffffffffffffffffff16630902f1ac6040518163ffffffff1660e01b8152600401606060405180830381865afa158015610b65573d6000803e3d6000fd5b505050506040513d601f19601f82011682018060405250810190610b899190611b36565b509150915060008373ffffffffffffffffffffffffffffffffffffffff16630dfe16816040518163ffffffff1660e01b8152600401602060405180830381865afa158015610bdb573d6000803e3d6000fd5b505050506040513d601f19601f82011682018060405250810190610bff9190611b9e565b73ffffffffffffffffffffffffffffffffffffffff163073ffffffffffffffffffffffffffffffffffffffff161415610c4a57826dffffffffffffffffffffffffffff169050610d40565b8373ffffffffffffffffffffffffffffffffffffffff1663d21220a76040518163ffffffff1660e01b8152600401602060405180830381865afa158015610c95573d6000803e3d6000fd5b505050506040513d601f19601f82011682018060405250810190610cb99190611b9e565b73ffffffffffffffffffffffffffffffffffffffff163073ffffffffffffffffffffffffffffffffffffffff161415610d0457816dffffffffffffffffffffffffffff169050610d3f565b6040517f08c379a0000000000000000000000000000000000000000000000000000000008152600401610d3690611c17565b60405180910390fd5b5b6000606482610d4f9190611c66565b905080871115955050505050505b92915050565b600080610d6e61085e565b9050610d7b8582856110a4565b610d86858585611130565b60019150509392505050565b600073ffffffffffffffffffffffffffffffffffffffff168273ffffffffffffffffffffffffffffffffffffffff161415610e02576040517f08c379a0000000000000000000000000000000000000000000000000000000008152600401610df990611d09565b60405180910390fd5b610e0e826000836113a8565b60008060008473ffffffffffffffffffffffffffffffffffffffff1673ffffffffffffffffffffffffffffffffffffffff16815260200190815260200160002054905081811015610e94576040517f08c379a0000000000000000000000000000000000000000000000000000000008152600401610e8b90611d9b565b60405180910390fd5b8181036000808573ffffffffffffffffffffffffffffffffffffffff1673ffffffffffffffffffffffffffffffffffffffff1681526020019081526020016000208190555081600260008282540392505081905550600073ffffffffffffffffffffffffffffffffffffffff168373ffffffffffffffffffffffffffffffffffffffff167fddf252ad1be2c89b69c2b068fc378daa952ba7f163c4a11628f55a4df523b3ef84604051610f47919061158b565b60405180910390a3610f5b836000846113ad565b505050565b610f6861085e565b73ffffffffffffffffffffffffffffffffffffffff16610f866105b1565b73ffffffffffffffffffffffffffffffffffffffff1614610fdc576040517f08c379a0000000000000000000000000000000000000000000000000000000008152600401610fd390611e07565b60405180910390fd5b565b6000600560009054906101000a900473ffffffffffffffffffffffffffffffffffffffff16905081600560006101000a81548173ffffffffffffffffffffffffffffffffffffffff021916908373ffffffffffffffffffffffffffffffffffffffff1602179055508173ffffffffffffffffffffffffffffffffffffffff168173ffffffffffffffffffffffffffffffffffffffff167f8be0079c531659141344cd1fd0a4f28419497f9722a3daafe3b4186f6b6457e060405160405180910390a35050565b60006110b08484610707565b90507fffffffffffffffffffffffffffffffffffffffffffffffffffffffffffffffff811461112a578181101561111c576040517f08c379a000000000000000000000000000000000000000000000000000000000815260040161111390611e73565b60405180910390fd5b6111298484848403610866565b5b50505050565b600073ffffffffffffffffffffffffffffffffffffffff168373ffffffffffffffffffffffffffffffffffffffff1614156111a0576040517f08c379a000000000000000000000000000000000000000000000000000000000815260040161119790611f05565b60405180910390fd5b600073ffffffffffffffffffffffffffffffffffffffff168273ffffffffffffffffffffffffffffffffffffffff161415611210576040517f08c379a000000000000000000000000000000000000000000000000000000000815260040161120790611f97565b60405180910390fd5b61121b8383836113a8565b60008060008573ffffffffffffffffffffffffffffffffffffffff1673ffffffffffffffffffffffffffffffffffffffff168152602001908152602001600020549050818110156112a1576040517f08c379a000000000000000000000000000000000000000000000000000000000815260040161129890612029565b60405180910390fd5b8181036000808673ffffffffffffffffffffffffffffffffffffffff1673ffffffffffffffffffffffffffffffffffffffff16815260200190815260200160002081905550816000808573ffffffffffffffffffffffffffffffffffffffff1673ffffffffffffffffffffffffffffffffffffffff168152602001908152602001600020600082825401925050819055508273ffffffffffffffffffffffffffffffffffffffff168473ffffffffffffffffffffffffffffffffffffffff167fddf252ad1be2c89b69c2b068fc378daa952ba7f163c4a11628f55a4df523b3ef8460405161138f919061158b565b60405180910390a36113a28484846113ad565b50505050565b505050565b505050565b600081519050919050565b600082825260208201905092915050565b60005b838110156113ec5780820151818401526020810190506113d1565b838111156113fb576000848401525b50505050565b6000601f19601f8301169050919050565b600061141d826113b2565b61142781856113bd565b93506114378185602086016113ce565b61144081611401565b840191505092915050565b600060208201905081810360008301526114658184611412565b905092915050565b600080fd5b600073ffffffffffffffffffffffffffffffffffffffff82169050919050565b600061149d82611472565b9050919050565b6114ad81611492565b81146114b857600080fd5b50565b6000813590506114ca816114a4565b92915050565b6000819050919050565b6114e3816114d0565b81146114ee57600080fd5b50565b600081359050611500816114da565b92915050565b6000806040838503121561151d5761151c61146d565b5b600061152b858286016114bb565b925050602061153c858286016114f1565b9150509250929050565b60008115159050919050565b61155b81611546565b82525050565b60006020820190506115766000830184611552565b92915050565b611585816114d0565b82525050565b60006020820190506115a0600083018461157c565b92915050565b6000806000606084860312156115bf576115be61146d565b5b60006115cd868287016114bb565b93505060206115de868287016114bb565b92505060406115ef868287016114f1565b9150509250925092565b600060ff82169050919050565b61160f816115f9565b82525050565b600060208201905061162a6000830184611606565b92915050565b61163981611492565b82525050565b60006020820190506116546000830184611630565b92915050565b6000602082840312156116705761166f61146d565b5b600061167e848285016114f1565b91505092915050565b60006020828403121561169d5761169c61146d565b5b60006116ab848285016114bb565b91505092915050565b600080604083850312156116cb576116ca61146d565b5b60006116d9858286016114bb565b92505060206116ea858286016114bb565b9150509250929050565b7f4e487b7100000000000000000000000000000000000000000000000000000000600052602260045260246000fd5b6000600282049050600182168061173b57607f821691505b6020821081141561174f5761174e6116f4565b5b50919050565b7f5472616e7366657220616d6f756e74206578636565647320746865203125204c60008201527f50206c696d697400000000000000000000000000000000000000000000000000602082015250565b60006117b16027836113bd565b91506117bc82611755565b604082019050919050565b600060208201905081810360008301526117e0816117a4565b9050919050565b7f4e487b7100000000000000000000000000000000000000000000000000000000600052601160045260246000fd5b6000611821826114d0565b915061182c836114d0565b9250827fffffffffffffffffffffffffffffffffffffffffffffffffffffffffffffffff03821115611861576118606117e7565b5b828201905092915050565b7f45524332303a2064656372656173656420616c6c6f77616e63652062656c6f7760008201527f207a65726f000000000000000000000000000000000000000000000000000000602082015250565b60006118c86025836113bd565b91506118d38261186c565b604082019050919050565b600060208201905081810360008301526118f7816118bb565b9050919050565b7f4f776e61626c653a206e6577206f776e657220697320746865207a65726f206160008201527f6464726573730000000000000000000000000000000000000000000000000000602082015250565b600061195a6026836113bd565b9150611965826118fe565b604082019050919050565b600060208201905081810360008301526119898161194d565b9050919050565b7f45524332303a20617070726f76652066726f6d20746865207a65726f2061646460008201527f7265737300000000000000000000000000000000000000000000000000000000602082015250565b60006119ec6024836113bd565b91506119f782611990565b604082019050919050565b60006020820190508181036000830152611a1b816119df565b9050919050565b7f45524332303a20617070726f766520746f20746865207a65726f20616464726560008201527f7373000000000000000000000000000000000000000000000000000000000000602082015250565b6000611a7e6022836113bd565b9150611a8982611a22565b604082019050919050565b60006020820190508181036000830152611aad81611a71565b9050919050565b60006dffffffffffffffffffffffffffff82169050919050565b611ad781611ab4565b8114611ae257600080fd5b50565b600081519050611af481611ace565b92915050565b600063ffffffff82169050919050565b611b1381611afa565b8114611b1e57600080fd5b50565b600081519050611b3081611b0a565b92915050565b600080600060608486031215611b4f57611b4e61146d565b5b6000611b5d86828701611ae5565b9350506020611b6e86828701611ae5565b9250506040611b7f86828701611b21565b9150509250925092565b600081519050611b98816114a4565b92915050565b600060208284031215611bb457611bb361146d565b5b6000611bc284828501611b89565b91505092915050565b7f546f6b656e206973206e6f742070617274206f6620746865204c500000000000600082015250565b6000611c01601b836113bd565b9150611c0c82611bcb565b602082019050919050565b60006020820190508181036000830152611c3081611bf4565b9050919050565b7f4e487b7100000000000000000000000000000000000000000000000000000000600052601260045260246000fd5b6000611c71826114d0565b9150611c7c836114d0565b925082611c8c57611c8b611c37565b5b828204905092915050565b7f45524332303a206275726e2066726f6d20746865207a65726f2061646472657360008201527f7300000000000000000000000000000000000000000000000000000000000000602082015250565b6000611cf36021836113bd565b9150611cfe82611c97565b604082019050919050565b60006020820190508181036000830152611d2281611ce6565b9050919050565b7f45524332303a206275726e20616d6f756e7420657863656564732062616c616e60008201527f6365000000000000000000000000000000000000000000000000000000000000602082015250565b6000611d856022836113bd565b9150611d9082611d29565b604082019050919050565b60006020820190508181036000830152611db481611d78565b9050919050565b7f4f776e61626c653a2063616c6c6572206973206e6f7420746865206f776e6572600082015250565b6000611df16020836113bd565b9150611dfc82611dbb565b602082019050919050565b60006020820190508181036000830152611e2081611de4565b9050919050565b7f45524332303a20696e73756666696369656e7420616c6c6f77616e6365000000600082015250565b6000611e5d601d836113bd565b9150611e6882611e27565b602082019050919050565b60006020820190508181036000830152611e8c81611e50565b9050919050565b7f45524332303a207472616e736665722066726f6d20746865207a65726f20616460008201527f6472657373000000000000000000000000000000000000000000000000000000602082015250565b6000611eef6025836113bd565b9150611efa82611e93565b604082019050919050565b60006020820190508181036000830152611f1e81611ee2565b9050919050565b7f45524332303a207472616e7366657220746f20746865207a65726f206164647260008201527f6573730000000000000000000000000000000000000000000000000000000000602082015250565b6000611f816023836113bd565b9150611f8c82611f25565b604082019050919050565b60006020820190508181036000830152611fb081611f74565b9050919050565b7f45524332303a207472616e7366657220616d6f756e742065786365656473206260008201527f616c616e63650000000000000000000000000000000000000000000000000000602082015250565b60006120136026836113bd565b915061201e82611fb7565b604082019050919050565b6000602082019050818103600083015261204281612006565b905091905056fea2646970667358221220e5d794fed8402550c263d74bb9ebb513c9aa6207f4aa9f723570977b6d18ea0f64736f6c634300080a0033",
					"opcodes": "PUSH1 0x80 PUSH1 0x40 MSTORE PUSH3 0x14 PUSH3 0x121 PUSH1 0x20 SHL PUSH1 0x20 SHR JUMP JUMPDEST PUSH1 0xFF AND PUSH1 0xA PUSH3 0x25 SWAP2 SWAP1 PUSH3 0x5AD JUMP JUMPDEST PUSH4 0x3B9ACA00 PUSH3 0x36 SWAP2 SWAP1 PUSH3 0x5FE JUMP JUMPDEST PUSH1 0x7 SSTORE CALLVALUE DUP1 ISZERO PUSH3 0x46 JUMPI PUSH1 0x0 DUP1 REVERT JUMPDEST POP PUSH1 0x40 MLOAD DUP1 PUSH1 0x40 ADD PUSH1 0x40 MSTORE DUP1 PUSH1 0x14 DUP2 MSTORE PUSH1 0x20 ADD PUSH32 0x4A656574657273204F757420436861647320496E000000000000000000000000 DUP2 MSTORE POP PUSH1 0x40 MLOAD DUP1 PUSH1 0x40 ADD PUSH1 0x40 MSTORE DUP1 PUSH1 0x4 DUP2 MSTORE PUSH1 0x20 ADD PUSH32 0x4A4F434900000000000000000000000000000000000000000000000000000000 DUP2 MSTORE POP DUP2 PUSH1 0x3 SWAP1 DUP1 MLOAD SWAP1 PUSH1 0x20 ADD SWAP1 PUSH3 0xCB SWAP3 SWAP2 SWAP1 PUSH3 0x370 JUMP JUMPDEST POP DUP1 PUSH1 0x4 SWAP1 DUP1 MLOAD SWAP1 PUSH1 0x20 ADD SWAP1 PUSH3 0xE4 SWAP3 SWAP2 SWAP1 PUSH3 0x370 JUMP JUMPDEST POP POP POP PUSH3 0x107 PUSH3 0xFB PUSH3 0x12A PUSH1 0x20 SHL PUSH1 0x20 SHR JUMP JUMPDEST PUSH3 0x132 PUSH1 0x20 SHL PUSH1 0x20 SHR JUMP JUMPDEST PUSH3 0x11B CALLER PUSH1 0x7 SLOAD PUSH3 0x1F8 PUSH1 0x20 SHL PUSH1 0x20 SHR JUMP JUMPDEST PUSH3 0x7D2 JUMP JUMPDEST PUSH1 0x0 PUSH1 0x12 SWAP1 POP SWAP1 JUMP JUMPDEST PUSH1 0x0 CALLER SWAP1 POP SWAP1 JUMP JUMPDEST PUSH1 0x0 PUSH1 0x5 PUSH1 0x0 SWAP1 SLOAD SWAP1 PUSH2 0x100 EXP SWAP1 DIV PUSH20 0xFFFFFFFFFFFFFFFFFFFFFFFFFFFFFFFFFFFFFFFF AND SWAP1 POP DUP2 PUSH1 0x5 PUSH1 0x0 PUSH2 0x100 EXP DUP2 SLOAD DUP2 PUSH20 0xFFFFFFFFFFFFFFFFFFFFFFFFFFFFFFFFFFFFFFFF MUL NOT AND SWAP1 DUP4 PUSH20 0xFFFFFFFFFFFFFFFFFFFFFFFFFFFFFFFFFFFFFFFF AND MUL OR SWAP1 SSTORE POP DUP2 PUSH20 0xFFFFFFFFFFFFFFFFFFFFFFFFFFFFFFFFFFFFFFFF AND DUP2 PUSH20 0xFFFFFFFFFFFFFFFFFFFFFFFFFFFFFFFFFFFFFFFF AND PUSH32 0x8BE0079C531659141344CD1FD0A4F28419497F9722A3DAAFE3B4186F6B6457E0 PUSH1 0x40 MLOAD PUSH1 0x40 MLOAD DUP1 SWAP2 SUB SWAP1 LOG3 POP POP JUMP JUMPDEST PUSH1 0x0 PUSH20 0xFFFFFFFFFFFFFFFFFFFFFFFFFFFFFFFFFFFFFFFF AND DUP3 PUSH20 0xFFFFFFFFFFFFFFFFFFFFFFFFFFFFFFFFFFFFFFFF AND EQ ISZERO PUSH3 0x26B JUMPI PUSH1 0x40 MLOAD PUSH32 0x8C379A000000000000000000000000000000000000000000000000000000000 DUP2 MSTORE PUSH1 0x4 ADD PUSH3 0x262 SWAP1 PUSH3 0x6C0 JUMP JUMPDEST PUSH1 0x40 MLOAD DUP1 SWAP2 SUB SWAP1 REVERT JUMPDEST PUSH3 0x27F PUSH1 0x0 DUP4 DUP4 PUSH3 0x366 PUSH1 0x20 SHL PUSH1 0x20 SHR JUMP JUMPDEST DUP1 PUSH1 0x2 PUSH1 0x0 DUP3 DUP3 SLOAD PUSH3 0x293 SWAP2 SWAP1 PUSH3 0x6E2 JUMP JUMPDEST SWAP3 POP POP DUP2 SWAP1 SSTORE POP DUP1 PUSH1 0x0 DUP1 DUP5 PUSH20 0xFFFFFFFFFFFFFFFFFFFFFFFFFFFFFFFFFFFFFFFF AND PUSH20 0xFFFFFFFFFFFFFFFFFFFFFFFFFFFFFFFFFFFFFFFF AND DUP2 MSTORE PUSH1 0x20 ADD SWAP1 DUP2 MSTORE PUSH1 0x20 ADD PUSH1 0x0 KECCAK256 PUSH1 0x0 DUP3 DUP3 SLOAD ADD SWAP3 POP POP DUP2 SWAP1 SSTORE POP DUP2 PUSH20 0xFFFFFFFFFFFFFFFFFFFFFFFFFFFFFFFFFFFFFFFF AND PUSH1 0x0 PUSH20 0xFFFFFFFFFFFFFFFFFFFFFFFFFFFFFFFFFFFFFFFF AND PUSH32 0xDDF252AD1BE2C89B69C2B068FC378DAA952BA7F163C4A11628F55A4DF523B3EF DUP4 PUSH1 0x40 MLOAD PUSH3 0x346 SWAP2 SWAP1 PUSH3 0x750 JUMP JUMPDEST PUSH1 0x40 MLOAD DUP1 SWAP2 SUB SWAP1 LOG3 PUSH3 0x362 PUSH1 0x0 DUP4 DUP4 PUSH3 0x36B PUSH1 0x20 SHL PUSH1 0x20 SHR JUMP JUMPDEST POP POP JUMP JUMPDEST POP POP POP JUMP JUMPDEST POP POP POP JUMP JUMPDEST DUP3 DUP1 SLOAD PUSH3 0x37E SWAP1 PUSH3 0x79C JUMP JUMPDEST SWAP1 PUSH1 0x0 MSTORE PUSH1 0x20 PUSH1 0x0 KECCAK256 SWAP1 PUSH1 0x1F ADD PUSH1 0x20 SWAP1 DIV DUP2 ADD SWAP3 DUP3 PUSH3 0x3A2 JUMPI PUSH1 0x0 DUP6 SSTORE PUSH3 0x3EE JUMP JUMPDEST DUP3 PUSH1 0x1F LT PUSH3 0x3BD JUMPI DUP1 MLOAD PUSH1 0xFF NOT AND DUP4 DUP1 ADD OR DUP6 SSTORE PUSH3 0x3EE JUMP JUMPDEST DUP3 DUP1 ADD PUSH1 0x1 ADD DUP6 SSTORE DUP3 ISZERO PUSH3 0x3EE JUMPI SWAP2 DUP3 ADD JUMPDEST DUP3 DUP2 GT ISZERO PUSH3 0x3ED JUMPI DUP3 MLOAD DUP3 SSTORE SWAP2 PUSH1 0x20 ADD SWAP2 SWAP1 PUSH1 0x1 ADD SWAP1 PUSH3 0x3D0 JUMP JUMPDEST JUMPDEST POP SWAP1 POP PUSH3 0x3FD SWAP2 SWAP1 PUSH3 0x401 JUMP JUMPDEST POP SWAP1 JUMP JUMPDEST JUMPDEST DUP1 DUP3 GT ISZERO PUSH3 0x41C JUMPI PUSH1 0x0 DUP2 PUSH1 0x0 SWAP1 SSTORE POP PUSH1 0x1 ADD PUSH3 0x402 JUMP JUMPDEST POP SWAP1 JUMP JUMPDEST PUSH32 0x4E487B7100000000000000000000000000000000000000000000000000000000 PUSH1 0x0 MSTORE PUSH1 0x11 PUSH1 0x4 MSTORE PUSH1 0x24 PUSH1 0x0 REVERT JUMPDEST PUSH1 0x0 DUP2 PUSH1 0x1 SHR SWAP1 POP SWAP2 SWAP1 POP JUMP JUMPDEST PUSH1 0x0 DUP1 DUP3 SWAP2 POP DUP4 SWAP1 POP JUMPDEST PUSH1 0x1 DUP6 GT ISZERO PUSH3 0x4AE JUMPI DUP1 DUP7 DIV DUP2 GT ISZERO PUSH3 0x486 JUMPI PUSH3 0x485 PUSH3 0x420 JUMP JUMPDEST JUMPDEST PUSH1 0x1 DUP6 AND ISZERO PUSH3 0x496 JUMPI DUP1 DUP3 MUL SWAP2 POP JUMPDEST DUP1 DUP2 MUL SWAP1 POP PUSH3 0x4A6 DUP6 PUSH3 0x44F JUMP JUMPDEST SWAP5 POP PUSH3 0x466 JUMP JUMPDEST SWAP5 POP SWAP5 SWAP3 POP POP POP JUMP JUMPDEST PUSH1 0x0 DUP3 PUSH3 0x4C9 JUMPI PUSH1 0x1 SWAP1 POP PUSH3 0x59C JUMP JUMPDEST DUP2 PUSH3 0x4D9 JUMPI PUSH1 0x0 SWAP1 POP PUSH3 0x59C JUMP JUMPDEST DUP2 PUSH1 0x1 DUP2 EQ PUSH3 0x4F2 JUMPI PUSH1 0x2 DUP2 EQ PUSH3 0x4FD JUMPI PUSH3 0x533 JUMP JUMPDEST PUSH1 0x1 SWAP2 POP POP PUSH3 0x59C JUMP JUMPDEST PUSH1 0xFF DUP5 GT ISZERO PUSH3 0x512 JUMPI PUSH3 0x511 PUSH3 0x420 JUMP JUMPDEST JUMPDEST DUP4 PUSH1 0x2 EXP SWAP2 POP DUP5 DUP3 GT ISZERO PUSH3 0x52C JUMPI PUSH3 0x52B PUSH3 0x420 JUMP JUMPDEST JUMPDEST POP PUSH3 0x59C JUMP JUMPDEST POP PUSH1 0x20 DUP4 LT PUSH2 0x133 DUP4 LT AND PUSH1 0x4E DUP5 LT PUSH1 0xB DUP5 LT AND OR ISZERO PUSH3 0x56D JUMPI DUP3 DUP3 EXP SWAP1 POP DUP4 DUP2 GT ISZERO PUSH3 0x567 JUMPI PUSH3 0x566 PUSH3 0x420 JUMP JUMPDEST JUMPDEST PUSH3 0x59C JUMP JUMPDEST PUSH3 0x57C DUP5 DUP5 DUP5 PUSH1 0x1 PUSH3 0x45C JUMP JUMPDEST SWAP3 POP SWAP1 POP DUP2 DUP5 DIV DUP2 GT ISZERO PUSH3 0x596 JUMPI PUSH3 0x595 PUSH3 0x420 JUMP JUMPDEST JUMPDEST DUP2 DUP2 MUL SWAP1 POP JUMPDEST SWAP4 SWAP3 POP POP POP JUMP JUMPDEST PUSH1 0x0 DUP2 SWAP1 POP SWAP2 SWAP1 POP JUMP JUMPDEST PUSH1 0x0 PUSH3 0x5BA DUP3 PUSH3 0x5A3 JUMP JUMPDEST SWAP2 POP PUSH3 0x5C7 DUP4 PUSH3 0x5A3 JUMP JUMPDEST SWAP3 POP PUSH3 0x5F6 PUSH32 0xFFFFFFFFFFFFFFFFFFFFFFFFFFFFFFFFFFFFFFFFFFFFFFFFFFFFFFFFFFFFFFFF DUP5 DUP5 PUSH3 0x4B7 JUMP JUMPDEST SWAP1 POP SWAP3 SWAP2 POP POP JUMP JUMPDEST PUSH1 0x0 PUSH3 0x60B DUP3 PUSH3 0x5A3 JUMP JUMPDEST SWAP2 POP PUSH3 0x618 DUP4 PUSH3 0x5A3 JUMP JUMPDEST SWAP3 POP DUP2 PUSH32 0xFFFFFFFFFFFFFFFFFFFFFFFFFFFFFFFFFFFFFFFFFFFFFFFFFFFFFFFFFFFFFFFF DIV DUP4 GT DUP3 ISZERO ISZERO AND ISZERO PUSH3 0x654 JUMPI PUSH3 0x653 PUSH3 0x420 JUMP JUMPDEST JUMPDEST DUP3 DUP3 MUL SWAP1 POP SWAP3 SWAP2 POP POP JUMP JUMPDEST PUSH1 0x0 DUP3 DUP3 MSTORE PUSH1 0x20 DUP3 ADD SWAP1 POP SWAP3 SWAP2 POP POP JUMP JUMPDEST PUSH32 0x45524332303A206D696E7420746F20746865207A65726F206164647265737300 PUSH1 0x0 DUP3 ADD MSTORE POP JUMP JUMPDEST PUSH1 0x0 PUSH3 0x6A8 PUSH1 0x1F DUP4 PUSH3 0x65F JUMP JUMPDEST SWAP2 POP PUSH3 0x6B5 DUP3 PUSH3 0x670 JUMP JUMPDEST PUSH1 0x20 DUP3 ADD SWAP1 POP SWAP2 SWAP1 POP JUMP JUMPDEST PUSH1 0x0 PUSH1 0x20 DUP3 ADD SWAP1 POP DUP2 DUP2 SUB PUSH1 0x0 DUP4 ADD MSTORE PUSH3 0x6DB DUP2 PUSH3 0x699 JUMP JUMPDEST SWAP1 POP SWAP2 SWAP1 POP JUMP JUMPDEST PUSH1 0x0 PUSH3 0x6EF DUP3 PUSH3 0x5A3 JUMP JUMPDEST SWAP2 POP PUSH3 0x6FC DUP4 PUSH3 0x5A3 JUMP JUMPDEST SWAP3 POP DUP3 PUSH32 0xFFFFFFFFFFFFFFFFFFFFFFFFFFFFFFFFFFFFFFFFFFFFFFFFFFFFFFFFFFFFFFFF SUB DUP3 GT ISZERO PUSH3 0x734 JUMPI PUSH3 0x733 PUSH3 0x420 JUMP JUMPDEST JUMPDEST DUP3 DUP3 ADD SWAP1 POP SWAP3 SWAP2 POP POP JUMP JUMPDEST PUSH3 0x74A DUP2 PUSH3 0x5A3 JUMP JUMPDEST DUP3 MSTORE POP POP JUMP JUMPDEST PUSH1 0x0 PUSH1 0x20 DUP3 ADD SWAP1 POP PUSH3 0x767 PUSH1 0x0 DUP4 ADD DUP5 PUSH3 0x73F JUMP JUMPDEST SWAP3 SWAP2 POP POP JUMP JUMPDEST PUSH32 0x4E487B7100000000000000000000000000000000000000000000000000000000 PUSH1 0x0 MSTORE PUSH1 0x22 PUSH1 0x4 MSTORE PUSH1 0x24 PUSH1 0x0 REVERT JUMPDEST PUSH1 0x0 PUSH1 0x2 DUP3 DIV SWAP1 POP PUSH1 0x1 DUP3 AND DUP1 PUSH3 0x7B5 JUMPI PUSH1 0x7F DUP3 AND SWAP2 POP JUMPDEST PUSH1 0x20 DUP3 LT DUP2 EQ ISZERO PUSH3 0x7CC JUMPI PUSH3 0x7CB PUSH3 0x76D JUMP JUMPDEST JUMPDEST POP SWAP2 SWAP1 POP JUMP JUMPDEST PUSH2 0x207F DUP1 PUSH3 0x7E2 PUSH1 0x0 CODECOPY PUSH1 0x0 RETURN INVALID PUSH1 0x80 PUSH1 0x40 MSTORE CALLVALUE DUP1 ISZERO PUSH2 0x10 JUMPI PUSH1 0x0 DUP1 REVERT JUMPDEST POP PUSH1 0x4 CALLDATASIZE LT PUSH2 0x116 JUMPI PUSH1 0x0 CALLDATALOAD PUSH1 0xE0 SHR DUP1 PUSH4 0x715018A6 GT PUSH2 0xA2 JUMPI DUP1 PUSH4 0xA457C2D7 GT PUSH2 0x71 JUMPI DUP1 PUSH4 0xA457C2D7 EQ PUSH2 0x2D1 JUMPI DUP1 PUSH4 0xA9059CBB EQ PUSH2 0x301 JUMPI DUP1 PUSH4 0xDD62ED3E EQ PUSH2 0x331 JUMPI DUP1 PUSH4 0xF2FDE38B EQ PUSH2 0x361 JUMPI DUP1 PUSH4 0xFB293BA0 EQ PUSH2 0x37D JUMPI PUSH2 0x116 JUMP JUMPDEST DUP1 PUSH4 0x715018A6 EQ PUSH2 0x26F JUMPI DUP1 PUSH4 0x79CC6790 EQ PUSH2 0x279 JUMPI DUP1 PUSH4 0x8DA5CB5B EQ PUSH2 0x295 JUMPI DUP1 PUSH4 0x95D89B41 EQ PUSH2 0x2B3 JUMPI PUSH2 0x116 JUMP JUMPDEST DUP1 PUSH4 0x313CE567 GT PUSH2 0xE9 JUMPI DUP1 PUSH4 0x313CE567 EQ PUSH2 0x1B7 JUMPI DUP1 PUSH4 0x39509351 EQ PUSH2 0x1D5 JUMPI DUP1 PUSH4 0x3CC3C221 EQ PUSH2 0x205 JUMPI DUP1 PUSH4 0x42966C68 EQ PUSH2 0x223 JUMPI DUP1 PUSH4 0x70A08231 EQ PUSH2 0x23F JUMPI PUSH2 0x116 JUMP JUMPDEST DUP1 PUSH4 0x6FDDE03 EQ PUSH2 0x11B JUMPI DUP1 PUSH4 0x95EA7B3 EQ PUSH2 0x139 JUMPI DUP1 PUSH4 0x18160DDD EQ PUSH2 0x169 JUMPI DUP1 PUSH4 0x23B872DD EQ PUSH2 0x187 JUMPI JUMPDEST PUSH1 0x0 DUP1 REVERT JUMPDEST PUSH2 0x123 PUSH2 0x399 JUMP JUMPDEST PUSH1 0x40 MLOAD PUSH2 0x130 SWAP2 SWAP1 PUSH2 0x144B JUMP JUMPDEST PUSH1 0x40 MLOAD DUP1 SWAP2 SUB SWAP1 RETURN JUMPDEST PUSH2 0x153 PUSH1 0x4 DUP1 CALLDATASIZE SUB DUP2 ADD SWAP1 PUSH2 0x14E SWAP2 SWAP1 PUSH2 0x1506 JUMP JUMPDEST PUSH2 0x42B JUMP JUMPDEST PUSH1 0x40 MLOAD PUSH2 0x160 SWAP2 SWAP1 PUSH2 0x1561 JUMP JUMPDEST PUSH1 0x40 MLOAD DUP1 SWAP2 SUB SWAP1 RETURN JUMPDEST PUSH2 0x171 PUSH2 0x44E JUMP JUMPDEST PUSH1 0x40 MLOAD PUSH2 0x17E SWAP2 SWAP1 PUSH2 0x158B JUMP JUMPDEST PUSH1 0x40 MLOAD DUP1 SWAP2 SUB SWAP1 RETURN JUMPDEST PUSH2 0x1A1 PUSH1 0x4 DUP1 CALLDATASIZE SUB DUP2 ADD SWAP1 PUSH2 0x19C SWAP2 SWAP1 PUSH2 0x15A6 JUMP JUMPDEST PUSH2 0x458 JUMP JUMPDEST PUSH1 0x40 MLOAD PUSH2 0x1AE SWAP2 SWAP1 PUSH2 0x1561 JUMP JUMPDEST PUSH1 0x40 MLOAD DUP1 SWAP2 SUB SWAP1 RETURN JUMPDEST PUSH2 0x1BF PUSH2 0x4B7 JUMP JUMPDEST PUSH1 0x40 MLOAD PUSH2 0x1CC SWAP2 SWAP1 PUSH2 0x1615 JUMP JUMPDEST PUSH1 0x40 MLOAD DUP1 SWAP2 SUB SWAP1 RETURN JUMPDEST PUSH2 0x1EF PUSH1 0x4 DUP1 CALLDATASIZE SUB DUP2 ADD SWAP1 PUSH2 0x1EA SWAP2 SWAP1 PUSH2 0x1506 JUMP JUMPDEST PUSH2 0x4C0 JUMP JUMPDEST PUSH1 0x40 MLOAD PUSH2 0x1FC SWAP2 SWAP1 PUSH2 0x1561 JUMP JUMPDEST PUSH1 0x40 MLOAD DUP1 SWAP2 SUB SWAP1 RETURN JUMPDEST PUSH2 0x20D PUSH2 0x4F7 JUMP JUMPDEST PUSH1 0x40 MLOAD PUSH2 0x21A SWAP2 SWAP1 PUSH2 0x163F JUMP JUMPDEST PUSH1 0x40 MLOAD DUP1 SWAP2 SUB SWAP1 RETURN JUMPDEST PUSH2 0x23D PUSH1 0x4 DUP1 CALLDATASIZE SUB DUP2 ADD SWAP1 PUSH2 0x238 SWAP2 SWAP1 PUSH2 0x165A JUMP JUMPDEST PUSH2 0x521 JUMP JUMPDEST STOP JUMPDEST PUSH2 0x259 PUSH1 0x4 DUP1 CALLDATASIZE SUB DUP2 ADD SWAP1 PUSH2 0x254 SWAP2 SWAP1 PUSH2 0x1687 JUMP JUMPDEST PUSH2 0x535 JUMP JUMPDEST PUSH1 0x40 MLOAD PUSH2 0x266 SWAP2 SWAP1 PUSH2 0x158B JUMP JUMPDEST PUSH1 0x40 MLOAD DUP1 SWAP2 SUB SWAP1 RETURN JUMPDEST PUSH2 0x277 PUSH2 0x57D JUMP JUMPDEST STOP JUMPDEST PUSH2 0x293 PUSH1 0x4 DUP1 CALLDATASIZE SUB DUP2 ADD SWAP1 PUSH2 0x28E SWAP2 SWAP1 PUSH2 0x1506 JUMP JUMPDEST PUSH2 0x591 JUMP JUMPDEST STOP JUMPDEST PUSH2 0x29D PUSH2 0x5B1 JUMP JUMPDEST PUSH1 0x40 MLOAD PUSH2 0x2AA SWAP2 SWAP1 PUSH2 0x163F JUMP JUMPDEST PUSH1 0x40 MLOAD DUP1 SWAP2 SUB SWAP1 RETURN JUMPDEST PUSH2 0x2BB PUSH2 0x5DB JUMP JUMPDEST PUSH1 0x40 MLOAD PUSH2 0x2C8 SWAP2 SWAP1 PUSH2 0x144B JUMP JUMPDEST PUSH1 0x40 MLOAD DUP1 SWAP2 SUB SWAP1 RETURN JUMPDEST PUSH2 0x2EB PUSH1 0x4 DUP1 CALLDATASIZE SUB DUP2 ADD SWAP1 PUSH2 0x2E6 SWAP2 SWAP1 PUSH2 0x1506 JUMP JUMPDEST PUSH2 0x66D JUMP JUMPDEST PUSH1 0x40 MLOAD PUSH2 0x2F8 SWAP2 SWAP1 PUSH2 0x1561 JUMP JUMPDEST PUSH1 0x40 MLOAD DUP1 SWAP2 SUB SWAP1 RETURN JUMPDEST PUSH2 0x31B PUSH1 0x4 DUP1 CALLDATASIZE SUB DUP2 ADD SWAP1 PUSH2 0x316 SWAP2 SWAP1 PUSH2 0x1506 JUMP JUMPDEST PUSH2 0x6E4 JUMP JUMPDEST PUSH1 0x40 MLOAD PUSH2 0x328 SWAP2 SWAP1 PUSH2 0x1561 JUMP JUMPDEST PUSH1 0x40 MLOAD DUP1 SWAP2 SUB SWAP1 RETURN JUMPDEST PUSH2 0x34B PUSH1 0x4 DUP1 CALLDATASIZE SUB DUP2 ADD SWAP1 PUSH2 0x346 SWAP2 SWAP1 PUSH2 0x16B4 JUMP JUMPDEST PUSH2 0x707 JUMP JUMPDEST PUSH1 0x40 MLOAD PUSH2 0x358 SWAP2 SWAP1 PUSH2 0x158B JUMP JUMPDEST PUSH1 0x40 MLOAD DUP1 SWAP2 SUB SWAP1 RETURN JUMPDEST PUSH2 0x37B PUSH1 0x4 DUP1 CALLDATASIZE SUB DUP2 ADD SWAP1 PUSH2 0x376 SWAP2 SWAP1 PUSH2 0x1687 JUMP JUMPDEST PUSH2 0x78E JUMP JUMPDEST STOP JUMPDEST PUSH2 0x397 PUSH1 0x4 DUP1 CALLDATASIZE SUB DUP2 ADD SWAP1 PUSH2 0x392 SWAP2 SWAP1 PUSH2 0x1687 JUMP JUMPDEST PUSH2 0x812 JUMP JUMPDEST STOP JUMPDEST PUSH1 0x60 PUSH1 0x3 DUP1 SLOAD PUSH2 0x3A8 SWAP1 PUSH2 0x1723 JUMP JUMPDEST DUP1 PUSH1 0x1F ADD PUSH1 0x20 DUP1 SWAP2 DIV MUL PUSH1 0x20 ADD PUSH1 0x40 MLOAD SWAP1 DUP2 ADD PUSH1 0x40 MSTORE DUP1 SWAP3 SWAP2 SWAP1 DUP2 DUP2 MSTORE PUSH1 0x20 ADD DUP3 DUP1 SLOAD PUSH2 0x3D4 SWAP1 PUSH2 0x1723 JUMP JUMPDEST DUP1 ISZERO PUSH2 0x421 JUMPI DUP1 PUSH1 0x1F LT PUSH2 0x3F6 JUMPI PUSH2 0x100 DUP1 DUP4 SLOAD DIV MUL DUP4 MSTORE SWAP2 PUSH1 0x20 ADD SWAP2 PUSH2 0x421 JUMP JUMPDEST DUP3 ADD SWAP2 SWAP1 PUSH1 0x0 MSTORE PUSH1 0x20 PUSH1 0x0 KECCAK256 SWAP1 JUMPDEST DUP2 SLOAD DUP2 MSTORE SWAP1 PUSH1 0x1 ADD SWAP1 PUSH1 0x20 ADD DUP1 DUP4 GT PUSH2 0x404 JUMPI DUP3 SWAP1 SUB PUSH1 0x1F AND DUP3 ADD SWAP2 JUMPDEST POP POP POP POP POP SWAP1 POP SWAP1 JUMP JUMPDEST PUSH1 0x0 DUP1 PUSH2 0x436 PUSH2 0x85E JUMP JUMPDEST SWAP1 POP PUSH2 0x443 DUP2 DUP6 DUP6 PUSH2 0x866 JUMP JUMPDEST PUSH1 0x1 SWAP2 POP POP SWAP3 SWAP2 POP POP JUMP JUMPDEST PUSH1 0x0 PUSH1 0x2 SLOAD SWAP1 POP SWAP1 JUMP JUMPDEST PUSH1 0x0 PUSH2 0x464 DUP4 DUP4 PUSH2 0xA31 JUMP JUMPDEST PUSH2 0x4A3 JUMPI PUSH1 0x40 MLOAD PUSH32 0x8C379A000000000000000000000000000000000000000000000000000000000 DUP2 MSTORE PUSH1 0x4 ADD PUSH2 0x49A SWAP1 PUSH2 0x17C7 JUMP JUMPDEST PUSH1 0x40 MLOAD DUP1 SWAP2 SUB SWAP1 REVERT JUMPDEST PUSH2 0x4AE DUP5 DUP5 DUP5 PUSH2 0xD63 JUMP JUMPDEST SWAP1 POP SWAP4 SWAP3 POP POP POP JUMP JUMPDEST PUSH1 0x0 PUSH1 0x12 SWAP1 POP SWAP1 JUMP JUMPDEST PUSH1 0x0 DUP1 PUSH2 0x4CB PUSH2 0x85E JUMP JUMPDEST SWAP1 POP PUSH2 0x4EC DUP2 DUP6 DUP6 PUSH2 0x4DD DUP6 DUP10 PUSH2 0x707 JUMP JUMPDEST PUSH2 0x4E7 SWAP2 SWAP1 PUSH2 0x1816 JUMP JUMPDEST PUSH2 0x866 JUMP JUMPDEST PUSH1 0x1 SWAP2 POP POP SWAP3 SWAP2 POP POP JUMP JUMPDEST PUSH1 0x0 PUSH1 0x6 PUSH1 0x0 SWAP1 SLOAD SWAP1 PUSH2 0x100 EXP SWAP1 DIV PUSH20 0xFFFFFFFFFFFFFFFFFFFFFFFFFFFFFFFFFFFFFFFF AND SWAP1 POP SWAP1 JUMP JUMPDEST PUSH2 0x532 PUSH2 0x52C PUSH2 0x85E JUMP JUMPDEST DUP3 PUSH2 0xD92 JUMP JUMPDEST POP JUMP JUMPDEST PUSH1 0x0 DUP1 PUSH1 0x0 DUP4 PUSH20 0xFFFFFFFFFFFFFFFFFFFFFFFFFFFFFFFFFFFFFFFF AND PUSH20 0xFFFFFFFFFFFFFFFFFFFFFFFFFFFFFFFFFFFFFFFF AND DUP2 MSTORE PUSH1 0x20 ADD SWAP1 DUP2 MSTORE PUSH1 0x20 ADD PUSH1 0x0 KECCAK256 SLOAD SWAP1 POP SWAP2 SWAP1 POP JUMP JUMPDEST PUSH2 0x585 PUSH2 0xF60 JUMP JUMPDEST PUSH2 0x58F PUSH1 0x0 PUSH2 0xFDE JUMP JUMPDEST JUMP JUMPDEST PUSH2 0x5A3 DUP3 PUSH2 0x59D PUSH2 0x85E JUMP JUMPDEST DUP4 PUSH2 0x10A4 JUMP JUMPDEST PUSH2 0x5AD DUP3 DUP3 PUSH2 0xD92 JUMP JUMPDEST POP POP JUMP JUMPDEST PUSH1 0x0 PUSH1 0x5 PUSH1 0x0 SWAP1 SLOAD SWAP1 PUSH2 0x100 EXP SWAP1 DIV PUSH20 0xFFFFFFFFFFFFFFFFFFFFFFFFFFFFFFFFFFFFFFFF AND SWAP1 POP SWAP1 JUMP JUMPDEST PUSH1 0x60 PUSH1 0x4 DUP1 SLOAD PUSH2 0x5EA SWAP1 PUSH2 0x1723 JUMP JUMPDEST DUP1 PUSH1 0x1F ADD PUSH1 0x20 DUP1 SWAP2 DIV MUL PUSH1 0x20 ADD PUSH1 0x40 MLOAD SWAP1 DUP2 ADD PUSH1 0x40 MSTORE DUP1 SWAP3 SWAP2 SWAP1 DUP2 DUP2 MSTORE PUSH1 0x20 ADD DUP3 DUP1 SLOAD PUSH2 0x616 SWAP1 PUSH2 0x1723 JUMP JUMPDEST DUP1 ISZERO PUSH2 0x663 JUMPI DUP1 PUSH1 0x1F LT PUSH2 0x638 JUMPI PUSH2 0x100 DUP1 DUP4 SLOAD DIV MUL DUP4 MSTORE SWAP2 PUSH1 0x20 ADD SWAP2 PUSH2 0x663 JUMP JUMPDEST DUP3 ADD SWAP2 SWAP1 PUSH1 0x0 MSTORE PUSH1 0x20 PUSH1 0x0 KECCAK256 SWAP1 JUMPDEST DUP2 SLOAD DUP2 MSTORE SWAP1 PUSH1 0x1 ADD SWAP1 PUSH1 0x20 ADD DUP1 DUP4 GT PUSH2 0x646 JUMPI DUP3 SWAP1 SUB PUSH1 0x1F AND DUP3 ADD SWAP2 JUMPDEST POP POP POP POP POP SWAP1 POP SWAP1 JUMP JUMPDEST PUSH1 0x0 DUP1 PUSH2 0x678 PUSH2 0x85E JUMP JUMPDEST SWAP1 POP PUSH1 0x0 PUSH2 0x686 DUP3 DUP7 PUSH2 0x707 JUMP JUMPDEST SWAP1 POP DUP4 DUP2 LT ISZERO PUSH2 0x6CB JUMPI PUSH1 0x40 MLOAD PUSH32 0x8C379A000000000000000000000000000000000000000000000000000000000 DUP2 MSTORE PUSH1 0x4 ADD PUSH2 0x6C2 SWAP1 PUSH2 0x18DE JUMP JUMPDEST PUSH1 0x40 MLOAD DUP1 SWAP2 SUB SWAP1 REVERT JUMPDEST PUSH2 0x6D8 DUP3 DUP7 DUP7 DUP5 SUB PUSH2 0x866 JUMP JUMPDEST PUSH1 0x1 SWAP3 POP POP POP SWAP3 SWAP2 POP POP JUMP JUMPDEST PUSH1 0x0 DUP1 PUSH2 0x6EF PUSH2 0x85E JUMP JUMPDEST SWAP1 POP PUSH2 0x6FC DUP2 DUP6 DUP6 PUSH2 0x1130 JUMP JUMPDEST PUSH1 0x1 SWAP2 POP POP SWAP3 SWAP2 POP POP JUMP JUMPDEST PUSH1 0x0 PUSH1 0x1 PUSH1 0x0 DUP5 PUSH20 0xFFFFFFFFFFFFFFFFFFFFFFFFFFFFFFFFFFFFFFFF AND PUSH20 0xFFFFFFFFFFFFFFFFFFFFFFFFFFFFFFFFFFFFFFFF AND DUP2 MSTORE PUSH1 0x20 ADD SWAP1 DUP2 MSTORE PUSH1 0x20 ADD PUSH1 0x0 KECCAK256 PUSH1 0x0 DUP4 PUSH20 0xFFFFFFFFFFFFFFFFFFFFFFFFFFFFFFFFFFFFFFFF AND PUSH20 0xFFFFFFFFFFFFFFFFFFFFFFFFFFFFFFFFFFFFFFFF AND DUP2 MSTORE PUSH1 0x20 ADD SWAP1 DUP2 MSTORE PUSH1 0x20 ADD PUSH1 0x0 KECCAK256 SLOAD SWAP1 POP SWAP3 SWAP2 POP POP JUMP JUMPDEST PUSH2 0x796 PUSH2 0xF60 JUMP JUMPDEST PUSH1 0x0 PUSH20 0xFFFFFFFFFFFFFFFFFFFFFFFFFFFFFFFFFFFFFFFF AND DUP2 PUSH20 0xFFFFFFFFFFFFFFFFFFFFFFFFFFFFFFFFFFFFFFFF AND EQ ISZERO PUSH2 0x806 JUMPI PUSH1 0x40 MLOAD PUSH32 0x8C379A000000000000000000000000000000000000000000000000000000000 DUP2 MSTORE PUSH1 0x4 ADD PUSH2 0x7FD SWAP1 PUSH2 0x1970 JUMP JUMPDEST PUSH1 0x40 MLOAD DUP1 SWAP2 SUB SWAP1 REVERT JUMPDEST PUSH2 0x80F DUP2 PUSH2 0xFDE JUMP JUMPDEST POP JUMP JUMPDEST PUSH2 0x81A PUSH2 0xF60 JUMP JUMPDEST DUP1 PUSH1 0x6 PUSH1 0x0 PUSH2 0x100 EXP DUP2 SLOAD DUP2 PUSH20 0xFFFFFFFFFFFFFFFFFFFFFFFFFFFFFFFFFFFFFFFF MUL NOT AND SWAP1 DUP4 PUSH20 0xFFFFFFFFFFFFFFFFFFFFFFFFFFFFFFFFFFFFFFFF AND MUL OR SWAP1 SSTORE POP POP JUMP JUMPDEST PUSH1 0x0 CALLER SWAP1 POP SWAP1 JUMP JUMPDEST PUSH1 0x0 PUSH20 0xFFFFFFFFFFFFFFFFFFFFFFFFFFFFFFFFFFFFFFFF AND DUP4 PUSH20 0xFFFFFFFFFFFFFFFFFFFFFFFFFFFFFFFFFFFFFFFF AND EQ ISZERO PUSH2 0x8D6 JUMPI PUSH1 0x40 MLOAD PUSH32 0x8C379A000000000000000000000000000000000000000000000000000000000 DUP2 MSTORE PUSH1 0x4 ADD PUSH2 0x8CD SWAP1 PUSH2 0x1A02 JUMP JUMPDEST PUSH1 0x40 MLOAD DUP1 SWAP2 SUB SWAP1 REVERT JUMPDEST PUSH1 0x0 PUSH20 0xFFFFFFFFFFFFFFFFFFFFFFFFFFFFFFFFFFFFFFFF AND DUP3 PUSH20 0xFFFFFFFFFFFFFFFFFFFFFFFFFFFFFFFFFFFFFFFF AND EQ ISZERO PUSH2 0x946 JUMPI PUSH1 0x40 MLOAD PUSH32 0x8C379A000000000000000000000000000000000000000000000000000000000 DUP2 MSTORE PUSH1 0x4 ADD PUSH2 0x93D SWAP1 PUSH2 0x1A94 JUMP JUMPDEST PUSH1 0x40 MLOAD DUP1 SWAP2 SUB SWAP1 REVERT JUMPDEST DUP1 PUSH1 0x1 PUSH1 0x0 DUP6 PUSH20 0xFFFFFFFFFFFFFFFFFFFFFFFFFFFFFFFFFFFFFFFF AND PUSH20 0xFFFFFFFFFFFFFFFFFFFFFFFFFFFFFFFFFFFFFFFF AND DUP2 MSTORE PUSH1 0x20 ADD SWAP1 DUP2 MSTORE PUSH1 0x20 ADD PUSH1 0x0 KECCAK256 PUSH1 0x0 DUP5 PUSH20 0xFFFFFFFFFFFFFFFFFFFFFFFFFFFFFFFFFFFFFFFF AND PUSH20 0xFFFFFFFFFFFFFFFFFFFFFFFFFFFFFFFFFFFFFFFF AND DUP2 MSTORE PUSH1 0x20 ADD SWAP1 DUP2 MSTORE PUSH1 0x20 ADD PUSH1 0x0 KECCAK256 DUP2 SWAP1 SSTORE POP DUP2 PUSH20 0xFFFFFFFFFFFFFFFFFFFFFFFFFFFFFFFFFFFFFFFF AND DUP4 PUSH20 0xFFFFFFFFFFFFFFFFFFFFFFFFFFFFFFFFFFFFFFFF AND PUSH32 0x8C5BE1E5EBEC7D5BD14F71427D1E84F3DD0314C0F7B2291E5B200AC8C7C3B925 DUP4 PUSH1 0x40 MLOAD PUSH2 0xA24 SWAP2 SWAP1 PUSH2 0x158B JUMP JUMPDEST PUSH1 0x40 MLOAD DUP1 SWAP2 SUB SWAP1 LOG3 POP POP POP JUMP JUMPDEST PUSH1 0x0 DUP1 PUSH20 0xFFFFFFFFFFFFFFFFFFFFFFFFFFFFFFFFFFFFFFFF AND PUSH1 0x6 PUSH1 0x0 SWAP1 SLOAD SWAP1 PUSH2 0x100 EXP SWAP1 DIV PUSH20 0xFFFFFFFFFFFFFFFFFFFFFFFFFFFFFFFFFFFFFFFF AND PUSH20 0xFFFFFFFFFFFFFFFFFFFFFFFFFFFFFFFFFFFFFFFF AND EQ ISZERO PUSH2 0xA92 JUMPI PUSH1 0x1 SWAP1 POP PUSH2 0xD5D JUMP JUMPDEST PUSH1 0x6 PUSH1 0x0 SWAP1 SLOAD SWAP1 PUSH2 0x100 EXP SWAP1 DIV PUSH20 0xFFFFFFFFFFFFFFFFFFFFFFFFFFFFFFFFFFFFFFFF AND PUSH20 0xFFFFFFFFFFFFFFFFFFFFFFFFFFFFFFFFFFFFFFFF AND DUP4 PUSH20 0xFFFFFFFFFFFFFFFFFFFFFFFFFFFFFFFFFFFFFFFF AND EQ PUSH2 0xAF0 JUMPI PUSH1 0x1 SWAP1 POP PUSH2 0xD5D JUMP JUMPDEST PUSH1 0x0 PUSH1 0x6 PUSH1 0x0 SWAP1 SLOAD SWAP1 PUSH2 0x100 EXP SWAP1 DIV PUSH20 0xFFFFFFFFFFFFFFFFFFFFFFFFFFFFFFFFFFFFFFFF AND SWAP1 POP PUSH1 0x0 DUP1 DUP3 PUSH20 0xFFFFFFFFFFFFFFFFFFFFFFFFFFFFFFFFFFFFFFFF AND PUSH4 0x902F1AC PUSH1 0x40 MLOAD DUP2 PUSH4 0xFFFFFFFF AND PUSH1 0xE0 SHL DUP2 MSTORE PUSH1 0x4 ADD PUSH1 0x60 PUSH1 0x40 MLOAD DUP1 DUP4 SUB DUP2 DUP7 GAS STATICCALL ISZERO DUP1 ISZERO PUSH2 0xB65 JUMPI RETURNDATASIZE PUSH1 0x0 DUP1 RETURNDATACOPY RETURNDATASIZE PUSH1 0x0 REVERT JUMPDEST POP POP POP POP PUSH1 0x40 MLOAD RETURNDATASIZE PUSH1 0x1F NOT PUSH1 0x1F DUP3 ADD AND DUP3 ADD DUP1 PUSH1 0x40 MSTORE POP DUP2 ADD SWAP1 PUSH2 0xB89 SWAP2 SWAP1 PUSH2 0x1B36 JUMP JUMPDEST POP SWAP2 POP SWAP2 POP PUSH1 0x0 DUP4 PUSH20 0xFFFFFFFFFFFFFFFFFFFFFFFFFFFFFFFFFFFFFFFF AND PUSH4 0xDFE1681 PUSH1 0x40 MLOAD DUP2 PUSH4 0xFFFFFFFF AND PUSH1 0xE0 SHL DUP2 MSTORE PUSH1 0x4 ADD PUSH1 0x20 PUSH1 0x40 MLOAD DUP1 DUP4 SUB DUP2 DUP7 GAS STATICCALL ISZERO DUP1 ISZERO PUSH2 0xBDB JUMPI RETURNDATASIZE PUSH1 0x0 DUP1 RETURNDATACOPY RETURNDATASIZE PUSH1 0x0 REVERT JUMPDEST POP POP POP POP PUSH1 0x40 MLOAD RETURNDATASIZE PUSH1 0x1F NOT PUSH1 0x1F DUP3 ADD AND DUP3 ADD DUP1 PUSH1 0x40 MSTORE POP DUP2 ADD SWAP1 PUSH2 0xBFF SWAP2 SWAP1 PUSH2 0x1B9E JUMP JUMPDEST PUSH20 0xFFFFFFFFFFFFFFFFFFFFFFFFFFFFFFFFFFFFFFFF AND ADDRESS PUSH20 0xFFFFFFFFFFFFFFFFFFFFFFFFFFFFFFFFFFFFFFFF AND EQ ISZERO PUSH2 0xC4A JUMPI DUP3 PUSH14 0xFFFFFFFFFFFFFFFFFFFFFFFFFFFF AND SWAP1 POP PUSH2 0xD40 JUMP JUMPDEST DUP4 PUSH20 0xFFFFFFFFFFFFFFFFFFFFFFFFFFFFFFFFFFFFFFFF AND PUSH4 0xD21220A7 PUSH1 0x40 MLOAD DUP2 PUSH4 0xFFFFFFFF AND PUSH1 0xE0 SHL DUP2 MSTORE PUSH1 0x4 ADD PUSH1 0x20 PUSH1 0x40 MLOAD DUP1 DUP4 SUB DUP2 DUP7 GAS STATICCALL ISZERO DUP1 ISZERO PUSH2 0xC95 JUMPI RETURNDATASIZE PUSH1 0x0 DUP1 RETURNDATACOPY RETURNDATASIZE PUSH1 0x0 REVERT JUMPDEST POP POP POP POP PUSH1 0x40 MLOAD RETURNDATASIZE PUSH1 0x1F NOT PUSH1 0x1F DUP3 ADD AND DUP3 ADD DUP1 PUSH1 0x40 MSTORE POP DUP2 ADD SWAP1 PUSH2 0xCB9 SWAP2 SWAP1 PUSH2 0x1B9E JUMP JUMPDEST PUSH20 0xFFFFFFFFFFFFFFFFFFFFFFFFFFFFFFFFFFFFFFFF AND ADDRESS PUSH20 0xFFFFFFFFFFFFFFFFFFFFFFFFFFFFFFFFFFFFFFFF AND EQ ISZERO PUSH2 0xD04 JUMPI DUP2 PUSH14 0xFFFFFFFFFFFFFFFFFFFFFFFFFFFF AND SWAP1 POP PUSH2 0xD3F JUMP JUMPDEST PUSH1 0x40 MLOAD PUSH32 0x8C379A000000000000000000000000000000000000000000000000000000000 DUP2 MSTORE PUSH1 0x4 ADD PUSH2 0xD36 SWAP1 PUSH2 0x1C17 JUMP JUMPDEST PUSH1 0x40 MLOAD DUP1 SWAP2 SUB SWAP1 REVERT JUMPDEST JUMPDEST PUSH1 0x0 PUSH1 0x64 DUP3 PUSH2 0xD4F SWAP2 SWAP1 PUSH2 0x1C66 JUMP JUMPDEST SWAP1 POP DUP1 DUP8 GT ISZERO SWAP6 POP POP POP POP POP POP JUMPDEST SWAP3 SWAP2 POP POP JUMP JUMPDEST PUSH1 0x0 DUP1 PUSH2 0xD6E PUSH2 0x85E JUMP JUMPDEST SWAP1 POP PUSH2 0xD7B DUP6 DUP3 DUP6 PUSH2 0x10A4 JUMP JUMPDEST PUSH2 0xD86 DUP6 DUP6 DUP6 PUSH2 0x1130 JUMP JUMPDEST PUSH1 0x1 SWAP2 POP POP SWAP4 SWAP3 POP POP POP JUMP JUMPDEST PUSH1 0x0 PUSH20 0xFFFFFFFFFFFFFFFFFFFFFFFFFFFFFFFFFFFFFFFF AND DUP3 PUSH20 0xFFFFFFFFFFFFFFFFFFFFFFFFFFFFFFFFFFFFFFFF AND EQ ISZERO PUSH2 0xE02 JUMPI PUSH1 0x40 MLOAD PUSH32 0x8C379A000000000000000000000000000000000000000000000000000000000 DUP2 MSTORE PUSH1 0x4 ADD PUSH2 0xDF9 SWAP1 PUSH2 0x1D09 JUMP JUMPDEST PUSH1 0x40 MLOAD DUP1 SWAP2 SUB SWAP1 REVERT JUMPDEST PUSH2 0xE0E DUP3 PUSH1 0x0 DUP4 PUSH2 0x13A8 JUMP JUMPDEST PUSH1 0x0 DUP1 PUSH1 0x0 DUP5 PUSH20 0xFFFFFFFFFFFFFFFFFFFFFFFFFFFFFFFFFFFFFFFF AND PUSH20 0xFFFFFFFFFFFFFFFFFFFFFFFFFFFFFFFFFFFFFFFF AND DUP2 MSTORE PUSH1 0x20 ADD SWAP1 DUP2 MSTORE PUSH1 0x20 ADD PUSH1 0x0 KECCAK256 SLOAD SWAP1 POP DUP2 DUP2 LT ISZERO PUSH2 0xE94 JUMPI PUSH1 0x40 MLOAD PUSH32 0x8C379A000000000000000000000000000000000000000000000000000000000 DUP2 MSTORE PUSH1 0x4 ADD PUSH2 0xE8B SWAP1 PUSH2 0x1D9B JUMP JUMPDEST PUSH1 0x40 MLOAD DUP1 SWAP2 SUB SWAP1 REVERT JUMPDEST DUP2 DUP2 SUB PUSH1 0x0 DUP1 DUP6 PUSH20 0xFFFFFFFFFFFFFFFFFFFFFFFFFFFFFFFFFFFFFFFF AND PUSH20 0xFFFFFFFFFFFFFFFFFFFFFFFFFFFFFFFFFFFFFFFF AND DUP2 MSTORE PUSH1 0x20 ADD SWAP1 DUP2 MSTORE PUSH1 0x20 ADD PUSH1 0x0 KECCAK256 DUP2 SWAP1 SSTORE POP DUP2 PUSH1 0x2 PUSH1 0x0 DUP3 DUP3 SLOAD SUB SWAP3 POP POP DUP2 SWAP1 SSTORE POP PUSH1 0x0 PUSH20 0xFFFFFFFFFFFFFFFFFFFFFFFFFFFFFFFFFFFFFFFF AND DUP4 PUSH20 0xFFFFFFFFFFFFFFFFFFFFFFFFFFFFFFFFFFFFFFFF AND PUSH32 0xDDF252AD1BE2C89B69C2B068FC378DAA952BA7F163C4A11628F55A4DF523B3EF DUP5 PUSH1 0x40 MLOAD PUSH2 0xF47 SWAP2 SWAP1 PUSH2 0x158B JUMP JUMPDEST PUSH1 0x40 MLOAD DUP1 SWAP2 SUB SWAP1 LOG3 PUSH2 0xF5B DUP4 PUSH1 0x0 DUP5 PUSH2 0x13AD JUMP JUMPDEST POP POP POP JUMP JUMPDEST PUSH2 0xF68 PUSH2 0x85E JUMP JUMPDEST PUSH20 0xFFFFFFFFFFFFFFFFFFFFFFFFFFFFFFFFFFFFFFFF AND PUSH2 0xF86 PUSH2 0x5B1 JUMP JUMPDEST PUSH20 0xFFFFFFFFFFFFFFFFFFFFFFFFFFFFFFFFFFFFFFFF AND EQ PUSH2 0xFDC JUMPI PUSH1 0x40 MLOAD PUSH32 0x8C379A000000000000000000000000000000000000000000000000000000000 DUP2 MSTORE PUSH1 0x4 ADD PUSH2 0xFD3 SWAP1 PUSH2 0x1E07 JUMP JUMPDEST PUSH1 0x40 MLOAD DUP1 SWAP2 SUB SWAP1 REVERT JUMPDEST JUMP JUMPDEST PUSH1 0x0 PUSH1 0x5 PUSH1 0x0 SWAP1 SLOAD SWAP1 PUSH2 0x100 EXP SWAP1 DIV PUSH20 0xFFFFFFFFFFFFFFFFFFFFFFFFFFFFFFFFFFFFFFFF AND SWAP1 POP DUP2 PUSH1 0x5 PUSH1 0x0 PUSH2 0x100 EXP DUP2 SLOAD DUP2 PUSH20 0xFFFFFFFFFFFFFFFFFFFFFFFFFFFFFFFFFFFFFFFF MUL NOT AND SWAP1 DUP4 PUSH20 0xFFFFFFFFFFFFFFFFFFFFFFFFFFFFFFFFFFFFFFFF AND MUL OR SWAP1 SSTORE POP DUP2 PUSH20 0xFFFFFFFFFFFFFFFFFFFFFFFFFFFFFFFFFFFFFFFF AND DUP2 PUSH20 0xFFFFFFFFFFFFFFFFFFFFFFFFFFFFFFFFFFFFFFFF AND PUSH32 0x8BE0079C531659141344CD1FD0A4F28419497F9722A3DAAFE3B4186F6B6457E0 PUSH1 0x40 MLOAD PUSH1 0x40 MLOAD DUP1 SWAP2 SUB SWAP1 LOG3 POP POP JUMP JUMPDEST PUSH1 0x0 PUSH2 0x10B0 DUP5 DUP5 PUSH2 0x707 JUMP JUMPDEST SWAP1 POP PUSH32 0xFFFFFFFFFFFFFFFFFFFFFFFFFFFFFFFFFFFFFFFFFFFFFFFFFFFFFFFFFFFFFFFF DUP2 EQ PUSH2 0x112A JUMPI DUP2 DUP2 LT ISZERO PUSH2 0x111C JUMPI PUSH1 0x40 MLOAD PUSH32 0x8C379A000000000000000000000000000000000000000000000000000000000 DUP2 MSTORE PUSH1 0x4 ADD PUSH2 0x1113 SWAP1 PUSH2 0x1E73 JUMP JUMPDEST PUSH1 0x40 MLOAD DUP1 SWAP2 SUB SWAP1 REVERT JUMPDEST PUSH2 0x1129 DUP5 DUP5 DUP5 DUP5 SUB PUSH2 0x866 JUMP JUMPDEST JUMPDEST POP POP POP POP JUMP JUMPDEST PUSH1 0x0 PUSH20 0xFFFFFFFFFFFFFFFFFFFFFFFFFFFFFFFFFFFFFFFF AND DUP4 PUSH20 0xFFFFFFFFFFFFFFFFFFFFFFFFFFFFFFFFFFFFFFFF AND EQ ISZERO PUSH2 0x11A0 JUMPI PUSH1 0x40 MLOAD PUSH32 0x8C379A000000000000000000000000000000000000000000000000000000000 DUP2 MSTORE PUSH1 0x4 ADD PUSH2 0x1197 SWAP1 PUSH2 0x1F05 JUMP JUMPDEST PUSH1 0x40 MLOAD DUP1 SWAP2 SUB SWAP1 REVERT JUMPDEST PUSH1 0x0 PUSH20 0xFFFFFFFFFFFFFFFFFFFFFFFFFFFFFFFFFFFFFFFF AND DUP3 PUSH20 0xFFFFFFFFFFFFFFFFFFFFFFFFFFFFFFFFFFFFFFFF AND EQ ISZERO PUSH2 0x1210 JUMPI PUSH1 0x40 MLOAD PUSH32 0x8C379A000000000000000000000000000000000000000000000000000000000 DUP2 MSTORE PUSH1 0x4 ADD PUSH2 0x1207 SWAP1 PUSH2 0x1F97 JUMP JUMPDEST PUSH1 0x40 MLOAD DUP1 SWAP2 SUB SWAP1 REVERT JUMPDEST PUSH2 0x121B DUP4 DUP4 DUP4 PUSH2 0x13A8 JUMP JUMPDEST PUSH1 0x0 DUP1 PUSH1 0x0 DUP6 PUSH20 0xFFFFFFFFFFFFFFFFFFFFFFFFFFFFFFFFFFFFFFFF AND PUSH20 0xFFFFFFFFFFFFFFFFFFFFFFFFFFFFFFFFFFFFFFFF AND DUP2 MSTORE PUSH1 0x20 ADD SWAP1 DUP2 MSTORE PUSH1 0x20 ADD PUSH1 0x0 KECCAK256 SLOAD SWAP1 POP DUP2 DUP2 LT ISZERO PUSH2 0x12A1 JUMPI PUSH1 0x40 MLOAD PUSH32 0x8C379A000000000000000000000000000000000000000000000000000000000 DUP2 MSTORE PUSH1 0x4 ADD PUSH2 0x1298 SWAP1 PUSH2 0x2029 JUMP JUMPDEST PUSH1 0x40 MLOAD DUP1 SWAP2 SUB SWAP1 REVERT JUMPDEST DUP2 DUP2 SUB PUSH1 0x0 DUP1 DUP7 PUSH20 0xFFFFFFFFFFFFFFFFFFFFFFFFFFFFFFFFFFFFFFFF AND PUSH20 0xFFFFFFFFFFFFFFFFFFFFFFFFFFFFFFFFFFFFFFFF AND DUP2 MSTORE PUSH1 0x20 ADD SWAP1 DUP2 MSTORE PUSH1 0x20 ADD PUSH1 0x0 KECCAK256 DUP2 SWAP1 SSTORE POP DUP2 PUSH1 0x0 DUP1 DUP6 PUSH20 0xFFFFFFFFFFFFFFFFFFFFFFFFFFFFFFFFFFFFFFFF AND PUSH20 0xFFFFFFFFFFFFFFFFFFFFFFFFFFFFFFFFFFFFFFFF AND DUP2 MSTORE PUSH1 0x20 ADD SWAP1 DUP2 MSTORE PUSH1 0x20 ADD PUSH1 0x0 KECCAK256 PUSH1 0x0 DUP3 DUP3 SLOAD ADD SWAP3 POP POP DUP2 SWAP1 SSTORE POP DUP3 PUSH20 0xFFFFFFFFFFFFFFFFFFFFFFFFFFFFFFFFFFFFFFFF AND DUP5 PUSH20 0xFFFFFFFFFFFFFFFFFFFFFFFFFFFFFFFFFFFFFFFF AND PUSH32 0xDDF252AD1BE2C89B69C2B068FC378DAA952BA7F163C4A11628F55A4DF523B3EF DUP5 PUSH1 0x40 MLOAD PUSH2 0x138F SWAP2 SWAP1 PUSH2 0x158B JUMP JUMPDEST PUSH1 0x40 MLOAD DUP1 SWAP2 SUB SWAP1 LOG3 PUSH2 0x13A2 DUP5 DUP5 DUP5 PUSH2 0x13AD JUMP JUMPDEST POP POP POP POP JUMP JUMPDEST POP POP POP JUMP JUMPDEST POP POP POP JUMP JUMPDEST PUSH1 0x0 DUP2 MLOAD SWAP1 POP SWAP2 SWAP1 POP JUMP JUMPDEST PUSH1 0x0 DUP3 DUP3 MSTORE PUSH1 0x20 DUP3 ADD SWAP1 POP SWAP3 SWAP2 POP POP JUMP JUMPDEST PUSH1 0x0 JUMPDEST DUP4 DUP2 LT ISZERO PUSH2 0x13EC JUMPI DUP1 DUP3 ADD MLOAD DUP2 DUP5 ADD MSTORE PUSH1 0x20 DUP2 ADD SWAP1 POP PUSH2 0x13D1 JUMP JUMPDEST DUP4 DUP2 GT ISZERO PUSH2 0x13FB JUMPI PUSH1 0x0 DUP5 DUP5 ADD MSTORE JUMPDEST POP POP POP POP JUMP JUMPDEST PUSH1 0x0 PUSH1 0x1F NOT PUSH1 0x1F DUP4 ADD AND SWAP1 POP SWAP2 SWAP1 POP JUMP JUMPDEST PUSH1 0x0 PUSH2 0x141D DUP3 PUSH2 0x13B2 JUMP JUMPDEST PUSH2 0x1427 DUP2 DUP6 PUSH2 0x13BD JUMP JUMPDEST SWAP4 POP PUSH2 0x1437 DUP2 DUP6 PUSH1 0x20 DUP7 ADD PUSH2 0x13CE JUMP JUMPDEST PUSH2 0x1440 DUP2 PUSH2 0x1401 JUMP JUMPDEST DUP5 ADD SWAP2 POP POP SWAP3 SWAP2 POP POP JUMP JUMPDEST PUSH1 0x0 PUSH1 0x20 DUP3 ADD SWAP1 POP DUP2 DUP2 SUB PUSH1 0x0 DUP4 ADD MSTORE PUSH2 0x1465 DUP2 DUP5 PUSH2 0x1412 JUMP JUMPDEST SWAP1 POP SWAP3 SWAP2 POP POP JUMP JUMPDEST PUSH1 0x0 DUP1 REVERT JUMPDEST PUSH1 0x0 PUSH20 0xFFFFFFFFFFFFFFFFFFFFFFFFFFFFFFFFFFFFFFFF DUP3 AND SWAP1 POP SWAP2 SWAP1 POP JUMP JUMPDEST PUSH1 0x0 PUSH2 0x149D DUP3 PUSH2 0x1472 JUMP JUMPDEST SWAP1 POP SWAP2 SWAP1 POP JUMP JUMPDEST PUSH2 0x14AD DUP2 PUSH2 0x1492 JUMP JUMPDEST DUP2 EQ PUSH2 0x14B8 JUMPI PUSH1 0x0 DUP1 REVERT JUMPDEST POP JUMP JUMPDEST PUSH1 0x0 DUP2 CALLDATALOAD SWAP1 POP PUSH2 0x14CA DUP2 PUSH2 0x14A4 JUMP JUMPDEST SWAP3 SWAP2 POP POP JUMP JUMPDEST PUSH1 0x0 DUP2 SWAP1 POP SWAP2 SWAP1 POP JUMP JUMPDEST PUSH2 0x14E3 DUP2 PUSH2 0x14D0 JUMP JUMPDEST DUP2 EQ PUSH2 0x14EE JUMPI PUSH1 0x0 DUP1 REVERT JUMPDEST POP JUMP JUMPDEST PUSH1 0x0 DUP2 CALLDATALOAD SWAP1 POP PUSH2 0x1500 DUP2 PUSH2 0x14DA JUMP JUMPDEST SWAP3 SWAP2 POP POP JUMP JUMPDEST PUSH1 0x0 DUP1 PUSH1 0x40 DUP4 DUP6 SUB SLT ISZERO PUSH2 0x151D JUMPI PUSH2 0x151C PUSH2 0x146D JUMP JUMPDEST JUMPDEST PUSH1 0x0 PUSH2 0x152B DUP6 DUP3 DUP7 ADD PUSH2 0x14BB JUMP JUMPDEST SWAP3 POP POP PUSH1 0x20 PUSH2 0x153C DUP6 DUP3 DUP7 ADD PUSH2 0x14F1 JUMP JUMPDEST SWAP2 POP POP SWAP3 POP SWAP3 SWAP1 POP JUMP JUMPDEST PUSH1 0x0 DUP2 ISZERO ISZERO SWAP1 POP SWAP2 SWAP1 POP JUMP JUMPDEST PUSH2 0x155B DUP2 PUSH2 0x1546 JUMP JUMPDEST DUP3 MSTORE POP POP JUMP JUMPDEST PUSH1 0x0 PUSH1 0x20 DUP3 ADD SWAP1 POP PUSH2 0x1576 PUSH1 0x0 DUP4 ADD DUP5 PUSH2 0x1552 JUMP JUMPDEST SWAP3 SWAP2 POP POP JUMP JUMPDEST PUSH2 0x1585 DUP2 PUSH2 0x14D0 JUMP JUMPDEST DUP3 MSTORE POP POP JUMP JUMPDEST PUSH1 0x0 PUSH1 0x20 DUP3 ADD SWAP1 POP PUSH2 0x15A0 PUSH1 0x0 DUP4 ADD DUP5 PUSH2 0x157C JUMP JUMPDEST SWAP3 SWAP2 POP POP JUMP JUMPDEST PUSH1 0x0 DUP1 PUSH1 0x0 PUSH1 0x60 DUP5 DUP7 SUB SLT ISZERO PUSH2 0x15BF JUMPI PUSH2 0x15BE PUSH2 0x146D JUMP JUMPDEST JUMPDEST PUSH1 0x0 PUSH2 0x15CD DUP7 DUP3 DUP8 ADD PUSH2 0x14BB JUMP JUMPDEST SWAP4 POP POP PUSH1 0x20 PUSH2 0x15DE DUP7 DUP3 DUP8 ADD PUSH2 0x14BB JUMP JUMPDEST SWAP3 POP POP PUSH1 0x40 PUSH2 0x15EF DUP7 DUP3 DUP8 ADD PUSH2 0x14F1 JUMP JUMPDEST SWAP2 POP POP SWAP3 POP SWAP3 POP SWAP3 JUMP JUMPDEST PUSH1 0x0 PUSH1 0xFF DUP3 AND SWAP1 POP SWAP2 SWAP1 POP JUMP JUMPDEST PUSH2 0x160F DUP2 PUSH2 0x15F9 JUMP JUMPDEST DUP3 MSTORE POP POP JUMP JUMPDEST PUSH1 0x0 PUSH1 0x20 DUP3 ADD SWAP1 POP PUSH2 0x162A PUSH1 0x0 DUP4 ADD DUP5 PUSH2 0x1606 JUMP JUMPDEST SWAP3 SWAP2 POP POP JUMP JUMPDEST PUSH2 0x1639 DUP2 PUSH2 0x1492 JUMP JUMPDEST DUP3 MSTORE POP POP JUMP JUMPDEST PUSH1 0x0 PUSH1 0x20 DUP3 ADD SWAP1 POP PUSH2 0x1654 PUSH1 0x0 DUP4 ADD DUP5 PUSH2 0x1630 JUMP JUMPDEST SWAP3 SWAP2 POP POP JUMP JUMPDEST PUSH1 0x0 PUSH1 0x20 DUP3 DUP5 SUB SLT ISZERO PUSH2 0x1670 JUMPI PUSH2 0x166F PUSH2 0x146D JUMP JUMPDEST JUMPDEST PUSH1 0x0 PUSH2 0x167E DUP5 DUP3 DUP6 ADD PUSH2 0x14F1 JUMP JUMPDEST SWAP2 POP POP SWAP3 SWAP2 POP POP JUMP JUMPDEST PUSH1 0x0 PUSH1 0x20 DUP3 DUP5 SUB SLT ISZERO PUSH2 0x169D JUMPI PUSH2 0x169C PUSH2 0x146D JUMP JUMPDEST JUMPDEST PUSH1 0x0 PUSH2 0x16AB DUP5 DUP3 DUP6 ADD PUSH2 0x14BB JUMP JUMPDEST SWAP2 POP POP SWAP3 SWAP2 POP POP JUMP JUMPDEST PUSH1 0x0 DUP1 PUSH1 0x40 DUP4 DUP6 SUB SLT ISZERO PUSH2 0x16CB JUMPI PUSH2 0x16CA PUSH2 0x146D JUMP JUMPDEST JUMPDEST PUSH1 0x0 PUSH2 0x16D9 DUP6 DUP3 DUP7 ADD PUSH2 0x14BB JUMP JUMPDEST SWAP3 POP POP PUSH1 0x20 PUSH2 0x16EA DUP6 DUP3 DUP7 ADD PUSH2 0x14BB JUMP JUMPDEST SWAP2 POP POP SWAP3 POP SWAP3 SWAP1 POP JUMP JUMPDEST PUSH32 0x4E487B7100000000000000000000000000000000000000000000000000000000 PUSH1 0x0 MSTORE PUSH1 0x22 PUSH1 0x4 MSTORE PUSH1 0x24 PUSH1 0x0 REVERT JUMPDEST PUSH1 0x0 PUSH1 0x2 DUP3 DIV SWAP1 POP PUSH1 0x1 DUP3 AND DUP1 PUSH2 0x173B JUMPI PUSH1 0x7F DUP3 AND SWAP2 POP JUMPDEST PUSH1 0x20 DUP3 LT DUP2 EQ ISZERO PUSH2 0x174F JUMPI PUSH2 0x174E PUSH2 0x16F4 JUMP JUMPDEST JUMPDEST POP SWAP2 SWAP1 POP JUMP JUMPDEST PUSH32 0x5472616E7366657220616D6F756E74206578636565647320746865203125204C PUSH1 0x0 DUP3 ADD MSTORE PUSH32 0x50206C696D697400000000000000000000000000000000000000000000000000 PUSH1 0x20 DUP3 ADD MSTORE POP JUMP JUMPDEST PUSH1 0x0 PUSH2 0x17B1 PUSH1 0x27 DUP4 PUSH2 0x13BD JUMP JUMPDEST SWAP2 POP PUSH2 0x17BC DUP3 PUSH2 0x1755 JUMP JUMPDEST PUSH1 0x40 DUP3 ADD SWAP1 POP SWAP2 SWAP1 POP JUMP JUMPDEST PUSH1 0x0 PUSH1 0x20 DUP3 ADD SWAP1 POP DUP2 DUP2 SUB PUSH1 0x0 DUP4 ADD MSTORE PUSH2 0x17E0 DUP2 PUSH2 0x17A4 JUMP JUMPDEST SWAP1 POP SWAP2 SWAP1 POP JUMP JUMPDEST PUSH32 0x4E487B7100000000000000000000000000000000000000000000000000000000 PUSH1 0x0 MSTORE PUSH1 0x11 PUSH1 0x4 MSTORE PUSH1 0x24 PUSH1 0x0 REVERT JUMPDEST PUSH1 0x0 PUSH2 0x1821 DUP3 PUSH2 0x14D0 JUMP JUMPDEST SWAP2 POP PUSH2 0x182C DUP4 PUSH2 0x14D0 JUMP JUMPDEST SWAP3 POP DUP3 PUSH32 0xFFFFFFFFFFFFFFFFFFFFFFFFFFFFFFFFFFFFFFFFFFFFFFFFFFFFFFFFFFFFFFFF SUB DUP3 GT ISZERO PUSH2 0x1861 JUMPI PUSH2 0x1860 PUSH2 0x17E7 JUMP JUMPDEST JUMPDEST DUP3 DUP3 ADD SWAP1 POP SWAP3 SWAP2 POP POP JUMP JUMPDEST PUSH32 0x45524332303A2064656372656173656420616C6C6F77616E63652062656C6F77 PUSH1 0x0 DUP3 ADD MSTORE PUSH32 0x207A65726F000000000000000000000000000000000000000000000000000000 PUSH1 0x20 DUP3 ADD MSTORE POP JUMP JUMPDEST PUSH1 0x0 PUSH2 0x18C8 PUSH1 0x25 DUP4 PUSH2 0x13BD JUMP JUMPDEST SWAP2 POP PUSH2 0x18D3 DUP3 PUSH2 0x186C JUMP JUMPDEST PUSH1 0x40 DUP3 ADD SWAP1 POP SWAP2 SWAP1 POP JUMP JUMPDEST PUSH1 0x0 PUSH1 0x20 DUP3 ADD SWAP1 POP DUP2 DUP2 SUB PUSH1 0x0 DUP4 ADD MSTORE PUSH2 0x18F7 DUP2 PUSH2 0x18BB JUMP JUMPDEST SWAP1 POP SWAP2 SWAP1 POP JUMP JUMPDEST PUSH32 0x4F776E61626C653A206E6577206F776E657220697320746865207A65726F2061 PUSH1 0x0 DUP3 ADD MSTORE PUSH32 0x6464726573730000000000000000000000000000000000000000000000000000 PUSH1 0x20 DUP3 ADD MSTORE POP JUMP JUMPDEST PUSH1 0x0 PUSH2 0x195A PUSH1 0x26 DUP4 PUSH2 0x13BD JUMP JUMPDEST SWAP2 POP PUSH2 0x1965 DUP3 PUSH2 0x18FE JUMP JUMPDEST PUSH1 0x40 DUP3 ADD SWAP1 POP SWAP2 SWAP1 POP JUMP JUMPDEST PUSH1 0x0 PUSH1 0x20 DUP3 ADD SWAP1 POP DUP2 DUP2 SUB PUSH1 0x0 DUP4 ADD MSTORE PUSH2 0x1989 DUP2 PUSH2 0x194D JUMP JUMPDEST SWAP1 POP SWAP2 SWAP1 POP JUMP JUMPDEST PUSH32 0x45524332303A20617070726F76652066726F6D20746865207A65726F20616464 PUSH1 0x0 DUP3 ADD MSTORE PUSH32 0x7265737300000000000000000000000000000000000000000000000000000000 PUSH1 0x20 DUP3 ADD MSTORE POP JUMP JUMPDEST PUSH1 0x0 PUSH2 0x19EC PUSH1 0x24 DUP4 PUSH2 0x13BD JUMP JUMPDEST SWAP2 POP PUSH2 0x19F7 DUP3 PUSH2 0x1990 JUMP JUMPDEST PUSH1 0x40 DUP3 ADD SWAP1 POP SWAP2 SWAP1 POP JUMP JUMPDEST PUSH1 0x0 PUSH1 0x20 DUP3 ADD SWAP1 POP DUP2 DUP2 SUB PUSH1 0x0 DUP4 ADD MSTORE PUSH2 0x1A1B DUP2 PUSH2 0x19DF JUMP JUMPDEST SWAP1 POP SWAP2 SWAP1 POP JUMP JUMPDEST PUSH32 0x45524332303A20617070726F766520746F20746865207A65726F206164647265 PUSH1 0x0 DUP3 ADD MSTORE PUSH32 0x7373000000000000000000000000000000000000000000000000000000000000 PUSH1 0x20 DUP3 ADD MSTORE POP JUMP JUMPDEST PUSH1 0x0 PUSH2 0x1A7E PUSH1 0x22 DUP4 PUSH2 0x13BD JUMP JUMPDEST SWAP2 POP PUSH2 0x1A89 DUP3 PUSH2 0x1A22 JUMP JUMPDEST PUSH1 0x40 DUP3 ADD SWAP1 POP SWAP2 SWAP1 POP JUMP JUMPDEST PUSH1 0x0 PUSH1 0x20 DUP3 ADD SWAP1 POP DUP2 DUP2 SUB PUSH1 0x0 DUP4 ADD MSTORE PUSH2 0x1AAD DUP2 PUSH2 0x1A71 JUMP JUMPDEST SWAP1 POP SWAP2 SWAP1 POP JUMP JUMPDEST PUSH1 0x0 PUSH14 0xFFFFFFFFFFFFFFFFFFFFFFFFFFFF DUP3 AND SWAP1 POP SWAP2 SWAP1 POP JUMP JUMPDEST PUSH2 0x1AD7 DUP2 PUSH2 0x1AB4 JUMP JUMPDEST DUP2 EQ PUSH2 0x1AE2 JUMPI PUSH1 0x0 DUP1 REVERT JUMPDEST POP JUMP JUMPDEST PUSH1 0x0 DUP2 MLOAD SWAP1 POP PUSH2 0x1AF4 DUP2 PUSH2 0x1ACE JUMP JUMPDEST SWAP3 SWAP2 POP POP JUMP JUMPDEST PUSH1 0x0 PUSH4 0xFFFFFFFF DUP3 AND SWAP1 POP SWAP2 SWAP1 POP JUMP JUMPDEST PUSH2 0x1B13 DUP2 PUSH2 0x1AFA JUMP JUMPDEST DUP2 EQ PUSH2 0x1B1E JUMPI PUSH1 0x0 DUP1 REVERT JUMPDEST POP JUMP JUMPDEST PUSH1 0x0 DUP2 MLOAD SWAP1 POP PUSH2 0x1B30 DUP2 PUSH2 0x1B0A JUMP JUMPDEST SWAP3 SWAP2 POP POP JUMP JUMPDEST PUSH1 0x0 DUP1 PUSH1 0x0 PUSH1 0x60 DUP5 DUP7 SUB SLT ISZERO PUSH2 0x1B4F JUMPI PUSH2 0x1B4E PUSH2 0x146D JUMP JUMPDEST JUMPDEST PUSH1 0x0 PUSH2 0x1B5D DUP7 DUP3 DUP8 ADD PUSH2 0x1AE5 JUMP JUMPDEST SWAP4 POP POP PUSH1 0x20 PUSH2 0x1B6E DUP7 DUP3 DUP8 ADD PUSH2 0x1AE5 JUMP JUMPDEST SWAP3 POP POP PUSH1 0x40 PUSH2 0x1B7F DUP7 DUP3 DUP8 ADD PUSH2 0x1B21 JUMP JUMPDEST SWAP2 POP POP SWAP3 POP SWAP3 POP SWAP3 JUMP JUMPDEST PUSH1 0x0 DUP2 MLOAD SWAP1 POP PUSH2 0x1B98 DUP2 PUSH2 0x14A4 JUMP JUMPDEST SWAP3 SWAP2 POP POP JUMP JUMPDEST PUSH1 0x0 PUSH1 0x20 DUP3 DUP5 SUB SLT ISZERO PUSH2 0x1BB4 JUMPI PUSH2 0x1BB3 PUSH2 0x146D JUMP JUMPDEST JUMPDEST PUSH1 0x0 PUSH2 0x1BC2 DUP5 DUP3 DUP6 ADD PUSH2 0x1B89 JUMP JUMPDEST SWAP2 POP POP SWAP3 SWAP2 POP POP JUMP JUMPDEST PUSH32 0x546F6B656E206973206E6F742070617274206F6620746865204C500000000000 PUSH1 0x0 DUP3 ADD MSTORE POP JUMP JUMPDEST PUSH1 0x0 PUSH2 0x1C01 PUSH1 0x1B DUP4 PUSH2 0x13BD JUMP JUMPDEST SWAP2 POP PUSH2 0x1C0C DUP3 PUSH2 0x1BCB JUMP JUMPDEST PUSH1 0x20 DUP3 ADD SWAP1 POP SWAP2 SWAP1 POP JUMP JUMPDEST PUSH1 0x0 PUSH1 0x20 DUP3 ADD SWAP1 POP DUP2 DUP2 SUB PUSH1 0x0 DUP4 ADD MSTORE PUSH2 0x1C30 DUP2 PUSH2 0x1BF4 JUMP JUMPDEST SWAP1 POP SWAP2 SWAP1 POP JUMP JUMPDEST PUSH32 0x4E487B7100000000000000000000000000000000000000000000000000000000 PUSH1 0x0 MSTORE PUSH1 0x12 PUSH1 0x4 MSTORE PUSH1 0x24 PUSH1 0x0 REVERT JUMPDEST PUSH1 0x0 PUSH2 0x1C71 DUP3 PUSH2 0x14D0 JUMP JUMPDEST SWAP2 POP PUSH2 0x1C7C DUP4 PUSH2 0x14D0 JUMP JUMPDEST SWAP3 POP DUP3 PUSH2 0x1C8C JUMPI PUSH2 0x1C8B PUSH2 0x1C37 JUMP JUMPDEST JUMPDEST DUP3 DUP3 DIV SWAP1 POP SWAP3 SWAP2 POP POP JUMP JUMPDEST PUSH32 0x45524332303A206275726E2066726F6D20746865207A65726F20616464726573 PUSH1 0x0 DUP3 ADD MSTORE PUSH32 0x7300000000000000000000000000000000000000000000000000000000000000 PUSH1 0x20 DUP3 ADD MSTORE POP JUMP JUMPDEST PUSH1 0x0 PUSH2 0x1CF3 PUSH1 0x21 DUP4 PUSH2 0x13BD JUMP JUMPDEST SWAP2 POP PUSH2 0x1CFE DUP3 PUSH2 0x1C97 JUMP JUMPDEST PUSH1 0x40 DUP3 ADD SWAP1 POP SWAP2 SWAP1 POP JUMP JUMPDEST PUSH1 0x0 PUSH1 0x20 DUP3 ADD SWAP1 POP DUP2 DUP2 SUB PUSH1 0x0 DUP4 ADD MSTORE PUSH2 0x1D22 DUP2 PUSH2 0x1CE6 JUMP JUMPDEST SWAP1 POP SWAP2 SWAP1 POP JUMP JUMPDEST PUSH32 0x45524332303A206275726E20616D6F756E7420657863656564732062616C616E PUSH1 0x0 DUP3 ADD MSTORE PUSH32 0x6365000000000000000000000000000000000000000000000000000000000000 PUSH1 0x20 DUP3 ADD MSTORE POP JUMP JUMPDEST PUSH1 0x0 PUSH2 0x1D85 PUSH1 0x22 DUP4 PUSH2 0x13BD JUMP JUMPDEST SWAP2 POP PUSH2 0x1D90 DUP3 PUSH2 0x1D29 JUMP JUMPDEST PUSH1 0x40 DUP3 ADD SWAP1 POP SWAP2 SWAP1 POP JUMP JUMPDEST PUSH1 0x0 PUSH1 0x20 DUP3 ADD SWAP1 POP DUP2 DUP2 SUB PUSH1 0x0 DUP4 ADD MSTORE PUSH2 0x1DB4 DUP2 PUSH2 0x1D78 JUMP JUMPDEST SWAP1 POP SWAP2 SWAP1 POP JUMP JUMPDEST PUSH32 0x4F776E61626C653A2063616C6C6572206973206E6F7420746865206F776E6572 PUSH1 0x0 DUP3 ADD MSTORE POP JUMP JUMPDEST PUSH1 0x0 PUSH2 0x1DF1 PUSH1 0x20 DUP4 PUSH2 0x13BD JUMP JUMPDEST SWAP2 POP PUSH2 0x1DFC DUP3 PUSH2 0x1DBB JUMP JUMPDEST PUSH1 0x20 DUP3 ADD SWAP1 POP SWAP2 SWAP1 POP JUMP JUMPDEST PUSH1 0x0 PUSH1 0x20 DUP3 ADD SWAP1 POP DUP2 DUP2 SUB PUSH1 0x0 DUP4 ADD MSTORE PUSH2 0x1E20 DUP2 PUSH2 0x1DE4 JUMP JUMPDEST SWAP1 POP SWAP2 SWAP1 POP JUMP JUMPDEST PUSH32 0x45524332303A20696E73756666696369656E7420616C6C6F77616E6365000000 PUSH1 0x0 DUP3 ADD MSTORE POP JUMP JUMPDEST PUSH1 0x0 PUSH2 0x1E5D PUSH1 0x1D DUP4 PUSH2 0x13BD JUMP JUMPDEST SWAP2 POP PUSH2 0x1E68 DUP3 PUSH2 0x1E27 JUMP JUMPDEST PUSH1 0x20 DUP3 ADD SWAP1 POP SWAP2 SWAP1 POP JUMP JUMPDEST PUSH1 0x0 PUSH1 0x20 DUP3 ADD SWAP1 POP DUP2 DUP2 SUB PUSH1 0x0 DUP4 ADD MSTORE PUSH2 0x1E8C DUP2 PUSH2 0x1E50 JUMP JUMPDEST SWAP1 POP SWAP2 SWAP1 POP JUMP JUMPDEST PUSH32 0x45524332303A207472616E736665722066726F6D20746865207A65726F206164 PUSH1 0x0 DUP3 ADD MSTORE PUSH32 0x6472657373000000000000000000000000000000000000000000000000000000 PUSH1 0x20 DUP3 ADD MSTORE POP JUMP JUMPDEST PUSH1 0x0 PUSH2 0x1EEF PUSH1 0x25 DUP4 PUSH2 0x13BD JUMP JUMPDEST SWAP2 POP PUSH2 0x1EFA DUP3 PUSH2 0x1E93 JUMP JUMPDEST PUSH1 0x40 DUP3 ADD SWAP1 POP SWAP2 SWAP1 POP JUMP JUMPDEST PUSH1 0x0 PUSH1 0x20 DUP3 ADD SWAP1 POP DUP2 DUP2 SUB PUSH1 0x0 DUP4 ADD MSTORE PUSH2 0x1F1E DUP2 PUSH2 0x1EE2 JUMP JUMPDEST SWAP1 POP SWAP2 SWAP1 POP JUMP JUMPDEST PUSH32 0x45524332303A207472616E7366657220746F20746865207A65726F2061646472 PUSH1 0x0 DUP3 ADD MSTORE PUSH32 0x6573730000000000000000000000000000000000000000000000000000000000 PUSH1 0x20 DUP3 ADD MSTORE POP JUMP JUMPDEST PUSH1 0x0 PUSH2 0x1F81 PUSH1 0x23 DUP4 PUSH2 0x13BD JUMP JUMPDEST SWAP2 POP PUSH2 0x1F8C DUP3 PUSH2 0x1F25 JUMP JUMPDEST PUSH1 0x40 DUP3 ADD SWAP1 POP SWAP2 SWAP1 POP JUMP JUMPDEST PUSH1 0x0 PUSH1 0x20 DUP3 ADD SWAP1 POP DUP2 DUP2 SUB PUSH1 0x0 DUP4 ADD MSTORE PUSH2 0x1FB0 DUP2 PUSH2 0x1F74 JUMP JUMPDEST SWAP1 POP SWAP2 SWAP1 POP JUMP JUMPDEST PUSH32 0x45524332303A207472616E7366657220616D6F756E7420657863656564732062 PUSH1 0x0 DUP3 ADD MSTORE PUSH32 0x616C616E63650000000000000000000000000000000000000000000000000000 PUSH1 0x20 DUP3 ADD MSTORE POP JUMP JUMPDEST PUSH1 0x0 PUSH2 0x2013 PUSH1 0x26 DUP4 PUSH2 0x13BD JUMP JUMPDEST SWAP2 POP PUSH2 0x201E DUP3 PUSH2 0x1FB7 JUMP JUMPDEST PUSH1 0x40 DUP3 ADD SWAP1 POP SWAP2 SWAP1 POP JUMP JUMPDEST PUSH1 0x0 PUSH1 0x20 DUP3 ADD SWAP1 POP DUP2 DUP2 SUB PUSH1 0x0 DUP4 ADD MSTORE PUSH2 0x2042 DUP2 PUSH2 0x2006 JUMP JUMPDEST SWAP1 POP SWAP2 SWAP1 POP JUMP INVALID LOG2 PUSH5 0x6970667358 0x22 SLT KECCAK256 0xE5 0xD7 SWAP5 INVALID 0xD8 BLOCKHASH 0x25 POP 0xC2 PUSH4 0xD74BB9EB 0xB5 SGT 0xC9 0xAA PUSH3 0x7F4AA SWAP16 PUSH19 0x3570977B6D18EA0F64736F6C634300080A0033 "
				},
				"gasEstimates": {
					"creation": {
						"codeDepositCost": "1663800",
						"executionCost": "infinite",
						"totalCost": "infinite"
					},
					"external": {
						"allowance(address,address)": "infinite",
						"approve(address,uint256)": "infinite",
						"balanceOf(address)": "2952",
						"burn(uint256)": "infinite",
						"burnFrom(address,uint256)": "infinite",
						"decimals()": "366",
						"decreaseAllowance(address,uint256)": "infinite",
						"getNominatedUniswapV2LpPairAddress()": "2589",
						"increaseAllowance(address,uint256)": "infinite",
						"name()": "infinite",
						"owner()": "2589",
						"renounceOwnership()": "30421",
						"setNominatedUniswapV2LpPairAddress(address)": "27096",
						"symbol()": "infinite",
						"totalSupply()": "2505",
						"transfer(address,uint256)": "infinite",
						"transferFrom(address,address,uint256)": "infinite",
						"transferOwnership(address)": "30835"
					},
					"internal": {
						"_checkLpTransactionLimit(address,uint256)": "infinite"
					}
				},
				"methodIdentifiers": {
					"allowance(address,address)": "dd62ed3e",
					"approve(address,uint256)": "095ea7b3",
					"balanceOf(address)": "70a08231",
					"burn(uint256)": "42966c68",
					"burnFrom(address,uint256)": "79cc6790",
					"decimals()": "313ce567",
					"decreaseAllowance(address,uint256)": "a457c2d7",
					"getNominatedUniswapV2LpPairAddress()": "3cc3c221",
					"increaseAllowance(address,uint256)": "39509351",
					"name()": "06fdde03",
					"owner()": "8da5cb5b",
					"renounceOwnership()": "715018a6",
					"setNominatedUniswapV2LpPairAddress(address)": "fb293ba0",
					"symbol()": "95d89b41",
					"totalSupply()": "18160ddd",
					"transfer(address,uint256)": "a9059cbb",
					"transferFrom(address,address,uint256)": "23b872dd",
					"transferOwnership(address)": "f2fde38b"
				}
			},
			"storageLayout": {
				"storage": [
					{
						"astId": 130,
						"contract": "contracts/joci.sol:JOCIToken",
						"label": "_balances",
						"offset": 0,
						"slot": "0",
						"type": "t_mapping(t_address,t_uint256)"
					},
					{
						"astId": 136,
						"contract": "contracts/joci.sol:JOCIToken",
						"label": "_allowances",
						"offset": 0,
						"slot": "1",
						"type": "t_mapping(t_address,t_mapping(t_address,t_uint256))"
					},
					{
						"astId": 138,
						"contract": "contracts/joci.sol:JOCIToken",
						"label": "_totalSupply",
						"offset": 0,
						"slot": "2",
						"type": "t_uint256"
					},
					{
						"astId": 140,
						"contract": "contracts/joci.sol:JOCIToken",
						"label": "_name",
						"offset": 0,
						"slot": "3",
						"type": "t_string_storage"
					},
					{
						"astId": 142,
						"contract": "contracts/joci.sol:JOCIToken",
						"label": "_symbol",
						"offset": 0,
						"slot": "4",
						"type": "t_string_storage"
					},
					{
						"astId": 746,
						"contract": "contracts/joci.sol:JOCIToken",
						"label": "_owner",
						"offset": 0,
						"slot": "5",
						"type": "t_address"
					},
					{
						"astId": 891,
						"contract": "contracts/joci.sol:JOCIToken",
						"label": "_nominatedLpPairAddress",
						"offset": 0,
						"slot": "6",
						"type": "t_address"
					},
					{
						"astId": 903,
						"contract": "contracts/joci.sol:JOCIToken",
						"label": "_maxCap",
						"offset": 0,
						"slot": "7",
						"type": "t_uint256"
					}
				],
				"types": {
					"t_address": {
						"encoding": "inplace",
						"label": "address",
						"numberOfBytes": "20"
					},
					"t_mapping(t_address,t_mapping(t_address,t_uint256))": {
						"encoding": "mapping",
						"key": "t_address",
						"label": "mapping(address => mapping(address => uint256))",
						"numberOfBytes": "32",
						"value": "t_mapping(t_address,t_uint256)"
					},
					"t_mapping(t_address,t_uint256)": {
						"encoding": "mapping",
						"key": "t_address",
						"label": "mapping(address => uint256)",
						"numberOfBytes": "32",
						"value": "t_uint256"
					},
					"t_string_storage": {
						"encoding": "bytes",
						"label": "string",
						"numberOfBytes": "32"
					},
					"t_uint256": {
						"encoding": "inplace",
						"label": "uint256",
						"numberOfBytes": "32"
					}
				}
			},
			"userdoc": {
				"kind": "user",
				"methods": {},
				"version": 1
			}
		}
	}
}